{
  "_format": "hh-sol-artifact-1",
  "contractName": "Concert",
  "sourceName": "contracts/Concert.sol",
  "abi": [
    {
      "inputs": [],
      "stateMutability": "nonpayable",
      "type": "constructor"
    },
    {
      "inputs": [
        {
          "internalType": "string",
          "name": "_name",
          "type": "string"
        },
        {
          "internalType": "string",
          "name": "_location",
          "type": "string"
        },
        {
          "internalType": "uint256[]",
          "name": "_ticketCost",
          "type": "uint256[]"
        },
        {
          "internalType": "uint24[]",
          "name": "_categorySeatNumber",
          "type": "uint24[]"
        },
        {
          "internalType": "uint256",
          "name": "_concertDate",
          "type": "uint256"
        },
        {
          "internalType": "uint256",
          "name": "_salesDate",
          "type": "uint256"
        }
      ],
      "name": "createConcert",
      "outputs": [],
      "stateMutability": "nonpayable",
      "type": "function"
    },
    {
      "inputs": [
        {
          "internalType": "uint256",
          "name": "concertId",
          "type": "uint256"
        }
      ],
      "name": "deleteConcert",
      "outputs": [],
      "stateMutability": "nonpayable",
      "type": "function"
    },
    {
      "inputs": [
        {
          "internalType": "uint256",
          "name": "concertId",
          "type": "uint256"
        }
      ],
      "name": "getCategorySeatArray",
      "outputs": [
        {
          "internalType": "uint24[]",
          "name": "",
          "type": "uint24[]"
        }
      ],
      "stateMutability": "view",
      "type": "function"
    },
    {
      "inputs": [
        {
          "internalType": "uint256",
          "name": "concertId",
          "type": "uint256"
        }
      ],
      "name": "getConcertDate",
      "outputs": [
        {
          "internalType": "uint256",
          "name": "",
          "type": "uint256"
        }
      ],
      "stateMutability": "view",
      "type": "function"
    },
    {
      "inputs": [
        {
          "internalType": "uint256",
          "name": "concertId",
          "type": "uint256"
        }
      ],
      "name": "getConcertID",
      "outputs": [
        {
          "internalType": "uint256",
          "name": "",
          "type": "uint256"
        }
      ],
      "stateMutability": "view",
      "type": "function"
    },
    {
      "inputs": [
        {
          "internalType": "uint256",
          "name": "concertId",
          "type": "uint256"
        }
      ],
      "name": "getConcertStage",
      "outputs": [
        {
          "internalType": "enum Concert.Stage",
          "name": "",
          "type": "uint8"
        }
      ],
      "stateMutability": "view",
      "type": "function"
    },
    {
      "inputs": [
        {
          "internalType": "uint256",
          "name": "stageInt",
          "type": "uint256"
        }
      ],
      "name": "getConcertsByStage",
      "outputs": [
        {
          "components": [
            {
              "internalType": "uint256",
              "name": "id",
              "type": "uint256"
            },
            {
              "internalType": "string",
              "name": "name",
              "type": "string"
            },
            {
              "internalType": "string",
              "name": "location",
              "type": "string"
            },
            {
              "internalType": "uint256[]",
              "name": "ticketCost",
              "type": "uint256[]"
            },
            {
              "internalType": "uint24[]",
              "name": "categorySeatNumber",
              "type": "uint24[]"
            },
            {
              "internalType": "uint256",
              "name": "concertDate",
              "type": "uint256"
            },
            {
              "internalType": "uint256",
              "name": "salesDate",
              "type": "uint256"
            },
            {
              "internalType": "enum Concert.Stage",
              "name": "stage",
              "type": "uint8"
            }
          ],
          "internalType": "struct Concert.Concert[]",
          "name": "",
          "type": "tuple[]"
        }
      ],
      "stateMutability": "view",
      "type": "function"
    },
    {
      "inputs": [
        {
          "internalType": "uint256",
          "name": "concertId",
          "type": "uint256"
        }
      ],
      "name": "getLocation",
      "outputs": [
        {
          "internalType": "string",
          "name": "",
          "type": "string"
        }
      ],
      "stateMutability": "view",
      "type": "function"
    },
    {
      "inputs": [
        {
          "internalType": "uint256",
          "name": "concertId",
          "type": "uint256"
        }
      ],
      "name": "getName",
      "outputs": [
        {
          "internalType": "string",
          "name": "",
          "type": "string"
        }
      ],
      "stateMutability": "view",
      "type": "function"
    },
    {
      "inputs": [],
      "name": "getOwner",
      "outputs": [
        {
          "internalType": "address",
          "name": "",
          "type": "address"
        }
      ],
      "stateMutability": "view",
      "type": "function"
    },
    {
      "inputs": [
        {
          "internalType": "uint256",
          "name": "concertId",
          "type": "uint256"
        }
      ],
      "name": "getSalesDate",
      "outputs": [
        {
          "internalType": "uint256",
          "name": "",
          "type": "uint256"
        }
      ],
      "stateMutability": "view",
      "type": "function"
    },
    {
      "inputs": [
        {
          "internalType": "uint256",
          "name": "concertId",
          "type": "uint256"
        },
        {
          "internalType": "uint24",
          "name": "seatNumber",
          "type": "uint24"
        }
      ],
      "name": "getSeatCategory",
      "outputs": [
        {
          "internalType": "uint24",
          "name": "",
          "type": "uint24"
        }
      ],
      "stateMutability": "view",
      "type": "function"
    },
    {
      "inputs": [
        {
          "internalType": "uint256",
          "name": "concertId",
          "type": "uint256"
        },
        {
          "internalType": "uint24",
          "name": "seatNumber",
          "type": "uint24"
        }
      ],
      "name": "getSeatCost",
      "outputs": [
        {
          "internalType": "uint256",
          "name": "",
          "type": "uint256"
        }
      ],
      "stateMutability": "view",
      "type": "function"
    },
    {
      "inputs": [
        {
          "internalType": "uint256",
          "name": "concertId",
          "type": "uint256"
        }
      ],
      "name": "getTicketCostArray",
      "outputs": [
        {
          "internalType": "uint256[]",
          "name": "",
          "type": "uint256[]"
        }
      ],
      "stateMutability": "view",
      "type": "function"
    },
    {
      "inputs": [
        {
          "internalType": "uint256",
          "name": "concertId",
          "type": "uint256"
        }
      ],
      "name": "getTotalTickets",
      "outputs": [
        {
          "internalType": "uint24",
          "name": "",
          "type": "uint24"
        }
      ],
      "stateMutability": "view",
      "type": "function"
    },
    {
      "inputs": [
        {
          "internalType": "uint256",
          "name": "concertID",
          "type": "uint256"
        },
        {
          "internalType": "uint256",
          "name": "categoryNumber",
          "type": "uint256"
        }
      ],
      "name": "getTotalTicketsForCategory",
      "outputs": [
        {
          "internalType": "uint24",
          "name": "",
          "type": "uint24"
        }
      ],
      "stateMutability": "view",
      "type": "function"
    },
    {
      "inputs": [
        {
          "internalType": "uint256",
          "name": "concertId",
          "type": "uint256"
        }
      ],
      "name": "isValidConcert",
      "outputs": [
        {
          "internalType": "bool",
          "name": "",
          "type": "bool"
        }
      ],
      "stateMutability": "view",
      "type": "function"
    },
    {
      "inputs": [
        {
          "internalType": "uint256",
          "name": "concertId",
          "type": "uint256"
        },
        {
          "internalType": "uint24",
          "name": "seatNumber",
          "type": "uint24"
        }
      ],
      "name": "isValidSeat",
      "outputs": [
        {
          "internalType": "bool",
          "name": "",
          "type": "bool"
        }
      ],
      "stateMutability": "view",
      "type": "function"
    },
    {
      "inputs": [],
      "name": "owner",
      "outputs": [
        {
          "internalType": "address",
          "name": "",
          "type": "address"
        }
      ],
      "stateMutability": "view",
      "type": "function"
    },
    {
      "inputs": [],
      "name": "totalConcerts",
      "outputs": [
        {
          "internalType": "uint256",
          "name": "",
          "type": "uint256"
        }
      ],
      "stateMutability": "view",
      "type": "function"
    },
    {
      "inputs": [
        {
          "internalType": "uint256",
          "name": "concertId",
          "type": "uint256"
        },
        {
          "internalType": "string",
          "name": "_name",
          "type": "string"
        },
        {
          "internalType": "string",
          "name": "_location",
          "type": "string"
        },
        {
          "internalType": "uint256[]",
          "name": "_ticketCost",
          "type": "uint256[]"
        },
        {
          "internalType": "uint24[]",
          "name": "_categorySeatNumber",
          "type": "uint24[]"
        },
        {
          "internalType": "uint256",
          "name": "_concertDate",
          "type": "uint256"
        },
        {
          "internalType": "uint256",
          "name": "_salesDate",
          "type": "uint256"
        }
      ],
      "name": "updateConcert",
      "outputs": [],
      "stateMutability": "nonpayable",
      "type": "function"
    },
    {
      "inputs": [
        {
          "internalType": "uint256",
          "name": "concertId",
          "type": "uint256"
        }
      ],
      "name": "updateConcertStage",
      "outputs": [],
      "stateMutability": "nonpayable",
      "type": "function"
    }
  ],
  "bytecode": "0x608060405234801561001057600080fd5b50336000806101000a81548173ffffffffffffffffffffffffffffffffffffffff021916908373ffffffffffffffffffffffffffffffffffffffff16021790555061322e806100606000396000f3fe608060405234801561001057600080fd5b50600436106101425760003560e01c8063893d20e8116100b8578063afaf063e1161007c578063afaf063e146103fb578063b7e1eff61461042b578063db750cd11461045b578063db84d35f14610479578063e0f96e6b146104a9578063f9ccf41c146104c557610142565b8063893d20e8146103435780638a0e009c146103615780638da5cb5b1461039157806398fb137f146103af578063a16dd009146103df57610142565b8063526702f21161010a578063526702f21461022357806366312fff1461025357806369c1e40b146102835780636b8ff574146102b35780637445a15a146102e35780637f7b13931461031357610142565b806314a438de1461014757806316c15c0c1461017757806318906287146101a75780631d07cb42146101d75780632bc64cd214610207575b600080fd5b610161600480360381019061015c9190611c83565b6104e1565b60405161016e9190611ce1565b60405180910390f35b610191600480360381019061018c9190611cfc565b6105f7565b60405161019e9190611d38565b60405180910390f35b6101c160048036038101906101bc9190611cfc565b610617565b6040516101ce9190611ce1565b60405180910390f35b6101f160048036038101906101ec9190611d7f565b61070d565b6040516101fe9190611d38565b60405180910390f35b610221600480360381019061021c9190611cfc565b6108b3565b005b61023d60048036038101906102389190611cfc565b610aa9565b60405161024a9190611d38565b60405180910390f35b61026d60048036038101906102689190611cfc565b610b0b565b60405161027a9190611d38565b60405180910390f35b61029d60048036038101906102989190611cfc565b610b2b565b6040516102aa9190611dda565b60405180910390f35b6102cd60048036038101906102c89190611cfc565b610b4e565b6040516102da9190611e85565b60405180910390f35b6102fd60048036038101906102f89190611cfc565b610bf6565b60405161030a9190611f65565b60405180910390f35b61032d60048036038101906103289190611cfc565b610c64565b60405161033a9190611e85565b60405180910390f35b61034b610d0c565b6040516103589190611fc8565b60405180910390f35b61037b60048036038101906103769190611d7f565b610d35565b6040516103889190611ce1565b60405180910390f35b610399610ea7565b6040516103a69190611fc8565b60405180910390f35b6103c960048036038101906103c49190611cfc565b610ecb565b6040516103d69190612358565b60405180910390f35b6103f960048036038101906103f4919061263a565b6112e0565b005b61041560048036038101906104109190611d7f565b6114a4565b6040516104229190611dda565b60405180910390f35b61044560048036038101906104409190611cfc565b61155d565b604051610452919061275b565b60405180910390f35b61046361158a565b6040516104709190611d38565b60405180910390f35b610493600480360381019061048e9190611cfc565b611590565b6040516104a091906127e5565b60405180910390f35b6104c360048036038101906104be9190611cfc565b611628565b005b6104df60048036038101906104da9190612807565b6117ac565b005b60008060026000858152602001908152602001600020600001540361053b576040517f08c379a000000000000000000000000000000000000000000000000000000000815260040161053290612950565b60405180910390fd5b60026000848152602001908152602001600020600401805490508210610596576040517f08c379a000000000000000000000000000000000000000000000000000000000815260040161058d906129bc565b60405180910390fd5b600260008481526020019081526020016000206004016001836105b99190612a0b565b815481106105ca576105c9612a3f565b5b90600052602060002090600a91828204019190066003029054906101000a900462ffffff16905092915050565b600060026000838152602001908152602001600020600501549050919050565b600080600260008481526020019081526020016000206000015403610671576040517f08c379a000000000000000000000000000000000000000000000000000000000815260040161066890612950565b60405180910390fd5b6000806002600085815260200190815260200160002060040180549050905060005b81811015610702576002600086815260200190815260200160002060040181815481106106c3576106c2612a3f565b5b90600052602060002090600a91828204019190066003029054906101000a900462ffffff16836106f39190612a6e565b92508080600101915050610693565b508192505050919050565b600080600260008581526020019081526020016000206000015403610767576040517f08c379a000000000000000000000000000000000000000000000000000000000815260040161075e90612950565b60405180910390fd5b61077083610617565b62ffffff168262ffffff1611156107bc576040517f08c379a00000000000000000000000000000000000000000000000000000000081526004016107b390612af1565b60405180910390fd5b6000805b60026000868152602001908152602001600020600401805490508162ffffff1610156108aa57600260008681526020019081526020016000206004018162ffffff168154811061081357610812612a3f565b5b90600052602060002090600a91828204019190066003029054906101000a900462ffffff16826108439190612a6e565b91508162ffffff168462ffffff161161089757600260008681526020019081526020016000206003018162ffffff168154811061088357610882612a3f565b5b9060005260206000200154925050506108ad565b80806108a290612b11565b9150506107c0565b50505b92915050565b60008054906101000a900473ffffffffffffffffffffffffffffffffffffffff1673ffffffffffffffffffffffffffffffffffffffff163373ffffffffffffffffffffffffffffffffffffffff1614610941576040517f08c379a000000000000000000000000000000000000000000000000000000000815260040161093890612b88565b60405180910390fd5b600060026000838152602001908152602001600020600001540361099a576040517f08c379a000000000000000000000000000000000000000000000000000000000815260040161099190612950565b60405180910390fd5b600060048111156109ae576109ad612186565b5b6002600083815260200190815260200160002060070160009054906101000a900460ff1660048111156109e4576109e3612186565b5b14610a24576040517f08c379a0000000000000000000000000000000000000000000000000000000008152600401610a1b90612c1a565b60405180910390fd5b60026000828152602001908152602001600020600080820160009055600182016000610a509190611a42565b600282016000610a609190611a42565b600382016000610a709190611a82565b600482016000610a809190611aa3565b600582016000905560068201600090556007820160006101000a81549060ff0219169055505050565b600080600260008481526020019081526020016000206000015403610b03576040517f08c379a0000000000000000000000000000000000000000000000000000000008152600401610afa90612950565b60405180910390fd5b819050919050565b600060026000838152602001908152602001600020600601549050919050565b600080600260008481526020019081526020016000206000015414159050919050565b6060600260008381526020019081526020016000206001018054610b7190612c69565b80601f0160208091040260200160405190810160405280929190818152602001828054610b9d90612c69565b8015610bea5780601f10610bbf57610100808354040283529160200191610bea565b820191906000526020600020905b815481529060010190602001808311610bcd57829003601f168201915b50505050509050919050565b606060026000838152602001908152602001600020600301805480602002602001604051908101604052809291908181526020018280548015610c5857602002820191906000526020600020905b815481526020019060010190808311610c44575b50505050509050919050565b6060600260008381526020019081526020016000206002018054610c8790612c69565b80601f0160208091040260200160405190810160405280929190818152602001828054610cb390612c69565b8015610d005780601f10610cd557610100808354040283529160200191610d00565b820191906000526020600020905b815481529060010190602001808311610ce357829003601f168201915b50505050509050919050565b60008060009054906101000a900473ffffffffffffffffffffffffffffffffffffffff16905090565b600080600260008581526020019081526020016000206000015403610d8f576040517f08c379a0000000000000000000000000000000000000000000000000000000008152600401610d8690612950565b60405180910390fd5b610d9883610617565b62ffffff168262ffffff161115610de4576040517f08c379a0000000000000000000000000000000000000000000000000000000008152600401610ddb90612af1565b60405180910390fd5b60008060005b60026000878152602001908152602001600020600401805490508162ffffff161015610e9b57600260008781526020019081526020016000206004018162ffffff1681548110610e3d57610e3c612a3f565b5b90600052602060002090600a91828204019190066003029054906101000a900462ffffff1683610e6d9190612a6e565b92508262ffffff168562ffffff1611610e8857809150610e9b565b8080610e9390612b11565b915050610dea565b50809250505092915050565b60008054906101000a900473ffffffffffffffffffffffffffffffffffffffff1681565b60606000826004811115610ee257610ee1612186565b5b9050600080600190505b6001548111610f6557826004811115610f0857610f07612186565b5b6002600083815260200190815260200160002060070160009054906101000a900460ff166004811115610f3e57610f3d612186565b5b03610f52578180610f4e90612c9a565b9250505b8080610f5d90612c9a565b915050610eec565b5060008167ffffffffffffffff811115610f8257610f81612384565b5b604051908082528060200260200182016040528015610fbb57816020015b610fa8611acb565b815260200190600190039081610fa05790505b509050600080600190505b60015481116112d357846004811115610fe257610fe1612186565b5b6002600083815260200190815260200160002060070160009054906101000a900460ff16600481111561101857611017612186565b5b036112c05760026000828152602001908152602001600020604051806101000160405290816000820154815260200160018201805461105690612c69565b80601f016020809104026020016040519081016040528092919081815260200182805461108290612c69565b80156110cf5780601f106110a4576101008083540402835291602001916110cf565b820191906000526020600020905b8154815290600101906020018083116110b257829003601f168201915b505050505081526020016002820180546110e890612c69565b80601f016020809104026020016040519081016040528092919081815260200182805461111490612c69565b80156111615780601f1061113657610100808354040283529160200191611161565b820191906000526020600020905b81548152906001019060200180831161114457829003601f168201915b50505050508152602001600382018054806020026020016040519081016040528092919081815260200182805480156111b957602002820191906000526020600020905b8154815260200190600101908083116111a5575b505050505081526020016004820180548060200260200160405190810160405280929190818152602001828054801561123b57602002820191906000526020600020906000905b82829054906101000a900462ffffff1662ffffff16815260200190600301906020826002010492830192600103820291508084116112005790505b5050505050815260200160058201548152602001600682015481526020016007820160009054906101000a900460ff16600481111561127d5761127c612186565b5b600481111561128f5761128e612186565b5b815250508383815181106112a6576112a5612a3f565b5b602002602001018190525081806112bc90612c9a565b9250505b80806112cb90612c9a565b915050610fc6565b5081945050505050919050565b60008054906101000a900473ffffffffffffffffffffffffffffffffffffffff1673ffffffffffffffffffffffffffffffffffffffff163373ffffffffffffffffffffffffffffffffffffffff161461136e576040517f08c379a000000000000000000000000000000000000000000000000000000000815260040161136590612b88565b60405180910390fd5b60006002600089815260200190815260200160002060000154036113c7576040517f08c379a00000000000000000000000000000000000000000000000000000000081526004016113be90612950565b60405180910390fd5b856002600089815260200190815260200160002060010190816113ea9190612e8e565b508460026000898152602001908152602001600020600201908161140e9190612e8e565b5083600260008981526020019081526020016000206003019080519060200190611439929190611b22565b5082600260008981526020019081526020016000206004019080519060200190611464929190611b6f565b5081600260008981526020019081526020016000206005018190555080600260008981526020019081526020016000206006018190555050505050505050565b6000806002600085815260200190815260200160002060000154036114fe576040517f08c379a00000000000000000000000000000000000000000000000000000000081526004016114f590612950565b60405180910390fd5b61150783610617565b62ffffff168262ffffff161115611553576040517f08c379a000000000000000000000000000000000000000000000000000000000815260040161154a90612fac565b60405180910390fd5b6001905092915050565b60006002600083815260200190815260200160002060070160009054906101000a900460ff169050919050565b60015481565b60606002600083815260200190815260200160002060040180548060200260200160405190810160405280929190818152602001828054801561161c57602002820191906000526020600020906000905b82829054906101000a900462ffffff1662ffffff16815260200190600301906020826002010492830192600103820291508084116115e15790505b50505050509050919050565b60008054906101000a900473ffffffffffffffffffffffffffffffffffffffff1673ffffffffffffffffffffffffffffffffffffffff163373ffffffffffffffffffffffffffffffffffffffff16146116b6576040517f08c379a00000000000000000000000000000000000000000000000000000000081526004016116ad90612b88565b60405180910390fd5b600060026000838152602001908152602001600020600001540361170f576040517f08c379a000000000000000000000000000000000000000000000000000000000815260040161170690612950565b60405180910390fd5b600060016002600084815260200190815260200160002060070160009054906101000a900460ff16600481111561174957611748612186565b5b6117539190612fd9565b60ff16600481111561176857611767612186565b5b9050806002600084815260200190815260200160002060070160006101000a81548160ff021916908360048111156117a3576117a2612186565b5b02179055505050565b60008054906101000a900473ffffffffffffffffffffffffffffffffffffffff1673ffffffffffffffffffffffffffffffffffffffff163373ffffffffffffffffffffffffffffffffffffffff161461183a576040517f08c379a000000000000000000000000000000000000000000000000000000000815260040161183190612b88565b60405180910390fd5b600084510361187e576040517f08c379a00000000000000000000000000000000000000000000000000000000081526004016118759061305a565b60405180910390fd5b60008351036118c2576040517f08c379a00000000000000000000000000000000000000000000000000000000081526004016118b9906130ec565b60405180910390fd5b8251845114611906576040517f08c379a00000000000000000000000000000000000000000000000000000000081526004016118fd906131a4565b60405180910390fd5b600180600082825461191891906131c4565b9250508190555060405180610100016040528060015481526020018781526020018681526020018581526020018481526020018381526020018281526020016000600481111561196b5761196a612186565b5b8152506002600060015481526020019081526020016000206000820151816000015560208201518160010190816119a29190612e8e565b5060408201518160020190816119b89190612e8e565b5060608201518160030190805190602001906119d5929190611b22565b5060808201518160040190805190602001906119f2929190611b6f565b5060a0820151816005015560c0820151816006015560e08201518160070160006101000a81548160ff02191690836004811115611a3257611a31612186565b5b0217905550905050505050505050565b508054611a4e90612c69565b6000825580601f10611a605750611a7f565b601f016020900490600052602060002090810190611a7e9190611c1c565b5b50565b5080546000825590600052602060002090810190611aa09190611c1c565b50565b50805460008255600901600a900490600052602060002090810190611ac89190611c1c565b50565b6040518061010001604052806000815260200160608152602001606081526020016060815260200160608152602001600081526020016000815260200160006004811115611b1c57611b1b612186565b5b81525090565b828054828255906000526020600020908101928215611b5e579160200282015b82811115611b5d578251825591602001919060010190611b42565b5b509050611b6b9190611c1c565b5090565b82805482825590600052602060002090600901600a90048101928215611c0b5791602002820160005b83821115611bda57835183826101000a81548162ffffff021916908362ffffff1602179055509260200192600301602081600201049283019260010302611b98565b8015611c095782816101000a81549062ffffff0219169055600301602081600201049283019260010302611bda565b505b509050611c189190611c1c565b5090565b5b80821115611c35576000816000905550600101611c1d565b5090565b6000604051905090565b600080fd5b600080fd5b6000819050919050565b611c6081611c4d565b8114611c6b57600080fd5b50565b600081359050611c7d81611c57565b92915050565b60008060408385031215611c9a57611c99611c43565b5b6000611ca885828601611c6e565b9250506020611cb985828601611c6e565b9150509250929050565b600062ffffff82169050919050565b611cdb81611cc3565b82525050565b6000602082019050611cf66000830184611cd2565b92915050565b600060208284031215611d1257611d11611c43565b5b6000611d2084828501611c6e565b91505092915050565b611d3281611c4d565b82525050565b6000602082019050611d4d6000830184611d29565b92915050565b611d5c81611cc3565b8114611d6757600080fd5b50565b600081359050611d7981611d53565b92915050565b60008060408385031215611d9657611d95611c43565b5b6000611da485828601611c6e565b9250506020611db585828601611d6a565b9150509250929050565b60008115159050919050565b611dd481611dbf565b82525050565b6000602082019050611def6000830184611dcb565b92915050565b600081519050919050565b600082825260208201905092915050565b60005b83811015611e2f578082015181840152602081019050611e14565b60008484015250505050565b6000601f19601f8301169050919050565b6000611e5782611df5565b611e618185611e00565b9350611e71818560208601611e11565b611e7a81611e3b565b840191505092915050565b60006020820190508181036000830152611e9f8184611e4c565b905092915050565b600081519050919050565b600082825260208201905092915050565b6000819050602082019050919050565b611edc81611c4d565b82525050565b6000611eee8383611ed3565b60208301905092915050565b6000602082019050919050565b6000611f1282611ea7565b611f1c8185611eb2565b9350611f2783611ec3565b8060005b83811015611f58578151611f3f8882611ee2565b9750611f4a83611efa565b925050600181019050611f2b565b5085935050505092915050565b60006020820190508181036000830152611f7f8184611f07565b905092915050565b600073ffffffffffffffffffffffffffffffffffffffff82169050919050565b6000611fb282611f87565b9050919050565b611fc281611fa7565b82525050565b6000602082019050611fdd6000830184611fb9565b92915050565b600081519050919050565b600082825260208201905092915050565b6000819050602082019050919050565b600082825260208201905092915050565b600061202b82611df5565b612035818561200f565b9350612045818560208601611e11565b61204e81611e3b565b840191505092915050565b600082825260208201905092915050565b600061207582611ea7565b61207f8185612059565b935061208a83611ec3565b8060005b838110156120bb5781516120a28882611ee2565b97506120ad83611efa565b92505060018101905061208e565b5085935050505092915050565b600081519050919050565b600082825260208201905092915050565b6000819050602082019050919050565b6120fd81611cc3565b82525050565b600061210f83836120f4565b60208301905092915050565b6000602082019050919050565b6000612133826120c8565b61213d81856120d3565b9350612148836120e4565b8060005b838110156121795781516121608882612103565b975061216b8361211b565b92505060018101905061214c565b5085935050505092915050565b7f4e487b7100000000000000000000000000000000000000000000000000000000600052602160045260246000fd5b600581106121c6576121c5612186565b5b50565b60008190506121d7826121b5565b919050565b60006121e7826121c9565b9050919050565b6121f7816121dc565b82525050565b6000610100830160008301516122166000860182611ed3565b506020830151848203602086015261222e8282612020565b915050604083015184820360408601526122488282612020565b91505060608301518482036060860152612262828261206a565b9150506080830151848203608086015261227c8282612128565b91505060a083015161229160a0860182611ed3565b5060c08301516122a460c0860182611ed3565b5060e08301516122b760e08601826121ee565b508091505092915050565b60006122ce83836121fd565b905092915050565b6000602082019050919050565b60006122ee82611fe3565b6122f88185611fee565b93508360208202850161230a85611fff565b8060005b85811015612346578484038952815161232785826122c2565b9450612332836122d6565b925060208a0199505060018101905061230e565b50829750879550505050505092915050565b6000602082019050818103600083015261237281846122e3565b905092915050565b600080fd5b600080fd5b7f4e487b7100000000000000000000000000000000000000000000000000000000600052604160045260246000fd5b6123bc82611e3b565b810181811067ffffffffffffffff821117156123db576123da612384565b5b80604052505050565b60006123ee611c39565b90506123fa82826123b3565b919050565b600067ffffffffffffffff82111561241a57612419612384565b5b61242382611e3b565b9050602081019050919050565b82818337600083830152505050565b600061245261244d846123ff565b6123e4565b90508281526020810184848401111561246e5761246d61237f565b5b612479848285612430565b509392505050565b600082601f8301126124965761249561237a565b5b81356124a684826020860161243f565b91505092915050565b600067ffffffffffffffff8211156124ca576124c9612384565b5b602082029050602081019050919050565b600080fd5b60006124f36124ee846124af565b6123e4565b90508083825260208201905060208402830185811115612516576125156124db565b5b835b8181101561253f578061252b8882611c6e565b845260208401935050602081019050612518565b5050509392505050565b600082601f83011261255e5761255d61237a565b5b813561256e8482602086016124e0565b91505092915050565b600067ffffffffffffffff82111561259257612591612384565b5b602082029050602081019050919050565b60006125b66125b184612577565b6123e4565b905080838252602082019050602084028301858111156125d9576125d86124db565b5b835b8181101561260257806125ee8882611d6a565b8452602084019350506020810190506125db565b5050509392505050565b600082601f8301126126215761262061237a565b5b81356126318482602086016125a3565b91505092915050565b600080600080600080600060e0888a03121561265957612658611c43565b5b60006126678a828b01611c6e565b975050602088013567ffffffffffffffff81111561268857612687611c48565b5b6126948a828b01612481565b965050604088013567ffffffffffffffff8111156126b5576126b4611c48565b5b6126c18a828b01612481565b955050606088013567ffffffffffffffff8111156126e2576126e1611c48565b5b6126ee8a828b01612549565b945050608088013567ffffffffffffffff81111561270f5761270e611c48565b5b61271b8a828b0161260c565b93505060a061272c8a828b01611c6e565b92505060c061273d8a828b01611c6e565b91505092959891949750929550565b612755816121dc565b82525050565b6000602082019050612770600083018461274c565b92915050565b600082825260208201905092915050565b6000612792826120c8565b61279c8185612776565b93506127a7836120e4565b8060005b838110156127d85781516127bf8882612103565b97506127ca8361211b565b9250506001810190506127ab565b5085935050505092915050565b600060208201905081810360008301526127ff8184612787565b905092915050565b60008060008060008060c0878903121561282457612823611c43565b5b600087013567ffffffffffffffff81111561284257612841611c48565b5b61284e89828a01612481565b965050602087013567ffffffffffffffff81111561286f5761286e611c48565b5b61287b89828a01612481565b955050604087013567ffffffffffffffff81111561289c5761289b611c48565b5b6128a889828a01612549565b945050606087013567ffffffffffffffff8111156128c9576128c8611c48565b5b6128d589828a0161260c565b93505060806128e689828a01611c6e565b92505060a06128f789828a01611c6e565b9150509295509295509295565b7f436f6e6365727420646f6573206e6f7420657869737400000000000000000000600082015250565b600061293a601683611e00565b915061294582612904565b602082019050919050565b600060208201905081810360008301526129698161292d565b9050919050565b7f43617465676f727920696e646578206f7574206f6620626f756e647300000000600082015250565b60006129a6601c83611e00565b91506129b182612970565b602082019050919050565b600060208201905081810360008301526129d581612999565b9050919050565b7f4e487b7100000000000000000000000000000000000000000000000000000000600052601160045260246000fd5b6000612a1682611c4d565b9150612a2183611c4d565b9250828203905081811115612a3957612a386129dc565b5b92915050565b7f4e487b7100000000000000000000000000000000000000000000000000000000600052603260045260246000fd5b6000612a7982611cc3565b9150612a8483611cc3565b9250828201905062ffffff811115612a9f57612a9e6129dc565b5b92915050565b7f53656174206e756d626572206973206e6f7420617661696c61626c6500000000600082015250565b6000612adb601c83611e00565b9150612ae682612aa5565b602082019050919050565b60006020820190508181036000830152612b0a81612ace565b9050919050565b6000612b1c82611cc3565b915062ffffff8203612b3157612b306129dc565b5b600182019050919050565b7f43616c6c6572206973206e6f7420746865206f776e6572000000000000000000600082015250565b6000612b72601783611e00565b9150612b7d82612b3c565b602082019050919050565b60006020820190508181036000830152612ba181612b65565b9050919050565b7f436f6e636572742063616e206f6e6c792062652064656c65746564206174204960008201527f4e495449414c495a4154494f4e20737461676500000000000000000000000000602082015250565b6000612c04603383611e00565b9150612c0f82612ba8565b604082019050919050565b60006020820190508181036000830152612c3381612bf7565b9050919050565b7f4e487b7100000000000000000000000000000000000000000000000000000000600052602260045260246000fd5b60006002820490506001821680612c8157607f821691505b602082108103612c9457612c93612c3a565b5b50919050565b6000612ca582611c4d565b91507fffffffffffffffffffffffffffffffffffffffffffffffffffffffffffffffff8203612cd757612cd66129dc565b5b600182019050919050565b60008190508160005260206000209050919050565b60006020601f8301049050919050565b600082821b905092915050565b600060088302612d447fffffffffffffffffffffffffffffffffffffffffffffffffffffffffffffffff82612d07565b612d4e8683612d07565b95508019841693508086168417925050509392505050565b6000819050919050565b6000612d8b612d86612d8184611c4d565b612d66565b611c4d565b9050919050565b6000819050919050565b612da583612d70565b612db9612db182612d92565b848454612d14565b825550505050565b600090565b612dce612dc1565b612dd9818484612d9c565b505050565b5b81811015612dfd57612df2600082612dc6565b600181019050612ddf565b5050565b601f821115612e4257612e1381612ce2565b612e1c84612cf7565b81016020851015612e2b578190505b612e3f612e3785612cf7565b830182612dde565b50505b505050565b600082821c905092915050565b6000612e6560001984600802612e47565b1980831691505092915050565b6000612e7e8383612e54565b9150826002028217905092915050565b612e9782611df5565b67ffffffffffffffff811115612eb057612eaf612384565b5b612eba8254612c69565b612ec5828285612e01565b600060209050601f831160018114612ef85760008415612ee6578287015190505b612ef08582612e72565b865550612f58565b601f198416612f0686612ce2565b60005b82811015612f2e57848901518255600182019150602085019450602081019050612f09565b86831015612f4b5784890151612f47601f891682612e54565b8355505b6001600288020188555050505b505050505050565b7f5365617420646f6573206e6f7420657869737400000000000000000000000000600082015250565b6000612f96601383611e00565b9150612fa182612f60565b602082019050919050565b60006020820190508181036000830152612fc581612f89565b9050919050565b600060ff82169050919050565b6000612fe482612fcc565b9150612fef83612fcc565b9250828201905060ff811115613008576130076129dc565b5b92915050565b7f7469636b6574436f73742061727261792063616e6e6f7420626520656d707479600082015250565b6000613044602083611e00565b915061304f8261300e565b602082019050919050565b6000602082019050818103600083015261307381613037565b9050919050565b7f63617465676f7279536561744e756d6265722061727261792063616e6e6f742060008201527f626520656d707479000000000000000000000000000000000000000000000000602082015250565b60006130d6602883611e00565b91506130e18261307a565b604082019050919050565b60006020820190508181036000830152613105816130c9565b9050919050565b7f7469636b6574436f737420616e642063617465676f7279536561744e756d626560008201527f7220617272617973206d7573742068617665207468652073616d65206c656e6760208201527f7468000000000000000000000000000000000000000000000000000000000000604082015250565b600061318e604283611e00565b91506131998261310c565b606082019050919050565b600060208201905081810360008301526131bd81613181565b9050919050565b60006131cf82611c4d565b91506131da83611c4d565b92508282019050808211156131f2576131f16129dc565b5b9291505056fea264697066735822122001dca49aaef325b28f7e69222b796fe5e3cccbe6fd5598bcef28108d90454e7564736f6c63430008180033",
  "linkReferences": {},
  "deployedLinkReferences": {}
}