{
  "_format": "hh-sol-artifact-1",
  "contractName": "Concert",
  "sourceName": "contracts/Concert.sol",
  "abi": [
    {
      "inputs": [],
      "stateMutability": "nonpayable",
      "type": "constructor"
    },
    {
      "inputs": [
        {
          "internalType": "string",
          "name": "_name",
          "type": "string"
        },
        {
          "internalType": "string",
          "name": "_location",
          "type": "string"
        },
        {
          "internalType": "uint256[]",
          "name": "_ticketCost",
          "type": "uint256[]"
        },
        {
          "internalType": "uint24[]",
          "name": "_categorySeatNumber",
          "type": "uint24[]"
        },
        {
          "internalType": "uint256",
          "name": "_concertDate",
          "type": "uint256"
        },
        {
          "internalType": "uint256",
          "name": "_salesDate",
          "type": "uint256"
        }
      ],
      "name": "createConcert",
      "outputs": [],
      "stateMutability": "nonpayable",
      "type": "function"
    },
    {
      "inputs": [
        {
          "internalType": "uint256",
          "name": "concertId",
          "type": "uint256"
        }
      ],
      "name": "deleteConcert",
      "outputs": [],
      "stateMutability": "nonpayable",
      "type": "function"
    },
    {
      "inputs": [
        {
          "internalType": "uint256",
          "name": "concertId",
          "type": "uint256"
        }
      ],
      "name": "getCategorySeatArray",
      "outputs": [
        {
          "internalType": "uint24[]",
          "name": "",
          "type": "uint24[]"
        }
      ],
      "stateMutability": "view",
      "type": "function"
    },
    {
      "inputs": [
        {
          "internalType": "uint256",
          "name": "concertId",
          "type": "uint256"
        }
      ],
      "name": "getConcertDate",
      "outputs": [
        {
          "internalType": "uint256",
          "name": "",
          "type": "uint256"
        }
      ],
      "stateMutability": "view",
      "type": "function"
    },
    {
      "inputs": [
        {
          "internalType": "uint256",
          "name": "concertId",
          "type": "uint256"
        }
      ],
      "name": "getConcertID",
      "outputs": [
        {
          "internalType": "uint256",
          "name": "",
          "type": "uint256"
        }
      ],
      "stateMutability": "view",
      "type": "function"
    },
    {
      "inputs": [
        {
          "internalType": "uint256",
          "name": "concertId",
          "type": "uint256"
        }
      ],
      "name": "getConcertStage",
      "outputs": [
        {
          "internalType": "enum Concert.Stage",
          "name": "",
          "type": "uint8"
        }
      ],
      "stateMutability": "view",
      "type": "function"
    },
    {
      "inputs": [
        {
          "internalType": "uint256",
          "name": "concertId",
          "type": "uint256"
        }
      ],
      "name": "getLocation",
      "outputs": [
        {
          "internalType": "string",
          "name": "",
          "type": "string"
        }
      ],
      "stateMutability": "view",
      "type": "function"
    },
    {
      "inputs": [
        {
          "internalType": "uint256",
          "name": "concertId",
          "type": "uint256"
        }
      ],
      "name": "getName",
      "outputs": [
        {
          "internalType": "string",
          "name": "",
          "type": "string"
        }
      ],
      "stateMutability": "view",
      "type": "function"
    },
    {
      "inputs": [],
      "name": "getOwner",
      "outputs": [
        {
          "internalType": "address",
          "name": "",
          "type": "address"
        }
      ],
      "stateMutability": "view",
      "type": "function"
    },
    {
      "inputs": [
        {
          "internalType": "uint256",
          "name": "concertId",
          "type": "uint256"
        }
      ],
      "name": "getSalesDate",
      "outputs": [
        {
          "internalType": "uint256",
          "name": "",
          "type": "uint256"
        }
      ],
      "stateMutability": "view",
      "type": "function"
    },
    {
      "inputs": [
        {
          "internalType": "uint256",
          "name": "concertId",
          "type": "uint256"
        },
        {
          "internalType": "uint24",
          "name": "seatNumber",
          "type": "uint24"
        }
      ],
      "name": "getSeatCategory",
      "outputs": [
        {
          "internalType": "uint24",
          "name": "",
          "type": "uint24"
        }
      ],
      "stateMutability": "view",
      "type": "function"
    },
    {
      "inputs": [
        {
          "internalType": "uint256",
          "name": "concertId",
          "type": "uint256"
        },
        {
          "internalType": "uint24",
          "name": "seatNumber",
          "type": "uint24"
        }
      ],
      "name": "getSeatCost",
      "outputs": [
        {
          "internalType": "uint256",
          "name": "",
          "type": "uint256"
        }
      ],
      "stateMutability": "view",
      "type": "function"
    },
    {
      "inputs": [
        {
          "internalType": "uint256",
          "name": "concertId",
          "type": "uint256"
        }
      ],
      "name": "getTicketCostArray",
      "outputs": [
        {
          "internalType": "uint256[]",
          "name": "",
          "type": "uint256[]"
        }
      ],
      "stateMutability": "view",
      "type": "function"
    },
    {
      "inputs": [
        {
          "internalType": "uint256",
          "name": "concertId",
          "type": "uint256"
        }
      ],
      "name": "getTotalTickets",
      "outputs": [
        {
          "internalType": "uint24",
          "name": "",
          "type": "uint24"
        }
      ],
      "stateMutability": "view",
      "type": "function"
    },
    {
      "inputs": [
        {
          "internalType": "uint256",
          "name": "concertID",
          "type": "uint256"
        },
        {
          "internalType": "uint256",
          "name": "categoryNumber",
          "type": "uint256"
        }
      ],
      "name": "getTotalTicketsForCategory",
      "outputs": [
        {
          "internalType": "uint24",
          "name": "",
          "type": "uint24"
        }
      ],
      "stateMutability": "view",
      "type": "function"
    },
    {
      "inputs": [
        {
          "internalType": "uint256",
          "name": "concertId",
          "type": "uint256"
        }
      ],
      "name": "isValidConcert",
      "outputs": [
        {
          "internalType": "bool",
          "name": "",
          "type": "bool"
        }
      ],
      "stateMutability": "view",
      "type": "function"
    },
    {
      "inputs": [
        {
          "internalType": "uint256",
          "name": "concertId",
          "type": "uint256"
        },
        {
          "internalType": "uint24",
          "name": "seatNumber",
          "type": "uint24"
        }
      ],
      "name": "isValidSeat",
      "outputs": [
        {
          "internalType": "bool",
          "name": "",
          "type": "bool"
        }
      ],
      "stateMutability": "view",
      "type": "function"
    },
    {
      "inputs": [],
      "name": "owner",
      "outputs": [
        {
          "internalType": "address",
          "name": "",
          "type": "address"
        }
      ],
      "stateMutability": "view",
      "type": "function"
    },
    {
      "inputs": [],
      "name": "totalConcerts",
      "outputs": [
        {
          "internalType": "uint256",
          "name": "",
          "type": "uint256"
        }
      ],
      "stateMutability": "view",
      "type": "function"
    },
    {
      "inputs": [
        {
          "internalType": "uint256",
          "name": "concertId",
          "type": "uint256"
        },
        {
          "internalType": "string",
          "name": "_name",
          "type": "string"
        },
        {
          "internalType": "string",
          "name": "_location",
          "type": "string"
        },
        {
          "internalType": "uint256[]",
          "name": "_ticketCost",
          "type": "uint256[]"
        },
        {
          "internalType": "uint24[]",
          "name": "_categorySeatNumber",
          "type": "uint24[]"
        },
        {
          "internalType": "uint256",
          "name": "_concertDate",
          "type": "uint256"
        },
        {
          "internalType": "uint256",
          "name": "_salesDate",
          "type": "uint256"
        }
      ],
      "name": "updateConcert",
      "outputs": [],
      "stateMutability": "nonpayable",
      "type": "function"
    },
    {
      "inputs": [
        {
          "internalType": "uint256",
          "name": "concertId",
          "type": "uint256"
        }
      ],
      "name": "updateConcertStage",
      "outputs": [],
      "stateMutability": "nonpayable",
      "type": "function"
    }
  ],
  "bytecode": "0x608060405234801561001057600080fd5b50336000806101000a81548173ffffffffffffffffffffffffffffffffffffffff021916908373ffffffffffffffffffffffffffffffffffffffff1602179055506126c1806100606000396000f3fe608060405234801561001057600080fd5b50600436106101375760003560e01c80637f7b1393116100b8578063afaf063e1161007c578063afaf063e146103c0578063b7e1eff6146103f0578063db750cd114610420578063db84d35f1461043e578063e0f96e6b1461046e578063f9ccf41c1461048a57610137565b80637f7b139314610308578063893d20e8146103385780638a0e009c146103565780638da5cb5b14610386578063a16dd009146103a457610137565b8063526702f2116100ff578063526702f21461021857806366312fff1461024857806369c1e40b146102785780636b8ff574146102a85780637445a15a146102d857610137565b806314a438de1461013c57806316c15c0c1461016c578063189062871461019c5780631d07cb42146101cc5780632bc64cd2146101fc575b600080fd5b61015660048036038101906101519190611686565b6104a6565b60405161016391906116e4565b60405180910390f35b610186600480360381019061018191906116ff565b6105bc565b604051610193919061173b565b60405180910390f35b6101b660048036038101906101b191906116ff565b6105dc565b6040516101c391906116e4565b60405180910390f35b6101e660048036038101906101e19190611782565b6106d2565b6040516101f3919061173b565b60405180910390f35b610216600480360381019061021191906116ff565b610878565b005b610232600480360381019061022d91906116ff565b6109e4565b60405161023f919061173b565b60405180910390f35b610262600480360381019061025d91906116ff565b610a46565b60405161026f919061173b565b60405180910390f35b610292600480360381019061028d91906116ff565b610a66565b60405161029f91906117dd565b60405180910390f35b6102c260048036038101906102bd91906116ff565b610a89565b6040516102cf9190611888565b60405180910390f35b6102f260048036038101906102ed91906116ff565b610b31565b6040516102ff9190611968565b60405180910390f35b610322600480360381019061031d91906116ff565b610b9f565b60405161032f9190611888565b60405180910390f35b610340610c47565b60405161034d91906119cb565b60405180910390f35b610370600480360381019061036b9190611782565b610c70565b60405161037d91906116e4565b60405180910390f35b61038e610de2565b60405161039b91906119cb565b60405180910390f35b6103be60048036038101906103b99190611ca6565b610e06565b005b6103da60048036038101906103d59190611782565b610fca565b6040516103e791906117dd565b60405180910390f35b61040a600480360381019061040591906116ff565b611083565b6040516104179190611e2f565b60405180910390f35b6104286110b0565b604051610435919061173b565b60405180910390f35b610458600480360381019061045391906116ff565b6110b6565b6040516104659190611f08565b60405180910390f35b610488600480360381019061048391906116ff565b61114e565b005b6104a4600480360381019061049f9190611f2a565b6112d2565b005b600080600260008581526020019081526020016000206000015403610500576040517f08c379a00000000000000000000000000000000000000000000000000000000081526004016104f790612073565b60405180910390fd5b6002600084815260200190815260200160002060040180549050821061055b576040517f08c379a0000000000000000000000000000000000000000000000000000000008152600401610552906120df565b60405180910390fd5b6002600084815260200190815260200160002060040160018361057e919061212e565b8154811061058f5761058e612162565b5b90600052602060002090600a91828204019190066003029054906101000a900462ffffff16905092915050565b600060026000838152602001908152602001600020600501549050919050565b600080600260008481526020019081526020016000206000015403610636576040517f08c379a000000000000000000000000000000000000000000000000000000000815260040161062d90612073565b60405180910390fd5b6000806002600085815260200190815260200160002060040180549050905060005b818110156106c75760026000868152602001908152602001600020600401818154811061068857610687612162565b5b90600052602060002090600a91828204019190066003029054906101000a900462ffffff16836106b89190612191565b92508080600101915050610658565b508192505050919050565b60008060026000858152602001908152602001600020600001540361072c576040517f08c379a000000000000000000000000000000000000000000000000000000000815260040161072390612073565b60405180910390fd5b610735836105dc565b62ffffff168262ffffff161115610781576040517f08c379a000000000000000000000000000000000000000000000000000000000815260040161077890612214565b60405180910390fd5b6000805b60026000868152602001908152602001600020600401805490508162ffffff16101561086f57600260008681526020019081526020016000206004018162ffffff16815481106107d8576107d7612162565b5b90600052602060002090600a91828204019190066003029054906101000a900462ffffff16826108089190612191565b91508162ffffff168462ffffff161161085c57600260008681526020019081526020016000206003018162ffffff168154811061084857610847612162565b5b906000526020600020015492505050610872565b808061086790612234565b915050610785565b50505b92915050565b60008054906101000a900473ffffffffffffffffffffffffffffffffffffffff1673ffffffffffffffffffffffffffffffffffffffff163373ffffffffffffffffffffffffffffffffffffffff1614610906576040517f08c379a00000000000000000000000000000000000000000000000000000000081526004016108fd906122ab565b60405180910390fd5b600060026000838152602001908152602001600020600001540361095f576040517f08c379a000000000000000000000000000000000000000000000000000000000815260040161095690612073565b60405180910390fd5b6002600082815260200190815260200160002060008082016000905560018201600061098b919061149c565b60028201600061099b919061149c565b6003820160006109ab91906114dc565b6004820160006109bb91906114fd565b600582016000905560068201600090556007820160006101000a81549060ff0219169055505050565b600080600260008481526020019081526020016000206000015403610a3e576040517f08c379a0000000000000000000000000000000000000000000000000000000008152600401610a3590612073565b60405180910390fd5b819050919050565b600060026000838152602001908152602001600020600601549050919050565b600080600260008481526020019081526020016000206000015414159050919050565b6060600260008381526020019081526020016000206001018054610aac906122fa565b80601f0160208091040260200160405190810160405280929190818152602001828054610ad8906122fa565b8015610b255780601f10610afa57610100808354040283529160200191610b25565b820191906000526020600020905b815481529060010190602001808311610b0857829003601f168201915b50505050509050919050565b606060026000838152602001908152602001600020600301805480602002602001604051908101604052809291908181526020018280548015610b9357602002820191906000526020600020905b815481526020019060010190808311610b7f575b50505050509050919050565b6060600260008381526020019081526020016000206002018054610bc2906122fa565b80601f0160208091040260200160405190810160405280929190818152602001828054610bee906122fa565b8015610c3b5780601f10610c1057610100808354040283529160200191610c3b565b820191906000526020600020905b815481529060010190602001808311610c1e57829003601f168201915b50505050509050919050565b60008060009054906101000a900473ffffffffffffffffffffffffffffffffffffffff16905090565b600080600260008581526020019081526020016000206000015403610cca576040517f08c379a0000000000000000000000000000000000000000000000000000000008152600401610cc190612073565b60405180910390fd5b610cd3836105dc565b62ffffff168262ffffff161115610d1f576040517f08c379a0000000000000000000000000000000000000000000000000000000008152600401610d1690612214565b60405180910390fd5b60008060005b60026000878152602001908152602001600020600401805490508162ffffff161015610dd657600260008781526020019081526020016000206004018162ffffff1681548110610d7857610d77612162565b5b90600052602060002090600a91828204019190066003029054906101000a900462ffffff1683610da89190612191565b92508262ffffff168562ffffff1611610dc357809150610dd6565b8080610dce90612234565b915050610d25565b50809250505092915050565b60008054906101000a900473ffffffffffffffffffffffffffffffffffffffff1681565b60008054906101000a900473ffffffffffffffffffffffffffffffffffffffff1673ffffffffffffffffffffffffffffffffffffffff163373ffffffffffffffffffffffffffffffffffffffff1614610e94576040517f08c379a0000000000000000000000000000000000000000000000000000000008152600401610e8b906122ab565b60405180910390fd5b6000600260008981526020019081526020016000206000015403610eed576040517f08c379a0000000000000000000000000000000000000000000000000000000008152600401610ee490612073565b60405180910390fd5b85600260008981526020019081526020016000206001019081610f1091906124d7565b5084600260008981526020019081526020016000206002019081610f3491906124d7565b5083600260008981526020019081526020016000206003019080519060200190610f5f929190611525565b5082600260008981526020019081526020016000206004019080519060200190610f8a929190611572565b5081600260008981526020019081526020016000206005018190555080600260008981526020019081526020016000206006018190555050505050505050565b600080600260008581526020019081526020016000206000015403611024576040517f08c379a000000000000000000000000000000000000000000000000000000000815260040161101b90612073565b60405180910390fd5b61102d836105dc565b62ffffff168262ffffff161115611079576040517f08c379a0000000000000000000000000000000000000000000000000000000008152600401611070906125f5565b60405180910390fd5b6001905092915050565b60006002600083815260200190815260200160002060070160009054906101000a900460ff169050919050565b60015481565b60606002600083815260200190815260200160002060040180548060200260200160405190810160405280929190818152602001828054801561114257602002820191906000526020600020906000905b82829054906101000a900462ffffff1662ffffff16815260200190600301906020826002010492830192600103820291508084116111075790505b50505050509050919050565b60008054906101000a900473ffffffffffffffffffffffffffffffffffffffff1673ffffffffffffffffffffffffffffffffffffffff163373ffffffffffffffffffffffffffffffffffffffff16146111dc576040517f08c379a00000000000000000000000000000000000000000000000000000000081526004016111d3906122ab565b60405180910390fd5b6000600260008381526020019081526020016000206000015403611235576040517f08c379a000000000000000000000000000000000000000000000000000000000815260040161122c90612073565b60405180910390fd5b600060016002600084815260200190815260200160002060070160009054906101000a900460ff16600481111561126f5761126e611db8565b5b6112799190612622565b60ff16600481111561128e5761128d611db8565b5b9050806002600084815260200190815260200160002060070160006101000a81548160ff021916908360048111156112c9576112c8611db8565b5b02179055505050565b60008054906101000a900473ffffffffffffffffffffffffffffffffffffffff1673ffffffffffffffffffffffffffffffffffffffff163373ffffffffffffffffffffffffffffffffffffffff1614611360576040517f08c379a0000000000000000000000000000000000000000000000000000000008152600401611357906122ab565b60405180910390fd5b60018060008282546113729190612657565b925050819055506040518061010001604052806001548152602001878152602001868152602001858152602001848152602001838152602001828152602001600060048111156113c5576113c4611db8565b5b8152506002600060015481526020019081526020016000206000820151816000015560208201518160010190816113fc91906124d7565b50604082015181600201908161141291906124d7565b50606082015181600301908051906020019061142f929190611525565b50608082015181600401908051906020019061144c929190611572565b5060a0820151816005015560c0820151816006015560e08201518160070160006101000a81548160ff0219169083600481111561148c5761148b611db8565b5b0217905550905050505050505050565b5080546114a8906122fa565b6000825580601f106114ba57506114d9565b601f0160209004906000526020600020908101906114d8919061161f565b5b50565b50805460008255906000526020600020908101906114fa919061161f565b50565b50805460008255600901600a900490600052602060002090810190611522919061161f565b50565b828054828255906000526020600020908101928215611561579160200282015b82811115611560578251825591602001919060010190611545565b5b50905061156e919061161f565b5090565b82805482825590600052602060002090600901600a9004810192821561160e5791602002820160005b838211156115dd57835183826101000a81548162ffffff021916908362ffffff160217905550926020019260030160208160020104928301926001030261159b565b801561160c5782816101000a81549062ffffff02191690556003016020816002010492830192600103026115dd565b505b50905061161b919061161f565b5090565b5b80821115611638576000816000905550600101611620565b5090565b6000604051905090565b600080fd5b600080fd5b6000819050919050565b61166381611650565b811461166e57600080fd5b50565b6000813590506116808161165a565b92915050565b6000806040838503121561169d5761169c611646565b5b60006116ab85828601611671565b92505060206116bc85828601611671565b9150509250929050565b600062ffffff82169050919050565b6116de816116c6565b82525050565b60006020820190506116f960008301846116d5565b92915050565b60006020828403121561171557611714611646565b5b600061172384828501611671565b91505092915050565b61173581611650565b82525050565b6000602082019050611750600083018461172c565b92915050565b61175f816116c6565b811461176a57600080fd5b50565b60008135905061177c81611756565b92915050565b6000806040838503121561179957611798611646565b5b60006117a785828601611671565b92505060206117b88582860161176d565b9150509250929050565b60008115159050919050565b6117d7816117c2565b82525050565b60006020820190506117f260008301846117ce565b92915050565b600081519050919050565b600082825260208201905092915050565b60005b83811015611832578082015181840152602081019050611817565b60008484015250505050565b6000601f19601f8301169050919050565b600061185a826117f8565b6118648185611803565b9350611874818560208601611814565b61187d8161183e565b840191505092915050565b600060208201905081810360008301526118a2818461184f565b905092915050565b600081519050919050565b600082825260208201905092915050565b6000819050602082019050919050565b6118df81611650565b82525050565b60006118f183836118d6565b60208301905092915050565b6000602082019050919050565b6000611915826118aa565b61191f81856118b5565b935061192a836118c6565b8060005b8381101561195b57815161194288826118e5565b975061194d836118fd565b92505060018101905061192e565b5085935050505092915050565b60006020820190508181036000830152611982818461190a565b905092915050565b600073ffffffffffffffffffffffffffffffffffffffff82169050919050565b60006119b58261198a565b9050919050565b6119c5816119aa565b82525050565b60006020820190506119e060008301846119bc565b92915050565b600080fd5b600080fd5b7f4e487b7100000000000000000000000000000000000000000000000000000000600052604160045260246000fd5b611a288261183e565b810181811067ffffffffffffffff82111715611a4757611a466119f0565b5b80604052505050565b6000611a5a61163c565b9050611a668282611a1f565b919050565b600067ffffffffffffffff821115611a8657611a856119f0565b5b611a8f8261183e565b9050602081019050919050565b82818337600083830152505050565b6000611abe611ab984611a6b565b611a50565b905082815260208101848484011115611ada57611ad96119eb565b5b611ae5848285611a9c565b509392505050565b600082601f830112611b0257611b016119e6565b5b8135611b12848260208601611aab565b91505092915050565b600067ffffffffffffffff821115611b3657611b356119f0565b5b602082029050602081019050919050565b600080fd5b6000611b5f611b5a84611b1b565b611a50565b90508083825260208201905060208402830185811115611b8257611b81611b47565b5b835b81811015611bab5780611b978882611671565b845260208401935050602081019050611b84565b5050509392505050565b600082601f830112611bca57611bc96119e6565b5b8135611bda848260208601611b4c565b91505092915050565b600067ffffffffffffffff821115611bfe57611bfd6119f0565b5b602082029050602081019050919050565b6000611c22611c1d84611be3565b611a50565b90508083825260208201905060208402830185811115611c4557611c44611b47565b5b835b81811015611c6e5780611c5a888261176d565b845260208401935050602081019050611c47565b5050509392505050565b600082601f830112611c8d57611c8c6119e6565b5b8135611c9d848260208601611c0f565b91505092915050565b600080600080600080600060e0888a031215611cc557611cc4611646565b5b6000611cd38a828b01611671565b975050602088013567ffffffffffffffff811115611cf457611cf361164b565b5b611d008a828b01611aed565b965050604088013567ffffffffffffffff811115611d2157611d2061164b565b5b611d2d8a828b01611aed565b955050606088013567ffffffffffffffff811115611d4e57611d4d61164b565b5b611d5a8a828b01611bb5565b945050608088013567ffffffffffffffff811115611d7b57611d7a61164b565b5b611d878a828b01611c78565b93505060a0611d988a828b01611671565b92505060c0611da98a828b01611671565b91505092959891949750929550565b7f4e487b7100000000000000000000000000000000000000000000000000000000600052602160045260246000fd5b60058110611df857611df7611db8565b5b50565b6000819050611e0982611de7565b919050565b6000611e1982611dfb565b9050919050565b611e2981611e0e565b82525050565b6000602082019050611e446000830184611e20565b92915050565b600081519050919050565b600082825260208201905092915050565b6000819050602082019050919050565b611e7f816116c6565b82525050565b6000611e918383611e76565b60208301905092915050565b6000602082019050919050565b6000611eb582611e4a565b611ebf8185611e55565b9350611eca83611e66565b8060005b83811015611efb578151611ee28882611e85565b9750611eed83611e9d565b925050600181019050611ece565b5085935050505092915050565b60006020820190508181036000830152611f228184611eaa565b905092915050565b60008060008060008060c08789031215611f4757611f46611646565b5b600087013567ffffffffffffffff811115611f6557611f6461164b565b5b611f7189828a01611aed565b965050602087013567ffffffffffffffff811115611f9257611f9161164b565b5b611f9e89828a01611aed565b955050604087013567ffffffffffffffff811115611fbf57611fbe61164b565b5b611fcb89828a01611bb5565b945050606087013567ffffffffffffffff811115611fec57611feb61164b565b5b611ff889828a01611c78565b935050608061200989828a01611671565b92505060a061201a89828a01611671565b9150509295509295509295565b7f436f6e6365727420646f6573206e6f7420657869737400000000000000000000600082015250565b600061205d601683611803565b915061206882612027565b602082019050919050565b6000602082019050818103600083015261208c81612050565b9050919050565b7f43617465676f727920696e646578206f7574206f6620626f756e647300000000600082015250565b60006120c9601c83611803565b91506120d482612093565b602082019050919050565b600060208201905081810360008301526120f8816120bc565b9050919050565b7f4e487b7100000000000000000000000000000000000000000000000000000000600052601160045260246000fd5b600061213982611650565b915061214483611650565b925082820390508181111561215c5761215b6120ff565b5b92915050565b7f4e487b7100000000000000000000000000000000000000000000000000000000600052603260045260246000fd5b600061219c826116c6565b91506121a7836116c6565b9250828201905062ffffff8111156121c2576121c16120ff565b5b92915050565b7f53656174206e756d626572206973206e6f7420617661696c61626c6500000000600082015250565b60006121fe601c83611803565b9150612209826121c8565b602082019050919050565b6000602082019050818103600083015261222d816121f1565b9050919050565b600061223f826116c6565b915062ffffff8203612254576122536120ff565b5b600182019050919050565b7f43616c6c6572206973206e6f7420746865206f776e6572000000000000000000600082015250565b6000612295601783611803565b91506122a08261225f565b602082019050919050565b600060208201905081810360008301526122c481612288565b9050919050565b7f4e487b7100000000000000000000000000000000000000000000000000000000600052602260045260246000fd5b6000600282049050600182168061231257607f821691505b602082108103612325576123246122cb565b5b50919050565b60008190508160005260206000209050919050565b60006020601f8301049050919050565b600082821b905092915050565b60006008830261238d7fffffffffffffffffffffffffffffffffffffffffffffffffffffffffffffffff82612350565b6123978683612350565b95508019841693508086168417925050509392505050565b6000819050919050565b60006123d46123cf6123ca84611650565b6123af565b611650565b9050919050565b6000819050919050565b6123ee836123b9565b6124026123fa826123db565b84845461235d565b825550505050565b600090565b61241761240a565b6124228184846123e5565b505050565b5b818110156124465761243b60008261240f565b600181019050612428565b5050565b601f82111561248b5761245c8161232b565b61246584612340565b81016020851015612474578190505b61248861248085612340565b830182612427565b50505b505050565b600082821c905092915050565b60006124ae60001984600802612490565b1980831691505092915050565b60006124c7838361249d565b9150826002028217905092915050565b6124e0826117f8565b67ffffffffffffffff8111156124f9576124f86119f0565b5b61250382546122fa565b61250e82828561244a565b600060209050601f831160018114612541576000841561252f578287015190505b61253985826124bb565b8655506125a1565b601f19841661254f8661232b565b60005b8281101561257757848901518255600182019150602085019450602081019050612552565b868310156125945784890151612590601f89168261249d565b8355505b6001600288020188555050505b505050505050565b7f5365617420646f6573206e6f7420657869737400000000000000000000000000600082015250565b60006125df601383611803565b91506125ea826125a9565b602082019050919050565b6000602082019050818103600083015261260e816125d2565b9050919050565b600060ff82169050919050565b600061262d82612615565b915061263883612615565b9250828201905060ff811115612651576126506120ff565b5b92915050565b600061266282611650565b915061266d83611650565b9250828201905080821115612685576126846120ff565b5b9291505056fea2646970667358221220ca2983ba31c3710c93e0e9f8b4ec6cb23f0959558a5eb6a443ed4bc3d120269464736f6c63430008180033",
  "linkReferences": {},
  "deployedLinkReferences": {}
}