{
  "_format": "hh-sol-artifact-1",
  "contractName": "Concert",
  "sourceName": "contracts/Concert.sol",
  "abi": [
    {
      "inputs": [],
      "stateMutability": "nonpayable",
      "type": "constructor"
    },
    {
      "inputs": [
        {
          "internalType": "string",
          "name": "_name",
          "type": "string"
        },
        {
          "internalType": "string",
          "name": "_location",
          "type": "string"
        },
        {
          "internalType": "uint256[]",
          "name": "_ticketCost",
          "type": "uint256[]"
        },
        {
          "internalType": "uint24[]",
          "name": "_categorySeatNumber",
          "type": "uint24[]"
        },
        {
          "internalType": "uint256",
          "name": "_concertDate",
          "type": "uint256"
        },
        {
          "internalType": "uint256",
          "name": "_salesDate",
          "type": "uint256"
        }
      ],
      "name": "createConcert",
      "outputs": [],
      "stateMutability": "nonpayable",
      "type": "function"
    },
    {
      "inputs": [
        {
          "internalType": "uint256",
          "name": "concertId",
          "type": "uint256"
        }
      ],
      "name": "deleteConcert",
      "outputs": [],
      "stateMutability": "nonpayable",
      "type": "function"
    },
    {
      "inputs": [
        {
          "internalType": "uint256",
          "name": "concertId",
          "type": "uint256"
        }
      ],
      "name": "getCategorySeatArray",
      "outputs": [
        {
          "internalType": "uint24[]",
          "name": "",
          "type": "uint24[]"
        }
      ],
      "stateMutability": "view",
      "type": "function"
    },
    {
      "inputs": [
        {
          "internalType": "uint256",
          "name": "concertId",
          "type": "uint256"
        }
      ],
      "name": "getConcertDate",
      "outputs": [
        {
          "internalType": "uint256",
          "name": "",
          "type": "uint256"
        }
      ],
      "stateMutability": "view",
      "type": "function"
    },
    {
      "inputs": [
        {
          "internalType": "uint256",
          "name": "concertId",
          "type": "uint256"
        }
      ],
      "name": "getConcertDetailsFromConcertId",
      "outputs": [
        {
          "components": [
            {
              "internalType": "uint256",
              "name": "id",
              "type": "uint256"
            },
            {
              "internalType": "string",
              "name": "name",
              "type": "string"
            },
            {
              "internalType": "string",
              "name": "location",
              "type": "string"
            },
            {
              "internalType": "uint256[]",
              "name": "ticketCost",
              "type": "uint256[]"
            },
            {
              "internalType": "uint24[]",
              "name": "categorySeatNumber",
              "type": "uint24[]"
            },
            {
              "internalType": "uint256",
              "name": "concertDate",
              "type": "uint256"
            },
            {
              "internalType": "uint256",
              "name": "salesDate",
              "type": "uint256"
            },
            {
              "internalType": "enum Concert.Stage",
              "name": "stage",
              "type": "uint8"
            }
          ],
          "internalType": "struct Concert.Concert",
          "name": "",
          "type": "tuple"
        }
      ],
      "stateMutability": "view",
      "type": "function"
    },
    {
      "inputs": [
        {
          "internalType": "uint256",
          "name": "concertId",
          "type": "uint256"
        }
      ],
      "name": "getConcertID",
      "outputs": [
        {
          "internalType": "uint256",
          "name": "",
          "type": "uint256"
        }
      ],
      "stateMutability": "view",
      "type": "function"
    },
    {
      "inputs": [
        {
          "internalType": "uint256",
          "name": "concertId",
          "type": "uint256"
        }
      ],
      "name": "getConcertStage",
      "outputs": [
        {
          "internalType": "enum Concert.Stage",
          "name": "",
          "type": "uint8"
        }
      ],
      "stateMutability": "view",
      "type": "function"
    },
    {
      "inputs": [
        {
          "internalType": "uint256",
          "name": "stageInt",
          "type": "uint256"
        }
      ],
      "name": "getConcertsByStage",
      "outputs": [
        {
          "components": [
            {
              "internalType": "uint256",
              "name": "id",
              "type": "uint256"
            },
            {
              "internalType": "string",
              "name": "name",
              "type": "string"
            },
            {
              "internalType": "string",
              "name": "location",
              "type": "string"
            },
            {
              "internalType": "uint256[]",
              "name": "ticketCost",
              "type": "uint256[]"
            },
            {
              "internalType": "uint24[]",
              "name": "categorySeatNumber",
              "type": "uint24[]"
            },
            {
              "internalType": "uint256",
              "name": "concertDate",
              "type": "uint256"
            },
            {
              "internalType": "uint256",
              "name": "salesDate",
              "type": "uint256"
            },
            {
              "internalType": "enum Concert.Stage",
              "name": "stage",
              "type": "uint8"
            }
          ],
          "internalType": "struct Concert.Concert[]",
          "name": "",
          "type": "tuple[]"
        }
      ],
      "stateMutability": "view",
      "type": "function"
    },
    {
      "inputs": [
        {
          "internalType": "uint256",
          "name": "concertId",
          "type": "uint256"
        }
      ],
      "name": "getLocation",
      "outputs": [
        {
          "internalType": "string",
          "name": "",
          "type": "string"
        }
      ],
      "stateMutability": "view",
      "type": "function"
    },
    {
      "inputs": [
        {
          "internalType": "uint256",
          "name": "concertId",
          "type": "uint256"
        }
      ],
      "name": "getName",
      "outputs": [
        {
          "internalType": "string",
          "name": "",
          "type": "string"
        }
      ],
      "stateMutability": "view",
      "type": "function"
    },
    {
      "inputs": [],
      "name": "getOwner",
      "outputs": [
        {
          "internalType": "address",
          "name": "",
          "type": "address"
        }
      ],
      "stateMutability": "view",
      "type": "function"
    },
    {
      "inputs": [
        {
          "internalType": "uint256",
          "name": "concertId",
          "type": "uint256"
        }
      ],
      "name": "getSalesDate",
      "outputs": [
        {
          "internalType": "uint256",
          "name": "",
          "type": "uint256"
        }
      ],
      "stateMutability": "view",
      "type": "function"
    },
    {
      "inputs": [
        {
          "internalType": "uint256",
          "name": "concertId",
          "type": "uint256"
        },
        {
          "internalType": "uint24",
          "name": "seatNumber",
          "type": "uint24"
        }
      ],
      "name": "getSeatCategory",
      "outputs": [
        {
          "internalType": "uint24",
          "name": "",
          "type": "uint24"
        }
      ],
      "stateMutability": "view",
      "type": "function"
    },
    {
      "inputs": [
        {
          "internalType": "uint256",
          "name": "concertId",
          "type": "uint256"
        },
        {
          "internalType": "uint24",
          "name": "seatNumber",
          "type": "uint24"
        }
      ],
      "name": "getSeatCost",
      "outputs": [
        {
          "internalType": "uint256",
          "name": "",
          "type": "uint256"
        }
      ],
      "stateMutability": "view",
      "type": "function"
    },
    {
      "inputs": [
        {
          "internalType": "uint256",
          "name": "concertId",
          "type": "uint256"
        }
      ],
      "name": "getTicketCostArray",
      "outputs": [
        {
          "internalType": "uint256[]",
          "name": "",
          "type": "uint256[]"
        }
      ],
      "stateMutability": "view",
      "type": "function"
    },
    {
      "inputs": [
        {
          "internalType": "uint256",
          "name": "concertId",
          "type": "uint256"
        }
      ],
      "name": "getTotalTickets",
      "outputs": [
        {
          "internalType": "uint24",
          "name": "",
          "type": "uint24"
        }
      ],
      "stateMutability": "view",
      "type": "function"
    },
    {
      "inputs": [
        {
          "internalType": "uint256",
          "name": "concertID",
          "type": "uint256"
        },
        {
          "internalType": "uint256",
          "name": "categoryNumber",
          "type": "uint256"
        }
      ],
      "name": "getTotalTicketsForCategory",
      "outputs": [
        {
          "internalType": "uint24",
          "name": "",
          "type": "uint24"
        }
      ],
      "stateMutability": "view",
      "type": "function"
    },
    {
      "inputs": [
        {
          "internalType": "uint256",
          "name": "concertId",
          "type": "uint256"
        }
      ],
      "name": "isValidConcert",
      "outputs": [
        {
          "internalType": "bool",
          "name": "",
          "type": "bool"
        }
      ],
      "stateMutability": "view",
      "type": "function"
    },
    {
      "inputs": [
        {
          "internalType": "uint256",
          "name": "concertId",
          "type": "uint256"
        },
        {
          "internalType": "uint24",
          "name": "seatNumber",
          "type": "uint24"
        }
      ],
      "name": "isValidSeat",
      "outputs": [
        {
          "internalType": "bool",
          "name": "",
          "type": "bool"
        }
      ],
      "stateMutability": "view",
      "type": "function"
    },
    {
      "inputs": [],
      "name": "owner",
      "outputs": [
        {
          "internalType": "address",
          "name": "",
          "type": "address"
        }
      ],
      "stateMutability": "view",
      "type": "function"
    },
    {
      "inputs": [],
      "name": "totalConcerts",
      "outputs": [
        {
          "internalType": "uint256",
          "name": "",
          "type": "uint256"
        }
      ],
      "stateMutability": "view",
      "type": "function"
    },
    {
      "inputs": [
        {
          "internalType": "uint256",
          "name": "concertId",
          "type": "uint256"
        },
        {
          "internalType": "string",
          "name": "_name",
          "type": "string"
        },
        {
          "internalType": "string",
          "name": "_location",
          "type": "string"
        },
        {
          "internalType": "uint256[]",
          "name": "_ticketCost",
          "type": "uint256[]"
        },
        {
          "internalType": "uint24[]",
          "name": "_categorySeatNumber",
          "type": "uint24[]"
        },
        {
          "internalType": "uint256",
          "name": "_concertDate",
          "type": "uint256"
        },
        {
          "internalType": "uint256",
          "name": "_salesDate",
          "type": "uint256"
        }
      ],
      "name": "updateConcert",
      "outputs": [],
      "stateMutability": "nonpayable",
      "type": "function"
    },
    {
      "inputs": [
        {
          "internalType": "uint256",
          "name": "concertId",
          "type": "uint256"
        }
      ],
      "name": "updateConcertStage",
      "outputs": [],
      "stateMutability": "nonpayable",
      "type": "function"
    }
  ],
  "bytecode": "0x608060405234801561001057600080fd5b50336000806101000a81548173ffffffffffffffffffffffffffffffffffffffff021916908373ffffffffffffffffffffffffffffffffffffffff1602179055506135d5806100606000396000f3fe608060405234801561001057600080fd5b506004361061014d5760003560e01c80637f7b1393116100c3578063afaf063e1161007c578063afaf063e14610436578063b7e1eff614610466578063db750cd114610496578063db84d35f146104b4578063e0f96e6b146104e4578063f9ccf41c146105005761014d565b80637f7b13931461034e578063893d20e81461037e5780638a0e009c1461039c5780638da5cb5b146103cc57806398fb137f146103ea578063a16dd0091461041a5761014d565b80632bc64cd2116101155780632bc64cd214610242578063526702f21461025e57806366312fff1461028e57806369c1e40b146102be5780636b8ff574146102ee5780637445a15a1461031e5761014d565b806309db9ab81461015257806314a438de1461018257806316c15c0c146101b257806318906287146101e25780631d07cb4214610212575b600080fd5b61016c60048036038101906101679190611f43565b61051c565b60405161017991906122c7565b60405180910390f35b61019c600480360381019061019791906122e9565b6107a1565b6040516101a99190612338565b60405180910390f35b6101cc60048036038101906101c79190611f43565b6108b7565b6040516101d99190612362565b60405180910390f35b6101fc60048036038101906101f79190611f43565b6108d7565b6040516102099190612338565b60405180910390f35b61022c600480360381019061022791906123a9565b6109cd565b6040516102399190612362565b60405180910390f35b61025c60048036038101906102579190611f43565b610b73565b005b61027860048036038101906102739190611f43565b610d69565b6040516102859190612362565b60405180910390f35b6102a860048036038101906102a39190611f43565b610dcb565b6040516102b59190612362565b60405180910390f35b6102d860048036038101906102d39190611f43565b610deb565b6040516102e59190612404565b60405180910390f35b61030860048036038101906103039190611f43565b610e0e565b6040516103159190612469565b60405180910390f35b61033860048036038101906103339190611f43565b610eb6565b60405161034591906124fa565b60405180910390f35b61036860048036038101906103639190611f43565b610f24565b6040516103759190612469565b60405180910390f35b610386610fcc565b604051610393919061255d565b60405180910390f35b6103b660048036038101906103b191906123a9565b610ff5565b6040516103c39190612338565b60405180910390f35b6103d4611167565b6040516103e1919061255d565b60405180910390f35b61040460048036038101906103ff9190611f43565b61118b565b60405161041191906126ff565b60405180910390f35b610434600480360381019061042f91906129e1565b6115a0565b005b610450600480360381019061044b91906123a9565b611764565b60405161045d9190612404565b60405180910390f35b610480600480360381019061047b9190611f43565b61181d565b60405161048d9190612b02565b60405180910390f35b61049e61184a565b6040516104ab9190612362565b60405180910390f35b6104ce60048036038101906104c99190611f43565b611850565b6040516104db9190612b8c565b60405180910390f35b6104fe60048036038101906104f99190611f43565b6118e8565b005b61051a60048036038101906105159190612bae565b611a6c565b005b610524611d02565b60026000838152602001908152602001600020604051806101000160405290816000820154815260200160018201805461055d90612cda565b80601f016020809104026020016040519081016040528092919081815260200182805461058990612cda565b80156105d65780601f106105ab576101008083540402835291602001916105d6565b820191906000526020600020905b8154815290600101906020018083116105b957829003601f168201915b505050505081526020016002820180546105ef90612cda565b80601f016020809104026020016040519081016040528092919081815260200182805461061b90612cda565b80156106685780601f1061063d57610100808354040283529160200191610668565b820191906000526020600020905b81548152906001019060200180831161064b57829003601f168201915b50505050508152602001600382018054806020026020016040519081016040528092919081815260200182805480156106c057602002820191906000526020600020905b8154815260200190600101908083116106ac575b505050505081526020016004820180548060200260200160405190810160405280929190818152602001828054801561074257602002820191906000526020600020906000905b82829054906101000a900462ffffff1662ffffff16815260200190600301906020826002010492830192600103820291508084116107075790505b5050505050815260200160058201548152602001600682015481526020016007820160009054906101000a900460ff1660048111156107845761078361218b565b5b60048111156107965761079561218b565b5b815250509050919050565b6000806002600085815260200190815260200160002060000154036107fb576040517f08c379a00000000000000000000000000000000000000000000000000000000081526004016107f290612d57565b60405180910390fd5b60026000848152602001908152602001600020600401805490508210610856576040517f08c379a000000000000000000000000000000000000000000000000000000000815260040161084d90612dc3565b60405180910390fd5b600260008481526020019081526020016000206004016001836108799190612e12565b8154811061088a57610889612e46565b5b90600052602060002090600a91828204019190066003029054906101000a900462ffffff16905092915050565b600060026000838152602001908152602001600020600501549050919050565b600080600260008481526020019081526020016000206000015403610931576040517f08c379a000000000000000000000000000000000000000000000000000000000815260040161092890612d57565b60405180910390fd5b6000806002600085815260200190815260200160002060040180549050905060005b818110156109c25760026000868152602001908152602001600020600401818154811061098357610982612e46565b5b90600052602060002090600a91828204019190066003029054906101000a900462ffffff16836109b39190612e75565b92508080600101915050610953565b508192505050919050565b600080600260008581526020019081526020016000206000015403610a27576040517f08c379a0000000000000000000000000000000000000000000000000000000008152600401610a1e90612d57565b60405180910390fd5b610a30836108d7565b62ffffff168262ffffff161115610a7c576040517f08c379a0000000000000000000000000000000000000000000000000000000008152600401610a7390612ef8565b60405180910390fd5b6000805b60026000868152602001908152602001600020600401805490508162ffffff161015610b6a57600260008681526020019081526020016000206004018162ffffff1681548110610ad357610ad2612e46565b5b90600052602060002090600a91828204019190066003029054906101000a900462ffffff1682610b039190612e75565b91508162ffffff168462ffffff1611610b5757600260008681526020019081526020016000206003018162ffffff1681548110610b4357610b42612e46565b5b906000526020600020015492505050610b6d565b8080610b6290612f18565b915050610a80565b50505b92915050565b60008054906101000a900473ffffffffffffffffffffffffffffffffffffffff1673ffffffffffffffffffffffffffffffffffffffff163373ffffffffffffffffffffffffffffffffffffffff1614610c01576040517f08c379a0000000000000000000000000000000000000000000000000000000008152600401610bf890612f8f565b60405180910390fd5b6000600260008381526020019081526020016000206000015403610c5a576040517f08c379a0000000000000000000000000000000000000000000000000000000008152600401610c5190612d57565b60405180910390fd5b60006004811115610c6e57610c6d61218b565b5b6002600083815260200190815260200160002060070160009054906101000a900460ff166004811115610ca457610ca361218b565b5b14610ce4576040517f08c379a0000000000000000000000000000000000000000000000000000000008152600401610cdb90613021565b60405180910390fd5b60026000828152602001908152602001600020600080820160009055600182016000610d109190611d59565b600282016000610d209190611d59565b600382016000610d309190611d99565b600482016000610d409190611dba565b600582016000905560068201600090556007820160006101000a81549060ff0219169055505050565b600080600260008481526020019081526020016000206000015403610dc3576040517f08c379a0000000000000000000000000000000000000000000000000000000008152600401610dba90612d57565b60405180910390fd5b819050919050565b600060026000838152602001908152602001600020600601549050919050565b600080600260008481526020019081526020016000206000015414159050919050565b6060600260008381526020019081526020016000206001018054610e3190612cda565b80601f0160208091040260200160405190810160405280929190818152602001828054610e5d90612cda565b8015610eaa5780601f10610e7f57610100808354040283529160200191610eaa565b820191906000526020600020905b815481529060010190602001808311610e8d57829003601f168201915b50505050509050919050565b606060026000838152602001908152602001600020600301805480602002602001604051908101604052809291908181526020018280548015610f1857602002820191906000526020600020905b815481526020019060010190808311610f04575b50505050509050919050565b6060600260008381526020019081526020016000206002018054610f4790612cda565b80601f0160208091040260200160405190810160405280929190818152602001828054610f7390612cda565b8015610fc05780601f10610f9557610100808354040283529160200191610fc0565b820191906000526020600020905b815481529060010190602001808311610fa357829003601f168201915b50505050509050919050565b60008060009054906101000a900473ffffffffffffffffffffffffffffffffffffffff16905090565b60008060026000858152602001908152602001600020600001540361104f576040517f08c379a000000000000000000000000000000000000000000000000000000000815260040161104690612d57565b60405180910390fd5b611058836108d7565b62ffffff168262ffffff1611156110a4576040517f08c379a000000000000000000000000000000000000000000000000000000000815260040161109b90612ef8565b60405180910390fd5b60008060005b60026000878152602001908152602001600020600401805490508162ffffff16101561115b57600260008781526020019081526020016000206004018162ffffff16815481106110fd576110fc612e46565b5b90600052602060002090600a91828204019190066003029054906101000a900462ffffff168361112d9190612e75565b92508262ffffff168562ffffff16116111485780915061115b565b808061115390612f18565b9150506110aa565b50809250505092915050565b60008054906101000a900473ffffffffffffffffffffffffffffffffffffffff1681565b606060008260048111156111a2576111a161218b565b5b9050600080600190505b6001548111611225578260048111156111c8576111c761218b565b5b6002600083815260200190815260200160002060070160009054906101000a900460ff1660048111156111fe576111fd61218b565b5b0361121257818061120e90613041565b9250505b808061121d90613041565b9150506111ac565b5060008167ffffffffffffffff8111156112425761124161272b565b5b60405190808252806020026020018201604052801561127b57816020015b611268611d02565b8152602001906001900390816112605790505b509050600080600190505b6001548111611593578460048111156112a2576112a161218b565b5b6002600083815260200190815260200160002060070160009054906101000a900460ff1660048111156112d8576112d761218b565b5b036115805760026000828152602001908152602001600020604051806101000160405290816000820154815260200160018201805461131690612cda565b80601f016020809104026020016040519081016040528092919081815260200182805461134290612cda565b801561138f5780601f106113645761010080835404028352916020019161138f565b820191906000526020600020905b81548152906001019060200180831161137257829003601f168201915b505050505081526020016002820180546113a890612cda565b80601f01602080910402602001604051908101604052809291908181526020018280546113d490612cda565b80156114215780601f106113f657610100808354040283529160200191611421565b820191906000526020600020905b81548152906001019060200180831161140457829003601f168201915b505050505081526020016003820180548060200260200160405190810160405280929190818152602001828054801561147957602002820191906000526020600020905b815481526020019060010190808311611465575b50505050508152602001600482018054806020026020016040519081016040528092919081815260200182805480156114fb57602002820191906000526020600020906000905b82829054906101000a900462ffffff1662ffffff16815260200190600301906020826002010492830192600103820291508084116114c05790505b5050505050815260200160058201548152602001600682015481526020016007820160009054906101000a900460ff16600481111561153d5761153c61218b565b5b600481111561154f5761154e61218b565b5b8152505083838151811061156657611565612e46565b5b6020026020010181905250818061157c90613041565b9250505b808061158b90613041565b915050611286565b5081945050505050919050565b60008054906101000a900473ffffffffffffffffffffffffffffffffffffffff1673ffffffffffffffffffffffffffffffffffffffff163373ffffffffffffffffffffffffffffffffffffffff161461162e576040517f08c379a000000000000000000000000000000000000000000000000000000000815260040161162590612f8f565b60405180910390fd5b6000600260008981526020019081526020016000206000015403611687576040517f08c379a000000000000000000000000000000000000000000000000000000000815260040161167e90612d57565b60405180910390fd5b856002600089815260200190815260200160002060010190816116aa9190613235565b50846002600089815260200190815260200160002060020190816116ce9190613235565b50836002600089815260200190815260200160002060030190805190602001906116f9929190611de2565b5082600260008981526020019081526020016000206004019080519060200190611724929190611e2f565b5081600260008981526020019081526020016000206005018190555080600260008981526020019081526020016000206006018190555050505050505050565b6000806002600085815260200190815260200160002060000154036117be576040517f08c379a00000000000000000000000000000000000000000000000000000000081526004016117b590612d57565b60405180910390fd5b6117c7836108d7565b62ffffff168262ffffff161115611813576040517f08c379a000000000000000000000000000000000000000000000000000000000815260040161180a90613353565b60405180910390fd5b6001905092915050565b60006002600083815260200190815260200160002060070160009054906101000a900460ff169050919050565b60015481565b6060600260008381526020019081526020016000206004018054806020026020016040519081016040528092919081815260200182805480156118dc57602002820191906000526020600020906000905b82829054906101000a900462ffffff1662ffffff16815260200190600301906020826002010492830192600103820291508084116118a15790505b50505050509050919050565b60008054906101000a900473ffffffffffffffffffffffffffffffffffffffff1673ffffffffffffffffffffffffffffffffffffffff163373ffffffffffffffffffffffffffffffffffffffff1614611976576040517f08c379a000000000000000000000000000000000000000000000000000000000815260040161196d90612f8f565b60405180910390fd5b60006002600083815260200190815260200160002060000154036119cf576040517f08c379a00000000000000000000000000000000000000000000000000000000081526004016119c690612d57565b60405180910390fd5b600060016002600084815260200190815260200160002060070160009054906101000a900460ff166004811115611a0957611a0861218b565b5b611a139190613380565b60ff166004811115611a2857611a2761218b565b5b9050806002600084815260200190815260200160002060070160006101000a81548160ff02191690836004811115611a6357611a6261218b565b5b02179055505050565b60008054906101000a900473ffffffffffffffffffffffffffffffffffffffff1673ffffffffffffffffffffffffffffffffffffffff163373ffffffffffffffffffffffffffffffffffffffff1614611afa576040517f08c379a0000000000000000000000000000000000000000000000000000000008152600401611af190612f8f565b60405180910390fd5b6000845103611b3e576040517f08c379a0000000000000000000000000000000000000000000000000000000008152600401611b3590613401565b60405180910390fd5b6000835103611b82576040517f08c379a0000000000000000000000000000000000000000000000000000000008152600401611b7990613493565b60405180910390fd5b8251845114611bc6576040517f08c379a0000000000000000000000000000000000000000000000000000000008152600401611bbd9061354b565b60405180910390fd5b6001806000828254611bd8919061356b565b92505081905550604051806101000160405280600154815260200187815260200186815260200185815260200184815260200183815260200182815260200160006004811115611c2b57611c2a61218b565b5b815250600260006001548152602001908152602001600020600082015181600001556020820151816001019081611c629190613235565b506040820151816002019081611c789190613235565b506060820151816003019080519060200190611c95929190611de2565b506080820151816004019080519060200190611cb2929190611e2f565b5060a0820151816005015560c0820151816006015560e08201518160070160006101000a81548160ff02191690836004811115611cf257611cf161218b565b5b0217905550905050505050505050565b6040518061010001604052806000815260200160608152602001606081526020016060815260200160608152602001600081526020016000815260200160006004811115611d5357611d5261218b565b5b81525090565b508054611d6590612cda565b6000825580601f10611d775750611d96565b601f016020900490600052602060002090810190611d959190611edc565b5b50565b5080546000825590600052602060002090810190611db79190611edc565b50565b50805460008255600901600a900490600052602060002090810190611ddf9190611edc565b50565b828054828255906000526020600020908101928215611e1e579160200282015b82811115611e1d578251825591602001919060010190611e02565b5b509050611e2b9190611edc565b5090565b82805482825590600052602060002090600901600a90048101928215611ecb5791602002820160005b83821115611e9a57835183826101000a81548162ffffff021916908362ffffff1602179055509260200192600301602081600201049283019260010302611e58565b8015611ec95782816101000a81549062ffffff0219169055600301602081600201049283019260010302611e9a565b505b509050611ed89190611edc565b5090565b5b80821115611ef5576000816000905550600101611edd565b5090565b6000604051905090565b600080fd5b600080fd5b6000819050919050565b611f2081611f0d565b8114611f2b57600080fd5b50565b600081359050611f3d81611f17565b92915050565b600060208284031215611f5957611f58611f03565b5b6000611f6784828501611f2e565b91505092915050565b611f7981611f0d565b82525050565b600081519050919050565b600082825260208201905092915050565b60005b83811015611fb9578082015181840152602081019050611f9e565b60008484015250505050565b6000601f19601f8301169050919050565b6000611fe182611f7f565b611feb8185611f8a565b9350611ffb818560208601611f9b565b61200481611fc5565b840191505092915050565b600081519050919050565b600082825260208201905092915050565b6000819050602082019050919050565b60006120478383611f70565b60208301905092915050565b6000602082019050919050565b600061206b8261200f565b612075818561201a565b93506120808361202b565b8060005b838110156120b1578151612098888261203b565b97506120a383612053565b925050600181019050612084565b5085935050505092915050565b600081519050919050565b600082825260208201905092915050565b6000819050602082019050919050565b600062ffffff82169050919050565b612102816120ea565b82525050565b600061211483836120f9565b60208301905092915050565b6000602082019050919050565b6000612138826120be565b61214281856120c9565b935061214d836120da565b8060005b8381101561217e5781516121658882612108565b975061217083612120565b925050600181019050612151565b5085935050505092915050565b7f4e487b7100000000000000000000000000000000000000000000000000000000600052602160045260246000fd5b600581106121cb576121ca61218b565b5b50565b60008190506121dc826121ba565b919050565b60006121ec826121ce565b9050919050565b6121fc816121e1565b82525050565b60006101008301600083015161221b6000860182611f70565b50602083015184820360208601526122338282611fd6565b9150506040830151848203604086015261224d8282611fd6565b915050606083015184820360608601526122678282612060565b91505060808301518482036080860152612281828261212d565b91505060a083015161229660a0860182611f70565b5060c08301516122a960c0860182611f70565b5060e08301516122bc60e08601826121f3565b508091505092915050565b600060208201905081810360008301526122e18184612202565b905092915050565b60008060408385031215612300576122ff611f03565b5b600061230e85828601611f2e565b925050602061231f85828601611f2e565b9150509250929050565b612332816120ea565b82525050565b600060208201905061234d6000830184612329565b92915050565b61235c81611f0d565b82525050565b60006020820190506123776000830184612353565b92915050565b612386816120ea565b811461239157600080fd5b50565b6000813590506123a38161237d565b92915050565b600080604083850312156123c0576123bf611f03565b5b60006123ce85828601611f2e565b92505060206123df85828601612394565b9150509250929050565b60008115159050919050565b6123fe816123e9565b82525050565b600060208201905061241960008301846123f5565b92915050565b600082825260208201905092915050565b600061243b82611f7f565b612445818561241f565b9350612455818560208601611f9b565b61245e81611fc5565b840191505092915050565b600060208201905081810360008301526124838184612430565b905092915050565b600082825260208201905092915050565b60006124a78261200f565b6124b1818561248b565b93506124bc8361202b565b8060005b838110156124ed5781516124d4888261203b565b97506124df83612053565b9250506001810190506124c0565b5085935050505092915050565b60006020820190508181036000830152612514818461249c565b905092915050565b600073ffffffffffffffffffffffffffffffffffffffff82169050919050565b60006125478261251c565b9050919050565b6125578161253c565b82525050565b6000602082019050612572600083018461254e565b92915050565b600081519050919050565b600082825260208201905092915050565b6000819050602082019050919050565b6000610100830160008301516125bd6000860182611f70565b50602083015184820360208601526125d58282611fd6565b915050604083015184820360408601526125ef8282611fd6565b915050606083015184820360608601526126098282612060565b91505060808301518482036080860152612623828261212d565b91505060a083015161263860a0860182611f70565b5060c083015161264b60c0860182611f70565b5060e083015161265e60e08601826121f3565b508091505092915050565b600061267583836125a4565b905092915050565b6000602082019050919050565b600061269582612578565b61269f8185612583565b9350836020820285016126b185612594565b8060005b858110156126ed57848403895281516126ce8582612669565b94506126d98361267d565b925060208a019950506001810190506126b5565b50829750879550505050505092915050565b60006020820190508181036000830152612719818461268a565b905092915050565b600080fd5b600080fd5b7f4e487b7100000000000000000000000000000000000000000000000000000000600052604160045260246000fd5b61276382611fc5565b810181811067ffffffffffffffff821117156127825761278161272b565b5b80604052505050565b6000612795611ef9565b90506127a1828261275a565b919050565b600067ffffffffffffffff8211156127c1576127c061272b565b5b6127ca82611fc5565b9050602081019050919050565b82818337600083830152505050565b60006127f96127f4846127a6565b61278b565b90508281526020810184848401111561281557612814612726565b5b6128208482856127d7565b509392505050565b600082601f83011261283d5761283c612721565b5b813561284d8482602086016127e6565b91505092915050565b600067ffffffffffffffff8211156128715761287061272b565b5b602082029050602081019050919050565b600080fd5b600061289a61289584612856565b61278b565b905080838252602082019050602084028301858111156128bd576128bc612882565b5b835b818110156128e657806128d28882611f2e565b8452602084019350506020810190506128bf565b5050509392505050565b600082601f83011261290557612904612721565b5b8135612915848260208601612887565b91505092915050565b600067ffffffffffffffff8211156129395761293861272b565b5b602082029050602081019050919050565b600061295d6129588461291e565b61278b565b905080838252602082019050602084028301858111156129805761297f612882565b5b835b818110156129a957806129958882612394565b845260208401935050602081019050612982565b5050509392505050565b600082601f8301126129c8576129c7612721565b5b81356129d884826020860161294a565b91505092915050565b600080600080600080600060e0888a031215612a00576129ff611f03565b5b6000612a0e8a828b01611f2e565b975050602088013567ffffffffffffffff811115612a2f57612a2e611f08565b5b612a3b8a828b01612828565b965050604088013567ffffffffffffffff811115612a5c57612a5b611f08565b5b612a688a828b01612828565b955050606088013567ffffffffffffffff811115612a8957612a88611f08565b5b612a958a828b016128f0565b945050608088013567ffffffffffffffff811115612ab657612ab5611f08565b5b612ac28a828b016129b3565b93505060a0612ad38a828b01611f2e565b92505060c0612ae48a828b01611f2e565b91505092959891949750929550565b612afc816121e1565b82525050565b6000602082019050612b176000830184612af3565b92915050565b600082825260208201905092915050565b6000612b39826120be565b612b438185612b1d565b9350612b4e836120da565b8060005b83811015612b7f578151612b668882612108565b9750612b7183612120565b925050600181019050612b52565b5085935050505092915050565b60006020820190508181036000830152612ba68184612b2e565b905092915050565b60008060008060008060c08789031215612bcb57612bca611f03565b5b600087013567ffffffffffffffff811115612be957612be8611f08565b5b612bf589828a01612828565b965050602087013567ffffffffffffffff811115612c1657612c15611f08565b5b612c2289828a01612828565b955050604087013567ffffffffffffffff811115612c4357612c42611f08565b5b612c4f89828a016128f0565b945050606087013567ffffffffffffffff811115612c7057612c6f611f08565b5b612c7c89828a016129b3565b9350506080612c8d89828a01611f2e565b92505060a0612c9e89828a01611f2e565b9150509295509295509295565b7f4e487b7100000000000000000000000000000000000000000000000000000000600052602260045260246000fd5b60006002820490506001821680612cf257607f821691505b602082108103612d0557612d04612cab565b5b50919050565b7f436f6e6365727420646f6573206e6f7420657869737400000000000000000000600082015250565b6000612d4160168361241f565b9150612d4c82612d0b565b602082019050919050565b60006020820190508181036000830152612d7081612d34565b9050919050565b7f43617465676f727920696e646578206f7574206f6620626f756e647300000000600082015250565b6000612dad601c8361241f565b9150612db882612d77565b602082019050919050565b60006020820190508181036000830152612ddc81612da0565b9050919050565b7f4e487b7100000000000000000000000000000000000000000000000000000000600052601160045260246000fd5b6000612e1d82611f0d565b9150612e2883611f0d565b9250828203905081811115612e4057612e3f612de3565b5b92915050565b7f4e487b7100000000000000000000000000000000000000000000000000000000600052603260045260246000fd5b6000612e80826120ea565b9150612e8b836120ea565b9250828201905062ffffff811115612ea657612ea5612de3565b5b92915050565b7f53656174206e756d626572206973206e6f7420617661696c61626c6500000000600082015250565b6000612ee2601c8361241f565b9150612eed82612eac565b602082019050919050565b60006020820190508181036000830152612f1181612ed5565b9050919050565b6000612f23826120ea565b915062ffffff8203612f3857612f37612de3565b5b600182019050919050565b7f43616c6c6572206973206e6f7420746865206f776e6572000000000000000000600082015250565b6000612f7960178361241f565b9150612f8482612f43565b602082019050919050565b60006020820190508181036000830152612fa881612f6c565b9050919050565b7f436f6e636572742063616e206f6e6c792062652064656c65746564206174204960008201527f4e495449414c495a4154494f4e20737461676500000000000000000000000000602082015250565b600061300b60338361241f565b915061301682612faf565b604082019050919050565b6000602082019050818103600083015261303a81612ffe565b9050919050565b600061304c82611f0d565b91507fffffffffffffffffffffffffffffffffffffffffffffffffffffffffffffffff820361307e5761307d612de3565b5b600182019050919050565b60008190508160005260206000209050919050565b60006020601f8301049050919050565b600082821b905092915050565b6000600883026130eb7fffffffffffffffffffffffffffffffffffffffffffffffffffffffffffffffff826130ae565b6130f586836130ae565b95508019841693508086168417925050509392505050565b6000819050919050565b600061313261312d61312884611f0d565b61310d565b611f0d565b9050919050565b6000819050919050565b61314c83613117565b61316061315882613139565b8484546130bb565b825550505050565b600090565b613175613168565b613180818484613143565b505050565b5b818110156131a45761319960008261316d565b600181019050613186565b5050565b601f8211156131e9576131ba81613089565b6131c38461309e565b810160208510156131d2578190505b6131e66131de8561309e565b830182613185565b50505b505050565b600082821c905092915050565b600061320c600019846008026131ee565b1980831691505092915050565b600061322583836131fb565b9150826002028217905092915050565b61323e82611f7f565b67ffffffffffffffff8111156132575761325661272b565b5b6132618254612cda565b61326c8282856131a8565b600060209050601f83116001811461329f576000841561328d578287015190505b6132978582613219565b8655506132ff565b601f1984166132ad86613089565b60005b828110156132d5578489015182556001820191506020850194506020810190506132b0565b868310156132f257848901516132ee601f8916826131fb565b8355505b6001600288020188555050505b505050505050565b7f5365617420646f6573206e6f7420657869737400000000000000000000000000600082015250565b600061333d60138361241f565b915061334882613307565b602082019050919050565b6000602082019050818103600083015261336c81613330565b9050919050565b600060ff82169050919050565b600061338b82613373565b915061339683613373565b9250828201905060ff8111156133af576133ae612de3565b5b92915050565b7f7469636b6574436f73742061727261792063616e6e6f7420626520656d707479600082015250565b60006133eb60208361241f565b91506133f6826133b5565b602082019050919050565b6000602082019050818103600083015261341a816133de565b9050919050565b7f63617465676f7279536561744e756d6265722061727261792063616e6e6f742060008201527f626520656d707479000000000000000000000000000000000000000000000000602082015250565b600061347d60288361241f565b915061348882613421565b604082019050919050565b600060208201905081810360008301526134ac81613470565b9050919050565b7f7469636b6574436f737420616e642063617465676f7279536561744e756d626560008201527f7220617272617973206d7573742068617665207468652073616d65206c656e6760208201527f7468000000000000000000000000000000000000000000000000000000000000604082015250565b600061353560428361241f565b9150613540826134b3565b606082019050919050565b6000602082019050818103600083015261356481613528565b9050919050565b600061357682611f0d565b915061358183611f0d565b925082820190508082111561359957613598612de3565b5b9291505056fea26469706673582212206ff3401311a9f8219ec8008850778d9a65e9e7a6e0069d83a4c1387ca6fe321064736f6c63430008180033",
  "linkReferences": {},
  "deployedLinkReferences": {}
}