{
  "_format": "hh-sol-artifact-1",
  "contractName": "Marketplace",
  "sourceName": "contracts/Marketplace.sol",
  "abi": [
    {
      "inputs": [
        {
          "internalType": "contract Concert",
          "name": "concertAddress",
          "type": "address"
        },
        {
          "internalType": "contract Ticket",
          "name": "ticketAddress",
          "type": "address"
        },
        {
          "internalType": "string",
          "name": "_name",
          "type": "string"
        },
        {
          "internalType": "string",
          "name": "_symbol",
          "type": "string"
        }
      ],
      "stateMutability": "nonpayable",
      "type": "constructor"
    },
    {
      "inputs": [
        {
          "internalType": "address",
          "name": "sender",
          "type": "address"
        },
        {
          "internalType": "uint256",
          "name": "tokenId",
          "type": "uint256"
        },
        {
          "internalType": "address",
          "name": "owner",
          "type": "address"
        }
      ],
      "name": "ERC721IncorrectOwner",
      "type": "error"
    },
    {
      "inputs": [
        {
          "internalType": "address",
          "name": "operator",
          "type": "address"
        },
        {
          "internalType": "uint256",
          "name": "tokenId",
          "type": "uint256"
        }
      ],
      "name": "ERC721InsufficientApproval",
      "type": "error"
    },
    {
      "inputs": [
        {
          "internalType": "address",
          "name": "approver",
          "type": "address"
        }
      ],
      "name": "ERC721InvalidApprover",
      "type": "error"
    },
    {
      "inputs": [
        {
          "internalType": "address",
          "name": "operator",
          "type": "address"
        }
      ],
      "name": "ERC721InvalidOperator",
      "type": "error"
    },
    {
      "inputs": [
        {
          "internalType": "address",
          "name": "owner",
          "type": "address"
        }
      ],
      "name": "ERC721InvalidOwner",
      "type": "error"
    },
    {
      "inputs": [
        {
          "internalType": "address",
          "name": "receiver",
          "type": "address"
        }
      ],
      "name": "ERC721InvalidReceiver",
      "type": "error"
    },
    {
      "inputs": [
        {
          "internalType": "address",
          "name": "sender",
          "type": "address"
        }
      ],
      "name": "ERC721InvalidSender",
      "type": "error"
    },
    {
      "inputs": [
        {
          "internalType": "uint256",
          "name": "tokenId",
          "type": "uint256"
        }
      ],
      "name": "ERC721NonexistentToken",
      "type": "error"
    },
    {
      "anonymous": false,
      "inputs": [
        {
          "indexed": true,
          "internalType": "address",
          "name": "owner",
          "type": "address"
        },
        {
          "indexed": true,
          "internalType": "address",
          "name": "approved",
          "type": "address"
        },
        {
          "indexed": true,
          "internalType": "uint256",
          "name": "tokenId",
          "type": "uint256"
        }
      ],
      "name": "Approval",
      "type": "event"
    },
    {
      "anonymous": false,
      "inputs": [
        {
          "indexed": true,
          "internalType": "address",
          "name": "owner",
          "type": "address"
        },
        {
          "indexed": true,
          "internalType": "address",
          "name": "operator",
          "type": "address"
        },
        {
          "indexed": false,
          "internalType": "bool",
          "name": "approved",
          "type": "bool"
        }
      ],
      "name": "ApprovalForAll",
      "type": "event"
    },
    {
      "anonymous": false,
      "inputs": [
        {
          "indexed": true,
          "internalType": "address",
          "name": "from",
          "type": "address"
        },
        {
          "indexed": true,
          "internalType": "address",
          "name": "to",
          "type": "address"
        },
        {
          "indexed": true,
          "internalType": "uint256",
          "name": "tokenId",
          "type": "uint256"
        }
      ],
      "name": "Transfer",
      "type": "event"
    },
    {
      "inputs": [
        {
          "internalType": "address",
          "name": "to",
          "type": "address"
        },
        {
          "internalType": "uint256",
          "name": "tokenId",
          "type": "uint256"
        }
      ],
      "name": "approve",
      "outputs": [],
      "stateMutability": "nonpayable",
      "type": "function"
    },
    {
      "inputs": [
        {
          "internalType": "address",
          "name": "owner",
          "type": "address"
        }
      ],
      "name": "balanceOf",
      "outputs": [
        {
          "internalType": "uint256",
          "name": "",
          "type": "uint256"
        }
      ],
      "stateMutability": "view",
      "type": "function"
    },
    {
      "inputs": [
        {
          "internalType": "uint256",
          "name": "concertId",
          "type": "uint256"
        },
        {
          "internalType": "uint24[]",
          "name": "seatNumbers",
          "type": "uint24[]"
        },
        {
          "internalType": "string[]",
          "name": "passportIds",
          "type": "string[]"
        }
      ],
      "name": "buyTicket",
      "outputs": [],
      "stateMutability": "payable",
      "type": "function"
    },
    {
      "inputs": [
        {
          "internalType": "uint256",
          "name": "tokenId",
          "type": "uint256"
        }
      ],
      "name": "getApproved",
      "outputs": [
        {
          "internalType": "address",
          "name": "",
          "type": "address"
        }
      ],
      "stateMutability": "view",
      "type": "function"
    },
    {
      "inputs": [
        {
          "internalType": "uint256",
          "name": "concertId",
          "type": "uint256"
        }
      ],
      "name": "getHasQueued",
      "outputs": [
        {
          "internalType": "bool",
          "name": "",
          "type": "bool"
        }
      ],
      "stateMutability": "view",
      "type": "function"
    },
    {
      "inputs": [],
      "name": "getOwner",
      "outputs": [
        {
          "internalType": "address",
          "name": "",
          "type": "address"
        }
      ],
      "stateMutability": "view",
      "type": "function"
    },
    {
      "inputs": [
        {
          "internalType": "uint256",
          "name": "concertId",
          "type": "uint256"
        }
      ],
      "name": "getQueuePosition",
      "outputs": [
        {
          "internalType": "uint256",
          "name": "",
          "type": "uint256"
        }
      ],
      "stateMutability": "view",
      "type": "function"
    },
    {
      "inputs": [
        {
          "internalType": "uint256",
          "name": "concertId",
          "type": "uint256"
        },
        {
          "internalType": "uint256",
          "name": "seatId",
          "type": "uint256"
        }
      ],
      "name": "getSeatAddress",
      "outputs": [
        {
          "internalType": "address",
          "name": "",
          "type": "address"
        }
      ],
      "stateMutability": "view",
      "type": "function"
    },
    {
      "inputs": [
        {
          "internalType": "address",
          "name": "owner",
          "type": "address"
        },
        {
          "internalType": "address",
          "name": "operator",
          "type": "address"
        }
      ],
      "name": "isApprovedForAll",
      "outputs": [
        {
          "internalType": "bool",
          "name": "",
          "type": "bool"
        }
      ],
      "stateMutability": "view",
      "type": "function"
    },
    {
      "inputs": [
        {
          "internalType": "uint256",
          "name": "concertId",
          "type": "uint256"
        }
      ],
      "name": "joinQueue",
      "outputs": [],
      "stateMutability": "nonpayable",
      "type": "function"
    },
    {
      "inputs": [],
      "name": "name",
      "outputs": [
        {
          "internalType": "string",
          "name": "",
          "type": "string"
        }
      ],
      "stateMutability": "view",
      "type": "function"
    },
    {
      "inputs": [
        {
          "internalType": "uint256",
          "name": "tokenId",
          "type": "uint256"
        }
      ],
      "name": "ownerOf",
      "outputs": [
        {
          "internalType": "address",
          "name": "",
          "type": "address"
        }
      ],
      "stateMutability": "view",
      "type": "function"
    },
    {
      "inputs": [
        {
          "internalType": "address",
          "name": "from",
          "type": "address"
        },
        {
          "internalType": "address",
          "name": "to",
          "type": "address"
        },
        {
          "internalType": "uint256",
          "name": "tokenId",
          "type": "uint256"
        }
      ],
      "name": "safeTransferFrom",
      "outputs": [],
      "stateMutability": "nonpayable",
      "type": "function"
    },
    {
      "inputs": [
        {
          "internalType": "address",
          "name": "from",
          "type": "address"
        },
        {
          "internalType": "address",
          "name": "to",
          "type": "address"
        },
        {
          "internalType": "uint256",
          "name": "tokenId",
          "type": "uint256"
        },
        {
          "internalType": "bytes",
          "name": "data",
          "type": "bytes"
        }
      ],
      "name": "safeTransferFrom",
      "outputs": [],
      "stateMutability": "nonpayable",
      "type": "function"
    },
    {
      "inputs": [
        {
          "internalType": "address",
          "name": "operator",
          "type": "address"
        },
        {
          "internalType": "bool",
          "name": "approved",
          "type": "bool"
        }
      ],
      "name": "setApprovalForAll",
      "outputs": [],
      "stateMutability": "nonpayable",
      "type": "function"
    },
    {
      "inputs": [
        {
          "internalType": "bytes4",
          "name": "interfaceId",
          "type": "bytes4"
        }
      ],
      "name": "supportsInterface",
      "outputs": [
        {
          "internalType": "bool",
          "name": "",
          "type": "bool"
        }
      ],
      "stateMutability": "view",
      "type": "function"
    },
    {
      "inputs": [],
      "name": "symbol",
      "outputs": [
        {
          "internalType": "string",
          "name": "",
          "type": "string"
        }
      ],
      "stateMutability": "view",
      "type": "function"
    },
    {
      "inputs": [
        {
          "internalType": "uint256",
          "name": "tokenId",
          "type": "uint256"
        }
      ],
      "name": "tokenURI",
      "outputs": [
        {
          "internalType": "string",
          "name": "",
          "type": "string"
        }
      ],
      "stateMutability": "view",
      "type": "function"
    },
    {
      "inputs": [
        {
          "internalType": "address",
          "name": "from",
          "type": "address"
        },
        {
          "internalType": "address",
          "name": "to",
          "type": "address"
        },
        {
          "internalType": "uint256",
          "name": "tokenId",
          "type": "uint256"
        }
      ],
      "name": "transferFrom",
      "outputs": [],
      "stateMutability": "nonpayable",
      "type": "function"
    },
    {
      "inputs": [],
      "name": "withdraw",
      "outputs": [],
      "stateMutability": "nonpayable",
      "type": "function"
    }
  ],
  "bytecode": "0x60806040523480156200001157600080fd5b50604051620049543803806200495483398181016040528101906200003791906200037d565b818181600090816200004a919062000678565b5080600190816200005c919062000678565b50505083600860006101000a81548173ffffffffffffffffffffffffffffffffffffffff021916908373ffffffffffffffffffffffffffffffffffffffff16021790555082600960006101000a81548173ffffffffffffffffffffffffffffffffffffffff021916908373ffffffffffffffffffffffffffffffffffffffff16021790555033600660006101000a81548173ffffffffffffffffffffffffffffffffffffffff021916908373ffffffffffffffffffffffffffffffffffffffff160217905550505050506200075f565b6000604051905090565b600080fd5b600080fd5b600073ffffffffffffffffffffffffffffffffffffffff82169050919050565b60006200016d8262000140565b9050919050565b6000620001818262000160565b9050919050565b620001938162000174565b81146200019f57600080fd5b50565b600081519050620001b38162000188565b92915050565b6000620001c68262000160565b9050919050565b620001d881620001b9565b8114620001e457600080fd5b50565b600081519050620001f881620001cd565b92915050565b600080fd5b600080fd5b6000601f19601f8301169050919050565b7f4e487b7100000000000000000000000000000000000000000000000000000000600052604160045260246000fd5b620002538262000208565b810181811067ffffffffffffffff8211171562000275576200027462000219565b5b80604052505050565b60006200028a6200012c565b905062000298828262000248565b919050565b600067ffffffffffffffff821115620002bb57620002ba62000219565b5b620002c68262000208565b9050602081019050919050565b60005b83811015620002f3578082015181840152602081019050620002d6565b60008484015250505050565b60006200031662000310846200029d565b6200027e565b90508281526020810184848401111562000335576200033462000203565b5b62000342848285620002d3565b509392505050565b600082601f830112620003625762000361620001fe565b5b815162000374848260208601620002ff565b91505092915050565b600080600080608085870312156200039a576200039962000136565b5b6000620003aa87828801620001a2565b9450506020620003bd87828801620001e7565b935050604085015167ffffffffffffffff811115620003e157620003e06200013b565b5b620003ef878288016200034a565b925050606085015167ffffffffffffffff8111156200041357620004126200013b565b5b62000421878288016200034a565b91505092959194509250565b600081519050919050565b7f4e487b7100000000000000000000000000000000000000000000000000000000600052602260045260246000fd5b600060028204905060018216806200048057607f821691505b60208210810362000496576200049562000438565b5b50919050565b60008190508160005260206000209050919050565b60006020601f8301049050919050565b600082821b905092915050565b600060088302620005007fffffffffffffffffffffffffffffffffffffffffffffffffffffffffffffffff82620004c1565b6200050c8683620004c1565b95508019841693508086168417925050509392505050565b6000819050919050565b6000819050919050565b600062000559620005536200054d8462000524565b6200052e565b62000524565b9050919050565b6000819050919050565b620005758362000538565b6200058d620005848262000560565b848454620004ce565b825550505050565b600090565b620005a462000595565b620005b18184846200056a565b505050565b5b81811015620005d957620005cd6000826200059a565b600181019050620005b7565b5050565b601f8211156200062857620005f2816200049c565b620005fd84620004b1565b810160208510156200060d578190505b620006256200061c85620004b1565b830182620005b6565b50505b505050565b600082821c905092915050565b60006200064d600019846008026200062d565b1980831691505092915050565b60006200066883836200063a565b9150826002028217905092915050565b62000683826200042d565b67ffffffffffffffff8111156200069f576200069e62000219565b5b620006ab825462000467565b620006b8828285620005dd565b600060209050601f831160018114620006f05760008415620006db578287015190505b620006e785826200065a565b86555062000757565b601f19841662000700866200049c565b60005b828110156200072a5784890151825560018201915060208501945060208101905062000703565b868310156200074a578489015162000746601f8916826200063a565b8355505b6001600288020188555050505b505050505050565b6141e5806200076f6000396000f3fe60806040526004361061011f5760003560e01c8063658b5210116100a0578063a22cb46511610064578063a22cb4651461040b578063b88d4fde14610434578063c87b56dd1461045d578063df1ecf501461049a578063e985e9c5146104b65761011f565b8063658b52101461031257806370a082311461034f578063893d20e81461038c57806395d89b41146103b757806396949420146103e25761011f565b806323b872dd116100e757806323b872dd1461022f5780633c0c0e3b146102585780633ccfd60b1461029557806342842e0e146102ac5780636352211e146102d55761011f565b806301ffc9a71461012457806305e6801d1461016157806306fdde031461019e578063081812fc146101c9578063095ea7b314610206575b600080fd5b34801561013057600080fd5b5061014b60048036038101906101469190612ec1565b6104f3565b6040516101589190612f09565b60405180910390f35b34801561016d57600080fd5b5061018860048036038101906101839190612f5a565b6105d5565b6040516101959190612fdb565b60405180910390f35b3480156101aa57600080fd5b506101b3610624565b6040516101c09190613086565b60405180910390f35b3480156101d557600080fd5b506101f060048036038101906101eb91906130a8565b6106b6565b6040516101fd9190612fdb565b60405180910390f35b34801561021257600080fd5b5061022d60048036038101906102289190613101565b6106d2565b005b34801561023b57600080fd5b5061025660048036038101906102519190613141565b6106e8565b005b34801561026457600080fd5b5061027f600480360381019061027a91906130a8565b6107ea565b60405161028c9190612f09565b60405180910390f35b3480156102a157600080fd5b506102aa610851565b005b3480156102b857600080fd5b506102d360048036038101906102ce9190613141565b610946565b005b3480156102e157600080fd5b506102fc60048036038101906102f791906130a8565b610966565b6040516103099190612fdb565b60405180910390f35b34801561031e57600080fd5b50610339600480360381019061033491906130a8565b610978565b60405161034691906131a3565b60405180910390f35b34801561035b57600080fd5b50610376600480360381019061037191906131be565b610a9d565b60405161038391906131a3565b60405180910390f35b34801561039857600080fd5b506103a1610b57565b6040516103ae9190612fdb565b60405180910390f35b3480156103c357600080fd5b506103cc610b81565b6040516103d99190613086565b60405180910390f35b3480156103ee57600080fd5b50610409600480360381019061040491906130a8565b610c13565b005b34801561041757600080fd5b50610432600480360381019061042d9190613217565b61103c565b005b34801561044057600080fd5b5061045b6004803603810190610456919061338c565b611052565b005b34801561046957600080fd5b50610484600480360381019061047f91906130a8565b61106f565b6040516104919190613086565b60405180910390f35b6104b460048036038101906104af9190613694565b6110d8565b005b3480156104c257600080fd5b506104dd60048036038101906104d8919061371f565b611eb3565b6040516104ea9190612f09565b60405180910390f35b60007f80ac58cd000000000000000000000000000000000000000000000000000000007bffffffffffffffffffffffffffffffffffffffffffffffffffffffff1916827bffffffffffffffffffffffffffffffffffffffffffffffffffffffff191614806105be57507f5b5e139f000000000000000000000000000000000000000000000000000000007bffffffffffffffffffffffffffffffffffffffffffffffffffffffff1916827bffffffffffffffffffffffffffffffffffffffffffffffffffffffff1916145b806105ce57506105cd82611f47565b5b9050919050565b6000600b6000848152602001908152602001600020600083815260200190815260200160002060009054906101000a900473ffffffffffffffffffffffffffffffffffffffff16905092915050565b6060600080546106339061378e565b80601f016020809104026020016040519081016040528092919081815260200182805461065f9061378e565b80156106ac5780601f10610681576101008083540402835291602001916106ac565b820191906000526020600020905b81548152906001019060200180831161068f57829003601f168201915b5050505050905090565b60006106c182611fb1565b506106cb82612039565b9050919050565b6106e482826106df612076565b61207e565b5050565b600073ffffffffffffffffffffffffffffffffffffffff168273ffffffffffffffffffffffffffffffffffffffff160361075a5760006040517f64a0ae920000000000000000000000000000000000000000000000000000000081526004016107519190612fdb565b60405180910390fd5b600061076e8383610769612076565b612090565b90508373ffffffffffffffffffffffffffffffffffffffff168173ffffffffffffffffffffffffffffffffffffffff16146107e4578382826040517f64283d7b0000000000000000000000000000000000000000000000000000000081526004016107db939291906137bf565b60405180910390fd5b50505050565b6000600a600083815260200190815260200160002060003373ffffffffffffffffffffffffffffffffffffffff1673ffffffffffffffffffffffffffffffffffffffff16815260200190815260200160002060009054906101000a900460ff169050919050565b600660009054906101000a900473ffffffffffffffffffffffffffffffffffffffff1673ffffffffffffffffffffffffffffffffffffffff163373ffffffffffffffffffffffffffffffffffffffff16146108ab57600080fd5b6000600660009054906101000a900473ffffffffffffffffffffffffffffffffffffffff1673ffffffffffffffffffffffffffffffffffffffff16476040516108f390613827565b60006040518083038185875af1925050503d8060008114610930576040519150601f19603f3d011682016040523d82523d6000602084013e610935565b606091505b505090508061094357600080fd5b50565b61096183838360405180602001604052806000815250611052565b505050565b600061097182611fb1565b9050919050565b600080600d6000848152602001908152602001600020805480602002602001604051908101604052809291908181526020018280548015610a0e57602002820191906000526020600020905b8160009054906101000a900473ffffffffffffffffffffffffffffffffffffffff1673ffffffffffffffffffffffffffffffffffffffff16815260200190600101908083116109c4575b5050505050905060005b8151811015610a91573373ffffffffffffffffffffffffffffffffffffffff16828281518110610a4b57610a4a61383c565b5b602002602001015173ffffffffffffffffffffffffffffffffffffffff1603610a8457600181610a7b919061389a565b92505050610a98565b8080600101915050610a18565b5060009150505b919050565b60008073ffffffffffffffffffffffffffffffffffffffff168273ffffffffffffffffffffffffffffffffffffffff1603610b105760006040517f89c62b64000000000000000000000000000000000000000000000000000000008152600401610b079190612fdb565b60405180910390fd5b600360008373ffffffffffffffffffffffffffffffffffffffff1673ffffffffffffffffffffffffffffffffffffffff168152602001908152602001600020549050919050565b6000600660009054906101000a900473ffffffffffffffffffffffffffffffffffffffff16905090565b606060018054610b909061378e565b80601f0160208091040260200160405190810160405280929190818152602001828054610bbc9061378e565b8015610c095780601f10610bde57610100808354040283529160200191610c09565b820191906000526020600020905b815481529060010190602001808311610bec57829003601f168201915b5050505050905090565b80600860009054906101000a900473ffffffffffffffffffffffffffffffffffffffff1673ffffffffffffffffffffffffffffffffffffffff166369c1e40b826040518263ffffffff1660e01b8152600401610c6f91906131a3565b602060405180830381865afa158015610c8c573d6000803e3d6000fd5b505050506040513d601f19601f82011682018060405250810190610cb091906138e3565b610cef576040517f08c379a0000000000000000000000000000000000000000000000000000000008152600401610ce69061395c565b60405180910390fd5b8160016004811115610d0457610d0361397c565b5b600860009054906101000a900473ffffffffffffffffffffffffffffffffffffffff1673ffffffffffffffffffffffffffffffffffffffff1663b7e1eff6836040518263ffffffff1660e01b8152600401610d5f91906131a3565b602060405180830381865afa158015610d7c573d6000803e3d6000fd5b505050506040513d601f19601f82011682018060405250810190610da091906139d0565b6004811115610db257610db161397c565b5b1480610e7d575060026004811115610dcd57610dcc61397c565b5b600860009054906101000a900473ffffffffffffffffffffffffffffffffffffffff1673ffffffffffffffffffffffffffffffffffffffff1663b7e1eff6836040518263ffffffff1660e01b8152600401610e2891906131a3565b602060405180830381865afa158015610e45573d6000803e3d6000fd5b505050506040513d601f19601f82011682018060405250810190610e6991906139d0565b6004811115610e7b57610e7a61397c565b5b145b610ebc576040517f08c379a0000000000000000000000000000000000000000000000000000000008152600401610eb390613a49565b60405180910390fd5b600a600084815260200190815260200160002060003373ffffffffffffffffffffffffffffffffffffffff1673ffffffffffffffffffffffffffffffffffffffff16815260200190815260200160002060009054906101000a900460ff1615610f5a576040517f08c379a0000000000000000000000000000000000000000000000000000000008152600401610f5190613ab5565b60405180910390fd5b600d6000848152602001908152602001600020339080600181540180825580915050600190039060005260206000200160009091909190916101000a81548173ffffffffffffffffffffffffffffffffffffffff021916908373ffffffffffffffffffffffffffffffffffffffff1602179055506001600a600085815260200190815260200160002060003373ffffffffffffffffffffffffffffffffffffffff1673ffffffffffffffffffffffffffffffffffffffff16815260200190815260200160002060006101000a81548160ff021916908315150217905550505050565b61104e611047612076565b83836122aa565b5050565b61105d8484846106e8565b61106984848484612419565b50505050565b606061107a82611fb1565b5060006110856125d0565b905060008151116110a557604051806020016040528060008152506110d0565b806110af846125e7565b6040516020016110c0929190613b11565b6040516020818303038152906040525b915050919050565b82600860009054906101000a900473ffffffffffffffffffffffffffffffffffffffff1673ffffffffffffffffffffffffffffffffffffffff166369c1e40b826040518263ffffffff1660e01b815260040161113491906131a3565b602060405180830381865afa158015611151573d6000803e3d6000fd5b505050506040513d601f19601f8201168201806040525081019061117591906138e3565b6111b4576040517f08c379a00000000000000000000000000000000000000000000000000000000081526004016111ab9061395c565b60405180910390fd5b83600160048111156111c9576111c861397c565b5b600860009054906101000a900473ffffffffffffffffffffffffffffffffffffffff1673ffffffffffffffffffffffffffffffffffffffff1663b7e1eff6836040518263ffffffff1660e01b815260040161122491906131a3565b602060405180830381865afa158015611241573d6000803e3d6000fd5b505050506040513d601f19601f8201168201806040525081019061126591906139d0565b60048111156112775761127661397c565b5b14806113425750600260048111156112925761129161397c565b5b600860009054906101000a900473ffffffffffffffffffffffffffffffffffffffff1673ffffffffffffffffffffffffffffffffffffffff1663b7e1eff6836040518263ffffffff1660e01b81526004016112ed91906131a3565b602060405180830381865afa15801561130a573d6000803e3d6000fd5b505050506040513d601f19601f8201168201806040525081019061132e91906139d0565b60048111156113405761133f61397c565b5b145b611381576040517f08c379a000000000000000000000000000000000000000000000000000000000815260040161137890613a49565b60405180910390fd5b600d60008681526020019081526020016000206000815481106113a7576113a661383c565b5b9060005260206000200160009054906101000a900473ffffffffffffffffffffffffffffffffffffffff1673ffffffffffffffffffffffffffffffffffffffff163373ffffffffffffffffffffffffffffffffffffffff161461143f576040517f08c379a000000000000000000000000000000000000000000000000000000000815260040161143690613ba7565b60405180910390fd5b60008511611482576040517f08c379a000000000000000000000000000000000000000000000000000000000815260040161147990613c13565b60405180910390fd5b600860009054906101000a900473ffffffffffffffffffffffffffffffffffffffff1673ffffffffffffffffffffffffffffffffffffffff166369c1e40b866040518263ffffffff1660e01b81526004016114dd91906131a3565b602060405180830381865afa1580156114fa573d6000803e3d6000fd5b505050506040513d601f19601f8201168201806040525081019061151e91906138e3565b61155d576040517f08c379a000000000000000000000000000000000000000000000000000000000815260040161155490613c7f565b60405180910390fd5b6000805b855181101561192a57600086828151811061157f5761157e61383c565b5b602002602001015162ffffff16116115cc576040517f08c379a00000000000000000000000000000000000000000000000000000000081526004016115c390613d11565b60405180910390fd5b600860009054906101000a900473ffffffffffffffffffffffffffffffffffffffff1673ffffffffffffffffffffffffffffffffffffffff1663afaf063e8888848151811061161e5761161d61383c565b5b60200260200101516040518363ffffffff1660e01b8152600401611643929190613d40565b602060405180830381865afa158015611660573d6000803e3d6000fd5b505050506040513d601f19601f8201168201806040525081019061168491906138e3565b6116c3576040517f08c379a00000000000000000000000000000000000000000000000000000000081526004016116ba90613db5565b60405180910390fd5b600073ffffffffffffffffffffffffffffffffffffffff16600b600089815260200190815260200160002060008884815181106117035761170261383c565b5b602002602001015162ffffff16815260200190815260200160002060009054906101000a900473ffffffffffffffffffffffffffffffffffffffff1673ffffffffffffffffffffffffffffffffffffffff1614611795576040517f08c379a000000000000000000000000000000000000000000000000000000000815260040161178c90613e21565b60405180910390fd5b6000600860009054906101000a900473ffffffffffffffffffffffffffffffffffffffff1673ffffffffffffffffffffffffffffffffffffffff16638a0e009c898985815181106117e9576117e861383c565b5b60200260200101516040518363ffffffff1660e01b815260040161180e929190613d40565b602060405180830381865afa15801561182b573d6000803e3d6000fd5b505050506040513d601f19601f8201168201806040525081019061184f9190613e56565b90506000600860009054906101000a900473ffffffffffffffffffffffffffffffffffffffff1673ffffffffffffffffffffffffffffffffffffffff16631d07cb428a8a86815181106118a5576118a461383c565b5b60200260200101516040518363ffffffff1660e01b81526004016118ca929190613d40565b602060405180830381865afa1580156118e7573d6000803e3d6000fd5b505050506040513d601f19601f8201168201806040525081019061190b9190613e98565b90508084611919919061389a565b935050508080600101915050611561565b5061196a6040518060400160405280600a81526020017f416d6f756e743a20257300000000000000000000000000000000000000000000815250826126b5565b803410156119ad576040517f08c379a00000000000000000000000000000000000000000000000000000000081526004016119a490613f11565b60405180910390fd5b60005b8551811015611cf85733600b600089815260200190815260200160002060008884815181106119e2576119e161383c565b5b602002602001015162ffffff16815260200190815260200160002060006101000a81548173ffffffffffffffffffffffffffffffffffffffff021916908373ffffffffffffffffffffffffffffffffffffffff160217905550600c6000888152602001908152602001600020868281518110611a6157611a6061383c565b5b6020026020010151908060018154018082558091505060019003906000526020600020016000909162ffffff1690919091505560076000815480929190611aa790613f31565b9190505550611ab833600754612751565b6000600860009054906101000a900473ffffffffffffffffffffffffffffffffffffffff1673ffffffffffffffffffffffffffffffffffffffff16638a0e009c89898581518110611b0c57611b0b61383c565b5b60200260200101516040518363ffffffff1660e01b8152600401611b31929190613d40565b602060405180830381865afa158015611b4e573d6000803e3d6000fd5b505050506040513d601f19601f82011682018060405250810190611b729190613e56565b90506000600860009054906101000a900473ffffffffffffffffffffffffffffffffffffffff1673ffffffffffffffffffffffffffffffffffffffff16631d07cb428a8a8681518110611bc857611bc761383c565b5b60200260200101516040518363ffffffff1660e01b8152600401611bed929190613d40565b602060405180830381865afa158015611c0a573d6000803e3d6000fd5b505050506040513d601f19601f82011682018060405250810190611c2e9190613e98565b90506000878481518110611c4557611c4461383c565b5b60200260200101519050600960009054906101000a900473ffffffffffffffffffffffffffffffffffffffff1673ffffffffffffffffffffffffffffffffffffffff16633747ff816007548c338787876040518763ffffffff1660e01b8152600401611cb696959493929190613f79565b600060405180830381600087803b158015611cd057600080fd5b505af1158015611ce4573d6000803e3d6000fd5b5050505050505080806001019150506119b0565b506000600d6000888152602001908152602001600020805480602002602001604051908101604052809291908181526020018280548015611d8e57602002820191906000526020600020905b8160009054906101000a900473ffffffffffffffffffffffffffffffffffffffff1673ffffffffffffffffffffffffffffffffffffffff1681526020019060010190808311611d44575b50505050509050600060018251611da59190613fe1565b67ffffffffffffffff811115611dbe57611dbd613261565b5b604051908082528060200260200182016040528015611dec5781602001602082028036833780820191505090505b5090506000600190505b8251811015611e8057828181518110611e1257611e1161383c565b5b602002602001015182600183611e289190613fe1565b81518110611e3957611e3861383c565b5b602002602001019073ffffffffffffffffffffffffffffffffffffffff16908173ffffffffffffffffffffffffffffffffffffffff16815250508080600101915050611df6565b5080600d60008a81526020019081526020016000209080519060200190611ea8929190612da4565b505050505050505050565b6000600560008473ffffffffffffffffffffffffffffffffffffffff1673ffffffffffffffffffffffffffffffffffffffff16815260200190815260200160002060008373ffffffffffffffffffffffffffffffffffffffff1673ffffffffffffffffffffffffffffffffffffffff16815260200190815260200160002060009054906101000a900460ff16905092915050565b60007f01ffc9a7000000000000000000000000000000000000000000000000000000007bffffffffffffffffffffffffffffffffffffffffffffffffffffffff1916827bffffffffffffffffffffffffffffffffffffffffffffffffffffffff1916149050919050565b600080611fbd8361276f565b9050600073ffffffffffffffffffffffffffffffffffffffff168173ffffffffffffffffffffffffffffffffffffffff160361203057826040517f7e27328900000000000000000000000000000000000000000000000000000000815260040161202791906131a3565b60405180910390fd5b80915050919050565b60006004600083815260200190815260200160002060009054906101000a900473ffffffffffffffffffffffffffffffffffffffff169050919050565b600033905090565b61208b83838360016127ac565b505050565b60008061209c8461276f565b9050600073ffffffffffffffffffffffffffffffffffffffff168373ffffffffffffffffffffffffffffffffffffffff16146120de576120dd818486612971565b5b600073ffffffffffffffffffffffffffffffffffffffff168173ffffffffffffffffffffffffffffffffffffffff161461216f576121206000856000806127ac565b6001600360008373ffffffffffffffffffffffffffffffffffffffff1673ffffffffffffffffffffffffffffffffffffffff168152602001908152602001600020600082825403925050819055505b600073ffffffffffffffffffffffffffffffffffffffff168573ffffffffffffffffffffffffffffffffffffffff16146121f2576001600360008773ffffffffffffffffffffffffffffffffffffffff1673ffffffffffffffffffffffffffffffffffffffff168152602001908152602001600020600082825401925050819055505b846002600086815260200190815260200160002060006101000a81548173ffffffffffffffffffffffffffffffffffffffff021916908373ffffffffffffffffffffffffffffffffffffffff160217905550838573ffffffffffffffffffffffffffffffffffffffff168273ffffffffffffffffffffffffffffffffffffffff167fddf252ad1be2c89b69c2b068fc378daa952ba7f163c4a11628f55a4df523b3ef60405160405180910390a4809150509392505050565b600073ffffffffffffffffffffffffffffffffffffffff168273ffffffffffffffffffffffffffffffffffffffff160361231b57816040517f5b08ba180000000000000000000000000000000000000000000000000000000081526004016123129190612fdb565b60405180910390fd5b80600560008573ffffffffffffffffffffffffffffffffffffffff1673ffffffffffffffffffffffffffffffffffffffff16815260200190815260200160002060008473ffffffffffffffffffffffffffffffffffffffff1673ffffffffffffffffffffffffffffffffffffffff16815260200190815260200160002060006101000a81548160ff0219169083151502179055508173ffffffffffffffffffffffffffffffffffffffff168373ffffffffffffffffffffffffffffffffffffffff167f17307eab39ab6107e8899845ad3d59bd9653f200f220920489ca2b5937696c318360405161240c9190612f09565b60405180910390a3505050565b60008373ffffffffffffffffffffffffffffffffffffffff163b11156125ca578273ffffffffffffffffffffffffffffffffffffffff1663150b7a0261245d612076565b8685856040518563ffffffff1660e01b815260040161247f949392919061406a565b6020604051808303816000875af19250505080156124bb57506040513d601f19601f820116820180604052508101906124b891906140cb565b60015b61253f573d80600081146124eb576040519150601f19603f3d011682016040523d82523d6000602084013e6124f0565b606091505b50600081510361253757836040517f64a0ae9200000000000000000000000000000000000000000000000000000000815260040161252e9190612fdb565b60405180910390fd5b805181602001fd5b63150b7a0260e01b7bffffffffffffffffffffffffffffffffffffffffffffffffffffffff1916817bffffffffffffffffffffffffffffffffffffffffffffffffffffffff1916146125c857836040517f64a0ae920000000000000000000000000000000000000000000000000000000081526004016125bf9190612fdb565b60405180910390fd5b505b50505050565b606060405180602001604052806000815250905090565b6060600060016125f684612a35565b01905060008167ffffffffffffffff81111561261557612614613261565b5b6040519080825280601f01601f1916602001820160405280156126475781602001600182028036833780820191505090505b509050600082602001820190505b6001156126aa578080600190039150507f3031323334353637383961626364656600000000000000000000000000000000600a86061a8153600a858161269e5761269d6140f8565b5b04945060008503612655575b819350505050919050565b61274d82826040516024016126cb929190614127565b6040516020818303038152906040527fb60e72cc000000000000000000000000000000000000000000000000000000007bffffffffffffffffffffffffffffffffffffffffffffffffffffffff19166020820180517bffffffffffffffffffffffffffffffffffffffffffffffffffffffff8381831617835250505050612b88565b5050565b61276b828260405180602001604052806000815250612ba2565b5050565b60006002600083815260200190815260200160002060009054906101000a900473ffffffffffffffffffffffffffffffffffffffff169050919050565b80806127e55750600073ffffffffffffffffffffffffffffffffffffffff168273ffffffffffffffffffffffffffffffffffffffff1614155b156129195760006127f584611fb1565b9050600073ffffffffffffffffffffffffffffffffffffffff168373ffffffffffffffffffffffffffffffffffffffff161415801561286057508273ffffffffffffffffffffffffffffffffffffffff168173ffffffffffffffffffffffffffffffffffffffff1614155b801561287357506128718184611eb3565b155b156128b557826040517fa9fbf51f0000000000000000000000000000000000000000000000000000000081526004016128ac9190612fdb565b60405180910390fd5b811561291757838573ffffffffffffffffffffffffffffffffffffffff168273ffffffffffffffffffffffffffffffffffffffff167f8c5be1e5ebec7d5bd14f71427d1e84f3dd0314c0f7b2291e5b200ac8c7c3b92560405160405180910390a45b505b836004600085815260200190815260200160002060006101000a81548173ffffffffffffffffffffffffffffffffffffffff021916908373ffffffffffffffffffffffffffffffffffffffff16021790555050505050565b61297c838383612bbe565b612a3057600073ffffffffffffffffffffffffffffffffffffffff168373ffffffffffffffffffffffffffffffffffffffff16036129f157806040517f7e2732890000000000000000000000000000000000000000000000000000000081526004016129e891906131a3565b60405180910390fd5b81816040517f177e802f000000000000000000000000000000000000000000000000000000008152600401612a27929190614157565b60405180910390fd5b505050565b600080600090507a184f03e93ff9f4daa797ed6e38ed64bf6a1f0100000000000000008310612a93577a184f03e93ff9f4daa797ed6e38ed64bf6a1f0100000000000000008381612a8957612a886140f8565b5b0492506040810190505b6d04ee2d6d415b85acef81000000008310612ad0576d04ee2d6d415b85acef81000000008381612ac657612ac56140f8565b5b0492506020810190505b662386f26fc100008310612aff57662386f26fc100008381612af557612af46140f8565b5b0492506010810190505b6305f5e1008310612b28576305f5e1008381612b1e57612b1d6140f8565b5b0492506008810190505b6127108310612b4d576127108381612b4357612b426140f8565b5b0492506004810190505b60648310612b705760648381612b6657612b656140f8565b5b0492506002810190505b600a8310612b7f576001810190505b80915050919050565b612b9f81612b97612c7f612ca0565b63ffffffff16565b50565b612bac8383612cab565b612bb96000848484612419565b505050565b60008073ffffffffffffffffffffffffffffffffffffffff168373ffffffffffffffffffffffffffffffffffffffff1614158015612c7657508273ffffffffffffffffffffffffffffffffffffffff168473ffffffffffffffffffffffffffffffffffffffff161480612c375750612c368484611eb3565b5b80612c7557508273ffffffffffffffffffffffffffffffffffffffff16612c5d83612039565b73ffffffffffffffffffffffffffffffffffffffff16145b5b90509392505050565b60006a636f6e736f6c652e6c6f679050600080835160208501845afa505050565b612e2e819050919050565b600073ffffffffffffffffffffffffffffffffffffffff168273ffffffffffffffffffffffffffffffffffffffff1603612d1d5760006040517f64a0ae92000000000000000000000000000000000000000000000000000000008152600401612d149190612fdb565b60405180910390fd5b6000612d2b83836000612090565b9050600073ffffffffffffffffffffffffffffffffffffffff168173ffffffffffffffffffffffffffffffffffffffff1614612d9f5760006040517f73c6ac6e000000000000000000000000000000000000000000000000000000008152600401612d969190612fdb565b60405180910390fd5b505050565b828054828255906000526020600020908101928215612e1d579160200282015b82811115612e1c5782518260006101000a81548173ffffffffffffffffffffffffffffffffffffffff021916908373ffffffffffffffffffffffffffffffffffffffff16021790555091602001919060010190612dc4565b5b509050612e2a9190612e38565b5090565b612e36614180565b565b5b80821115612e51576000816000905550600101612e39565b5090565b6000604051905090565b600080fd5b600080fd5b60007fffffffff0000000000000000000000000000000000000000000000000000000082169050919050565b612e9e81612e69565b8114612ea957600080fd5b50565b600081359050612ebb81612e95565b92915050565b600060208284031215612ed757612ed6612e5f565b5b6000612ee584828501612eac565b91505092915050565b60008115159050919050565b612f0381612eee565b82525050565b6000602082019050612f1e6000830184612efa565b92915050565b6000819050919050565b612f3781612f24565b8114612f4257600080fd5b50565b600081359050612f5481612f2e565b92915050565b60008060408385031215612f7157612f70612e5f565b5b6000612f7f85828601612f45565b9250506020612f9085828601612f45565b9150509250929050565b600073ffffffffffffffffffffffffffffffffffffffff82169050919050565b6000612fc582612f9a565b9050919050565b612fd581612fba565b82525050565b6000602082019050612ff06000830184612fcc565b92915050565b600081519050919050565b600082825260208201905092915050565b60005b83811015613030578082015181840152602081019050613015565b60008484015250505050565b6000601f19601f8301169050919050565b600061305882612ff6565b6130628185613001565b9350613072818560208601613012565b61307b8161303c565b840191505092915050565b600060208201905081810360008301526130a0818461304d565b905092915050565b6000602082840312156130be576130bd612e5f565b5b60006130cc84828501612f45565b91505092915050565b6130de81612fba565b81146130e957600080fd5b50565b6000813590506130fb816130d5565b92915050565b6000806040838503121561311857613117612e5f565b5b6000613126858286016130ec565b925050602061313785828601612f45565b9150509250929050565b60008060006060848603121561315a57613159612e5f565b5b6000613168868287016130ec565b9350506020613179868287016130ec565b925050604061318a86828701612f45565b9150509250925092565b61319d81612f24565b82525050565b60006020820190506131b86000830184613194565b92915050565b6000602082840312156131d4576131d3612e5f565b5b60006131e2848285016130ec565b91505092915050565b6131f481612eee565b81146131ff57600080fd5b50565b600081359050613211816131eb565b92915050565b6000806040838503121561322e5761322d612e5f565b5b600061323c858286016130ec565b925050602061324d85828601613202565b9150509250929050565b600080fd5b600080fd5b7f4e487b7100000000000000000000000000000000000000000000000000000000600052604160045260246000fd5b6132998261303c565b810181811067ffffffffffffffff821117156132b8576132b7613261565b5b80604052505050565b60006132cb612e55565b90506132d78282613290565b919050565b600067ffffffffffffffff8211156132f7576132f6613261565b5b6133008261303c565b9050602081019050919050565b82818337600083830152505050565b600061332f61332a846132dc565b6132c1565b90508281526020810184848401111561334b5761334a61325c565b5b61335684828561330d565b509392505050565b600082601f83011261337357613372613257565b5b813561338384826020860161331c565b91505092915050565b600080600080608085870312156133a6576133a5612e5f565b5b60006133b4878288016130ec565b94505060206133c5878288016130ec565b93505060406133d687828801612f45565b925050606085013567ffffffffffffffff8111156133f7576133f6612e64565b5b6134038782880161335e565b91505092959194509250565b600067ffffffffffffffff82111561342a57613429613261565b5b602082029050602081019050919050565b600080fd5b600062ffffff82169050919050565b61345881613440565b811461346357600080fd5b50565b6000813590506134758161344f565b92915050565b600061348e6134898461340f565b6132c1565b905080838252602082019050602084028301858111156134b1576134b061343b565b5b835b818110156134da57806134c68882613466565b8452602084019350506020810190506134b3565b5050509392505050565b600082601f8301126134f9576134f8613257565b5b813561350984826020860161347b565b91505092915050565b600067ffffffffffffffff82111561352d5761352c613261565b5b602082029050602081019050919050565b600067ffffffffffffffff82111561355957613558613261565b5b6135628261303c565b9050602081019050919050565b600061358261357d8461353e565b6132c1565b90508281526020810184848401111561359e5761359d61325c565b5b6135a984828561330d565b509392505050565b600082601f8301126135c6576135c5613257565b5b81356135d684826020860161356f565b91505092915050565b60006135f26135ed84613512565b6132c1565b905080838252602082019050602084028301858111156136155761361461343b565b5b835b8181101561365c57803567ffffffffffffffff81111561363a57613639613257565b5b80860161364789826135b1565b85526020850194505050602081019050613617565b5050509392505050565b600082601f83011261367b5761367a613257565b5b813561368b8482602086016135df565b91505092915050565b6000806000606084860312156136ad576136ac612e5f565b5b60006136bb86828701612f45565b935050602084013567ffffffffffffffff8111156136dc576136db612e64565b5b6136e8868287016134e4565b925050604084013567ffffffffffffffff81111561370957613708612e64565b5b61371586828701613666565b9150509250925092565b6000806040838503121561373657613735612e5f565b5b6000613744858286016130ec565b9250506020613755858286016130ec565b9150509250929050565b7f4e487b7100000000000000000000000000000000000000000000000000000000600052602260045260246000fd5b600060028204905060018216806137a657607f821691505b6020821081036137b9576137b861375f565b5b50919050565b60006060820190506137d46000830186612fcc565b6137e16020830185613194565b6137ee6040830184612fcc565b949350505050565b600081905092915050565b50565b60006138116000836137f6565b915061381c82613801565b600082019050919050565b600061383282613804565b9150819050919050565b7f4e487b7100000000000000000000000000000000000000000000000000000000600052603260045260246000fd5b7f4e487b7100000000000000000000000000000000000000000000000000000000600052601160045260246000fd5b60006138a582612f24565b91506138b083612f24565b92508282019050808211156138c8576138c761386b565b5b92915050565b6000815190506138dd816131eb565b92915050565b6000602082840312156138f9576138f8612e5f565b5b6000613907848285016138ce565b91505092915050565b7f496e76616c696420636f6e636572742069640000000000000000000000000000600082015250565b6000613946601283613001565b915061395182613910565b602082019050919050565b6000602082019050818103600083015261397581613939565b9050919050565b7f4e487b7100000000000000000000000000000000000000000000000000000000600052602160045260246000fd5b600581106139b857600080fd5b50565b6000815190506139ca816139ab565b92915050565b6000602082840312156139e6576139e5612e5f565b5b60006139f4848285016139bb565b91505092915050565b7f5072696d617279206d61726b6574706c61636520697320636c6f736564000000600082015250565b6000613a33601d83613001565b9150613a3e826139fd565b602082019050919050565b60006020820190508181036000830152613a6281613a26565b9050919050565b7f596f752061726520616c726561647920696e2074686520717565756500000000600082015250565b6000613a9f601c83613001565b9150613aaa82613a69565b602082019050919050565b60006020820190508181036000830152613ace81613a92565b9050919050565b600081905092915050565b6000613aeb82612ff6565b613af58185613ad5565b9350613b05818560208601613012565b80840191505092915050565b6000613b1d8285613ae0565b9150613b298284613ae0565b91508190509392505050565b7f4275796572206e6f74206174207468652066726f6e74206f662074686520717560008201527f6575650000000000000000000000000000000000000000000000000000000000602082015250565b6000613b91602383613001565b9150613b9c82613b35565b604082019050919050565b60006020820190508181036000830152613bc081613b84565b9050919050565b7f496e76616c696420636f6e636572744964000000000000000000000000000000600082015250565b6000613bfd601183613001565b9150613c0882613bc7565b602082019050919050565b60006020820190508181036000830152613c2c81613bf0565b9050919050565b7f496e76616c696420636f6e636572744964202832290000000000000000000000600082015250565b6000613c69601583613001565b9150613c7482613c33565b602082019050919050565b60006020820190508181036000830152613c9881613c5c565b9050919050565b7f53656174206e756d62657273206d75737420626520677265617465722074686160008201527f6e20300000000000000000000000000000000000000000000000000000000000602082015250565b6000613cfb602383613001565b9150613d0682613c9f565b604082019050919050565b60006020820190508181036000830152613d2a81613cee565b9050919050565b613d3a81613440565b82525050565b6000604082019050613d556000830185613194565b613d626020830184613d31565b9392505050565b7f496e76616c696420736561742049440000000000000000000000000000000000600082015250565b6000613d9f600f83613001565b9150613daa82613d69565b602082019050919050565b60006020820190508181036000830152613dce81613d92565b9050919050565b7f536561742069732074616b656e00000000000000000000000000000000000000600082015250565b6000613e0b600d83613001565b9150613e1682613dd5565b602082019050919050565b60006020820190508181036000830152613e3a81613dfe565b9050919050565b600081519050613e508161344f565b92915050565b600060208284031215613e6c57613e6b612e5f565b5b6000613e7a84828501613e41565b91505092915050565b600081519050613e9281612f2e565b92915050565b600060208284031215613eae57613ead612e5f565b5b6000613ebc84828501613e83565b91505092915050565b7f496e73756666696369656e74206574682073656e740000000000000000000000600082015250565b6000613efb601583613001565b9150613f0682613ec5565b602082019050919050565b60006020820190508181036000830152613f2a81613eee565b9050919050565b6000613f3c82612f24565b91507fffffffffffffffffffffffffffffffffffffffffffffffffffffffffffffffff8203613f6e57613f6d61386b565b5b600182019050919050565b600060c082019050613f8e6000830189613194565b613f9b6020830188613194565b613fa86040830187612fcc565b613fb56060830186613d31565b613fc26080830185613194565b81810360a0830152613fd4818461304d565b9050979650505050505050565b6000613fec82612f24565b9150613ff783612f24565b925082820390508181111561400f5761400e61386b565b5b92915050565b600081519050919050565b600082825260208201905092915050565b600061403c82614015565b6140468185614020565b9350614056818560208601613012565b61405f8161303c565b840191505092915050565b600060808201905061407f6000830187612fcc565b61408c6020830186612fcc565b6140996040830185613194565b81810360608301526140ab8184614031565b905095945050505050565b6000815190506140c581612e95565b92915050565b6000602082840312156140e1576140e0612e5f565b5b60006140ef848285016140b6565b91505092915050565b7f4e487b7100000000000000000000000000000000000000000000000000000000600052601260045260246000fd5b60006040820190508181036000830152614141818561304d565b90506141506020830184613194565b9392505050565b600060408201905061416c6000830185612fcc565b6141796020830184613194565b9392505050565b7f4e487b7100000000000000000000000000000000000000000000000000000000600052605160045260246000fdfea264697066735822122017418f061f4107a4d4d3941a64ed92bdaf55f4225267c6bf63ea8c1e80417a6664736f6c63430008180033",
  "linkReferences": {},
  "deployedLinkReferences": {}
}