{
  "_format": "hh-sol-artifact-1",
  "contractName": "Marketplace",
  "sourceName": "contracts/Marketplace.sol",
  "abi": [
    {
      "inputs": [
        {
          "internalType": "contract Concert",
          "name": "concertAddress",
          "type": "address"
        },
        {
          "internalType": "contract Ticket",
          "name": "ticketAddress",
          "type": "address"
        },
        {
          "internalType": "string",
          "name": "_name",
          "type": "string"
        },
        {
          "internalType": "string",
          "name": "_symbol",
          "type": "string"
        }
      ],
      "stateMutability": "nonpayable",
      "type": "constructor"
    },
    {
      "inputs": [
        {
          "internalType": "address",
          "name": "sender",
          "type": "address"
        },
        {
          "internalType": "uint256",
          "name": "tokenId",
          "type": "uint256"
        },
        {
          "internalType": "address",
          "name": "owner",
          "type": "address"
        }
      ],
      "name": "ERC721IncorrectOwner",
      "type": "error"
    },
    {
      "inputs": [
        {
          "internalType": "address",
          "name": "operator",
          "type": "address"
        },
        {
          "internalType": "uint256",
          "name": "tokenId",
          "type": "uint256"
        }
      ],
      "name": "ERC721InsufficientApproval",
      "type": "error"
    },
    {
      "inputs": [
        {
          "internalType": "address",
          "name": "approver",
          "type": "address"
        }
      ],
      "name": "ERC721InvalidApprover",
      "type": "error"
    },
    {
      "inputs": [
        {
          "internalType": "address",
          "name": "operator",
          "type": "address"
        }
      ],
      "name": "ERC721InvalidOperator",
      "type": "error"
    },
    {
      "inputs": [
        {
          "internalType": "address",
          "name": "owner",
          "type": "address"
        }
      ],
      "name": "ERC721InvalidOwner",
      "type": "error"
    },
    {
      "inputs": [
        {
          "internalType": "address",
          "name": "receiver",
          "type": "address"
        }
      ],
      "name": "ERC721InvalidReceiver",
      "type": "error"
    },
    {
      "inputs": [
        {
          "internalType": "address",
          "name": "sender",
          "type": "address"
        }
      ],
      "name": "ERC721InvalidSender",
      "type": "error"
    },
    {
      "inputs": [
        {
          "internalType": "uint256",
          "name": "tokenId",
          "type": "uint256"
        }
      ],
      "name": "ERC721NonexistentToken",
      "type": "error"
    },
    {
      "anonymous": false,
      "inputs": [
        {
          "indexed": true,
          "internalType": "address",
          "name": "owner",
          "type": "address"
        },
        {
          "indexed": true,
          "internalType": "address",
          "name": "approved",
          "type": "address"
        },
        {
          "indexed": true,
          "internalType": "uint256",
          "name": "tokenId",
          "type": "uint256"
        }
      ],
      "name": "Approval",
      "type": "event"
    },
    {
      "anonymous": false,
      "inputs": [
        {
          "indexed": true,
          "internalType": "address",
          "name": "owner",
          "type": "address"
        },
        {
          "indexed": true,
          "internalType": "address",
          "name": "operator",
          "type": "address"
        },
        {
          "indexed": false,
          "internalType": "bool",
          "name": "approved",
          "type": "bool"
        }
      ],
      "name": "ApprovalForAll",
      "type": "event"
    },
    {
      "anonymous": false,
      "inputs": [
        {
          "indexed": false,
          "internalType": "uint256",
          "name": "amt",
          "type": "uint256"
        }
      ],
      "name": "TicketAmt",
      "type": "event"
    },
    {
      "anonymous": false,
      "inputs": [
        {
          "indexed": true,
          "internalType": "address",
          "name": "from",
          "type": "address"
        },
        {
          "indexed": true,
          "internalType": "address",
          "name": "to",
          "type": "address"
        },
        {
          "indexed": true,
          "internalType": "uint256",
          "name": "tokenId",
          "type": "uint256"
        }
      ],
      "name": "Transfer",
      "type": "event"
    },
    {
      "inputs": [
        {
          "internalType": "address",
          "name": "to",
          "type": "address"
        },
        {
          "internalType": "uint256",
          "name": "tokenId",
          "type": "uint256"
        }
      ],
      "name": "approve",
      "outputs": [],
      "stateMutability": "nonpayable",
      "type": "function"
    },
    {
      "inputs": [
        {
          "internalType": "address",
          "name": "owner",
          "type": "address"
        }
      ],
      "name": "balanceOf",
      "outputs": [
        {
          "internalType": "uint256",
          "name": "",
          "type": "uint256"
        }
      ],
      "stateMutability": "view",
      "type": "function"
    },
    {
      "inputs": [
        {
          "internalType": "uint256",
          "name": "concertId",
          "type": "uint256"
        },
        {
          "internalType": "uint24[]",
          "name": "seatNumbers",
          "type": "uint24[]"
        },
        {
          "internalType": "string[]",
          "name": "passportIds",
          "type": "string[]"
        }
      ],
      "name": "buyTicket",
      "outputs": [],
      "stateMutability": "payable",
      "type": "function"
    },
    {
      "inputs": [
        {
          "internalType": "uint256",
          "name": "tokenId",
          "type": "uint256"
        }
      ],
      "name": "getApproved",
      "outputs": [
        {
          "internalType": "address",
          "name": "",
          "type": "address"
        }
      ],
      "stateMutability": "view",
      "type": "function"
    },
    {
      "inputs": [
        {
          "internalType": "uint256",
          "name": "concertId",
          "type": "uint256"
        }
      ],
      "name": "getHasQueued",
      "outputs": [
        {
          "internalType": "bool",
          "name": "",
          "type": "bool"
        }
      ],
      "stateMutability": "view",
      "type": "function"
    },
    {
      "inputs": [],
      "name": "getOwner",
      "outputs": [
        {
          "internalType": "address",
          "name": "",
          "type": "address"
        }
      ],
      "stateMutability": "view",
      "type": "function"
    },
    {
      "inputs": [
        {
          "internalType": "uint256",
          "name": "concertId",
          "type": "uint256"
        },
        {
          "internalType": "uint256",
          "name": "seatId",
          "type": "uint256"
        }
      ],
      "name": "getSeatAddress",
      "outputs": [
        {
          "internalType": "address",
          "name": "",
          "type": "address"
        }
      ],
      "stateMutability": "view",
      "type": "function"
    },
    {
      "inputs": [
        {
          "internalType": "address",
          "name": "owner",
          "type": "address"
        },
        {
          "internalType": "address",
          "name": "operator",
          "type": "address"
        }
      ],
      "name": "isApprovedForAll",
      "outputs": [
        {
          "internalType": "bool",
          "name": "",
          "type": "bool"
        }
      ],
      "stateMutability": "view",
      "type": "function"
    },
    {
      "inputs": [
        {
          "internalType": "uint256",
          "name": "concertId",
          "type": "uint256"
        }
      ],
      "name": "joinQueue",
      "outputs": [],
      "stateMutability": "nonpayable",
      "type": "function"
    },
    {
      "inputs": [],
      "name": "name",
      "outputs": [
        {
          "internalType": "string",
          "name": "",
          "type": "string"
        }
      ],
      "stateMutability": "view",
      "type": "function"
    },
    {
      "inputs": [
        {
          "internalType": "uint256",
          "name": "tokenId",
          "type": "uint256"
        }
      ],
      "name": "ownerOf",
      "outputs": [
        {
          "internalType": "address",
          "name": "",
          "type": "address"
        }
      ],
      "stateMutability": "view",
      "type": "function"
    },
    {
      "inputs": [
        {
          "internalType": "address",
          "name": "from",
          "type": "address"
        },
        {
          "internalType": "address",
          "name": "to",
          "type": "address"
        },
        {
          "internalType": "uint256",
          "name": "tokenId",
          "type": "uint256"
        }
      ],
      "name": "safeTransferFrom",
      "outputs": [],
      "stateMutability": "nonpayable",
      "type": "function"
    },
    {
      "inputs": [
        {
          "internalType": "address",
          "name": "from",
          "type": "address"
        },
        {
          "internalType": "address",
          "name": "to",
          "type": "address"
        },
        {
          "internalType": "uint256",
          "name": "tokenId",
          "type": "uint256"
        },
        {
          "internalType": "bytes",
          "name": "data",
          "type": "bytes"
        }
      ],
      "name": "safeTransferFrom",
      "outputs": [],
      "stateMutability": "nonpayable",
      "type": "function"
    },
    {
      "inputs": [
        {
          "internalType": "address",
          "name": "operator",
          "type": "address"
        },
        {
          "internalType": "bool",
          "name": "approved",
          "type": "bool"
        }
      ],
      "name": "setApprovalForAll",
      "outputs": [],
      "stateMutability": "nonpayable",
      "type": "function"
    },
    {
      "inputs": [
        {
          "internalType": "bytes4",
          "name": "interfaceId",
          "type": "bytes4"
        }
      ],
      "name": "supportsInterface",
      "outputs": [
        {
          "internalType": "bool",
          "name": "",
          "type": "bool"
        }
      ],
      "stateMutability": "view",
      "type": "function"
    },
    {
      "inputs": [],
      "name": "symbol",
      "outputs": [
        {
          "internalType": "string",
          "name": "",
          "type": "string"
        }
      ],
      "stateMutability": "view",
      "type": "function"
    },
    {
      "inputs": [
        {
          "internalType": "uint256",
          "name": "tokenId",
          "type": "uint256"
        }
      ],
      "name": "tokenURI",
      "outputs": [
        {
          "internalType": "string",
          "name": "",
          "type": "string"
        }
      ],
      "stateMutability": "view",
      "type": "function"
    },
    {
      "inputs": [
        {
          "internalType": "address",
          "name": "from",
          "type": "address"
        },
        {
          "internalType": "address",
          "name": "to",
          "type": "address"
        },
        {
          "internalType": "uint256",
          "name": "tokenId",
          "type": "uint256"
        }
      ],
      "name": "transferFrom",
      "outputs": [],
      "stateMutability": "nonpayable",
      "type": "function"
    },
    {
      "inputs": [],
      "name": "withdraw",
      "outputs": [],
      "stateMutability": "nonpayable",
      "type": "function"
    }
  ],
  "bytecode": "0x60806040523480156200001157600080fd5b506040516200477a3803806200477a83398181016040528101906200003791906200037d565b818181600090816200004a919062000678565b5080600190816200005c919062000678565b50505083600860006101000a81548173ffffffffffffffffffffffffffffffffffffffff021916908373ffffffffffffffffffffffffffffffffffffffff16021790555082600960006101000a81548173ffffffffffffffffffffffffffffffffffffffff021916908373ffffffffffffffffffffffffffffffffffffffff16021790555033600660006101000a81548173ffffffffffffffffffffffffffffffffffffffff021916908373ffffffffffffffffffffffffffffffffffffffff160217905550505050506200075f565b6000604051905090565b600080fd5b600080fd5b600073ffffffffffffffffffffffffffffffffffffffff82169050919050565b60006200016d8262000140565b9050919050565b6000620001818262000160565b9050919050565b620001938162000174565b81146200019f57600080fd5b50565b600081519050620001b38162000188565b92915050565b6000620001c68262000160565b9050919050565b620001d881620001b9565b8114620001e457600080fd5b50565b600081519050620001f881620001cd565b92915050565b600080fd5b600080fd5b6000601f19601f8301169050919050565b7f4e487b7100000000000000000000000000000000000000000000000000000000600052604160045260246000fd5b620002538262000208565b810181811067ffffffffffffffff8211171562000275576200027462000219565b5b80604052505050565b60006200028a6200012c565b905062000298828262000248565b919050565b600067ffffffffffffffff821115620002bb57620002ba62000219565b5b620002c68262000208565b9050602081019050919050565b60005b83811015620002f3578082015181840152602081019050620002d6565b60008484015250505050565b60006200031662000310846200029d565b6200027e565b90508281526020810184848401111562000335576200033462000203565b5b62000342848285620002d3565b509392505050565b600082601f830112620003625762000361620001fe565b5b815162000374848260208601620002ff565b91505092915050565b600080600080608085870312156200039a576200039962000136565b5b6000620003aa87828801620001a2565b9450506020620003bd87828801620001e7565b935050604085015167ffffffffffffffff811115620003e157620003e06200013b565b5b620003ef878288016200034a565b925050606085015167ffffffffffffffff8111156200041357620004126200013b565b5b62000421878288016200034a565b91505092959194509250565b600081519050919050565b7f4e487b7100000000000000000000000000000000000000000000000000000000600052602260045260246000fd5b600060028204905060018216806200048057607f821691505b60208210810362000496576200049562000438565b5b50919050565b60008190508160005260206000209050919050565b60006020601f8301049050919050565b600082821b905092915050565b600060088302620005007fffffffffffffffffffffffffffffffffffffffffffffffffffffffffffffffff82620004c1565b6200050c8683620004c1565b95508019841693508086168417925050509392505050565b6000819050919050565b6000819050919050565b600062000559620005536200054d8462000524565b6200052e565b62000524565b9050919050565b6000819050919050565b620005758362000538565b6200058d620005848262000560565b848454620004ce565b825550505050565b600090565b620005a462000595565b620005b18184846200056a565b505050565b5b81811015620005d957620005cd6000826200059a565b600181019050620005b7565b5050565b601f8211156200062857620005f2816200049c565b620005fd84620004b1565b810160208510156200060d578190505b620006256200061c85620004b1565b830182620005b6565b50505b505050565b600082821c905092915050565b60006200064d600019846008026200062d565b1980831691505092915050565b60006200066883836200063a565b9150826002028217905092915050565b62000683826200042d565b67ffffffffffffffff8111156200069f576200069e62000219565b5b620006ab825462000467565b620006b8828285620005dd565b600060209050601f831160018114620006f05760008415620006db578287015190505b620006e785826200065a565b86555062000757565b601f19841662000700866200049c565b60005b828110156200072a5784890151825560018201915060208501945060208101905062000703565b868310156200074a578489015162000746601f8916826200063a565b8355505b6001600288020188555050505b505050505050565b61400b806200076f6000396000f3fe6080604052600436106101145760003560e01c80636352211e116100a0578063a22cb46511610064578063a22cb465146103c3578063b88d4fde146103ec578063c87b56dd14610415578063df1ecf5014610452578063e985e9c51461046e57610114565b80636352211e146102ca57806370a0823114610307578063893d20e81461034457806395d89b411461036f578063969494201461039a57610114565b8063095ea7b3116100e7578063095ea7b3146101fb57806323b872dd146102245780633c0c0e3b1461024d5780633ccfd60b1461028a57806342842e0e146102a157610114565b806301ffc9a71461011957806305e6801d1461015657806306fdde0314610193578063081812fc146101be575b600080fd5b34801561012557600080fd5b50610140600480360381019061013b9190612ce7565b6104ab565b60405161014d9190612d2f565b60405180910390f35b34801561016257600080fd5b5061017d60048036038101906101789190612d80565b61058d565b60405161018a9190612e01565b60405180910390f35b34801561019f57600080fd5b506101a86105dc565b6040516101b59190612eac565b60405180910390f35b3480156101ca57600080fd5b506101e560048036038101906101e09190612ece565b61066e565b6040516101f29190612e01565b60405180910390f35b34801561020757600080fd5b50610222600480360381019061021d9190612f27565b61068a565b005b34801561023057600080fd5b5061024b60048036038101906102469190612f67565b6106a0565b005b34801561025957600080fd5b50610274600480360381019061026f9190612ece565b6107a2565b6040516102819190612d2f565b60405180910390f35b34801561029657600080fd5b5061029f610809565b005b3480156102ad57600080fd5b506102c860048036038101906102c39190612f67565b6108fe565b005b3480156102d657600080fd5b506102f160048036038101906102ec9190612ece565b61091e565b6040516102fe9190612e01565b60405180910390f35b34801561031357600080fd5b5061032e60048036038101906103299190612fba565b610930565b60405161033b9190612ff6565b60405180910390f35b34801561035057600080fd5b506103596109ea565b6040516103669190612e01565b60405180910390f35b34801561037b57600080fd5b50610384610a14565b6040516103919190612eac565b60405180910390f35b3480156103a657600080fd5b506103c160048036038101906103bc9190612ece565b610aa6565b005b3480156103cf57600080fd5b506103ea60048036038101906103e5919061303d565b610ebe565b005b3480156103f857600080fd5b50610413600480360381019061040e91906131b2565b610ed4565b005b34801561042157600080fd5b5061043c60048036038101906104379190612ece565b610ef1565b6040516104499190612eac565b60405180910390f35b61046c600480360381019061046791906134ba565b610f5a565b005b34801561047a57600080fd5b5061049560048036038101906104909190613545565b611cd9565b6040516104a29190612d2f565b60405180910390f35b60007f80ac58cd000000000000000000000000000000000000000000000000000000007bffffffffffffffffffffffffffffffffffffffffffffffffffffffff1916827bffffffffffffffffffffffffffffffffffffffffffffffffffffffff1916148061057657507f5b5e139f000000000000000000000000000000000000000000000000000000007bffffffffffffffffffffffffffffffffffffffffffffffffffffffff1916827bffffffffffffffffffffffffffffffffffffffffffffffffffffffff1916145b80610586575061058582611d6d565b5b9050919050565b6000600c6000848152602001908152602001600020600083815260200190815260200160002060009054906101000a900473ffffffffffffffffffffffffffffffffffffffff16905092915050565b6060600080546105eb906135b4565b80601f0160208091040260200160405190810160405280929190818152602001828054610617906135b4565b80156106645780601f1061063957610100808354040283529160200191610664565b820191906000526020600020905b81548152906001019060200180831161064757829003601f168201915b5050505050905090565b600061067982611dd7565b5061068382611e5f565b9050919050565b61069c8282610697611e9c565b611ea4565b5050565b600073ffffffffffffffffffffffffffffffffffffffff168273ffffffffffffffffffffffffffffffffffffffff16036107125760006040517f64a0ae920000000000000000000000000000000000000000000000000000000081526004016107099190612e01565b60405180910390fd5b60006107268383610721611e9c565b611eb6565b90508373ffffffffffffffffffffffffffffffffffffffff168173ffffffffffffffffffffffffffffffffffffffff161461079c578382826040517f64283d7b000000000000000000000000000000000000000000000000000000008152600401610793939291906135e5565b60405180910390fd5b50505050565b6000600b600083815260200190815260200160002060003373ffffffffffffffffffffffffffffffffffffffff1673ffffffffffffffffffffffffffffffffffffffff16815260200190815260200160002060009054906101000a900460ff169050919050565b600660009054906101000a900473ffffffffffffffffffffffffffffffffffffffff1673ffffffffffffffffffffffffffffffffffffffff163373ffffffffffffffffffffffffffffffffffffffff161461086357600080fd5b6000600660009054906101000a900473ffffffffffffffffffffffffffffffffffffffff1673ffffffffffffffffffffffffffffffffffffffff16476040516108ab9061364d565b60006040518083038185875af1925050503d80600081146108e8576040519150601f19603f3d011682016040523d82523d6000602084013e6108ed565b606091505b50509050806108fb57600080fd5b50565b61091983838360405180602001604052806000815250610ed4565b505050565b600061092982611dd7565b9050919050565b60008073ffffffffffffffffffffffffffffffffffffffff168273ffffffffffffffffffffffffffffffffffffffff16036109a35760006040517f89c62b6400000000000000000000000000000000000000000000000000000000815260040161099a9190612e01565b60405180910390fd5b600360008373ffffffffffffffffffffffffffffffffffffffff1673ffffffffffffffffffffffffffffffffffffffff168152602001908152602001600020549050919050565b6000600660009054906101000a900473ffffffffffffffffffffffffffffffffffffffff16905090565b606060018054610a23906135b4565b80601f0160208091040260200160405190810160405280929190818152602001828054610a4f906135b4565b8015610a9c5780601f10610a7157610100808354040283529160200191610a9c565b820191906000526020600020905b815481529060010190602001808311610a7f57829003601f168201915b5050505050905090565b80600860009054906101000a900473ffffffffffffffffffffffffffffffffffffffff1673ffffffffffffffffffffffffffffffffffffffff166369c1e40b826040518263ffffffff1660e01b8152600401610b029190612ff6565b602060405180830381865afa158015610b1f573d6000803e3d6000fd5b505050506040513d601f19601f82011682018060405250810190610b439190613677565b610b82576040517f08c379a0000000000000000000000000000000000000000000000000000000008152600401610b79906136f0565b60405180910390fd5b8160016004811115610b9757610b96613710565b5b600860009054906101000a900473ffffffffffffffffffffffffffffffffffffffff1673ffffffffffffffffffffffffffffffffffffffff1663b7e1eff6836040518263ffffffff1660e01b8152600401610bf29190612ff6565b602060405180830381865afa158015610c0f573d6000803e3d6000fd5b505050506040513d601f19601f82011682018060405250810190610c339190613764565b6004811115610c4557610c44613710565b5b1480610d10575060026004811115610c6057610c5f613710565b5b600860009054906101000a900473ffffffffffffffffffffffffffffffffffffffff1673ffffffffffffffffffffffffffffffffffffffff1663b7e1eff6836040518263ffffffff1660e01b8152600401610cbb9190612ff6565b602060405180830381865afa158015610cd8573d6000803e3d6000fd5b505050506040513d601f19601f82011682018060405250810190610cfc9190613764565b6004811115610d0e57610d0d613710565b5b145b610d4f576040517f08c379a0000000000000000000000000000000000000000000000000000000008152600401610d46906137dd565b60405180910390fd5b600b600084815260200190815260200160002060003373ffffffffffffffffffffffffffffffffffffffff1673ffffffffffffffffffffffffffffffffffffffff16815260200190815260200160002060009054906101000a900460ff1615610ded576040517f08c379a0000000000000000000000000000000000000000000000000000000008152600401610de490613849565b60405180910390fd5b600a339080600181540180825580915050600190039060005260206000200160009091909190916101000a81548173ffffffffffffffffffffffffffffffffffffffff021916908373ffffffffffffffffffffffffffffffffffffffff1602179055506001600b600085815260200190815260200160002060003373ffffffffffffffffffffffffffffffffffffffff1673ffffffffffffffffffffffffffffffffffffffff16815260200190815260200160002060006101000a81548160ff021916908315150217905550505050565b610ed0610ec9611e9c565b83836120d0565b5050565b610edf8484846106a0565b610eeb8484848461223f565b50505050565b6060610efc82611dd7565b506000610f076123f6565b90506000815111610f275760405180602001604052806000815250610f52565b80610f318461240d565b604051602001610f429291906138a5565b6040516020818303038152906040525b915050919050565b82600860009054906101000a900473ffffffffffffffffffffffffffffffffffffffff1673ffffffffffffffffffffffffffffffffffffffff166369c1e40b826040518263ffffffff1660e01b8152600401610fb69190612ff6565b602060405180830381865afa158015610fd3573d6000803e3d6000fd5b505050506040513d601f19601f82011682018060405250810190610ff79190613677565b611036576040517f08c379a000000000000000000000000000000000000000000000000000000000815260040161102d906136f0565b60405180910390fd5b836001600481111561104b5761104a613710565b5b600860009054906101000a900473ffffffffffffffffffffffffffffffffffffffff1673ffffffffffffffffffffffffffffffffffffffff1663b7e1eff6836040518263ffffffff1660e01b81526004016110a69190612ff6565b602060405180830381865afa1580156110c3573d6000803e3d6000fd5b505050506040513d601f19601f820116820180604052508101906110e79190613764565b60048111156110f9576110f8613710565b5b14806111c457506002600481111561111457611113613710565b5b600860009054906101000a900473ffffffffffffffffffffffffffffffffffffffff1673ffffffffffffffffffffffffffffffffffffffff1663b7e1eff6836040518263ffffffff1660e01b815260040161116f9190612ff6565b602060405180830381865afa15801561118c573d6000803e3d6000fd5b505050506040513d601f19601f820116820180604052508101906111b09190613764565b60048111156111c2576111c1613710565b5b145b611203576040517f08c379a00000000000000000000000000000000000000000000000000000000081526004016111fa906137dd565b60405180910390fd5b600a600081548110611218576112176138c9565b5b9060005260206000200160009054906101000a900473ffffffffffffffffffffffffffffffffffffffff1673ffffffffffffffffffffffffffffffffffffffff163373ffffffffffffffffffffffffffffffffffffffff16146112b0576040517f08c379a00000000000000000000000000000000000000000000000000000000081526004016112a79061396a565b60405180910390fd5b600085116112f3576040517f08c379a00000000000000000000000000000000000000000000000000000000081526004016112ea906139d6565b60405180910390fd5b600860009054906101000a900473ffffffffffffffffffffffffffffffffffffffff1673ffffffffffffffffffffffffffffffffffffffff166369c1e40b866040518263ffffffff1660e01b815260040161134e9190612ff6565b602060405180830381865afa15801561136b573d6000803e3d6000fd5b505050506040513d601f19601f8201168201806040525081019061138f9190613677565b6113ce576040517f08c379a00000000000000000000000000000000000000000000000000000000081526004016113c590613a42565b60405180910390fd5b6000805b855181101561179b5760008682815181106113f0576113ef6138c9565b5b602002602001015162ffffff161161143d576040517f08c379a000000000000000000000000000000000000000000000000000000000815260040161143490613ad4565b60405180910390fd5b600860009054906101000a900473ffffffffffffffffffffffffffffffffffffffff1673ffffffffffffffffffffffffffffffffffffffff1663afaf063e8888848151811061148f5761148e6138c9565b5b60200260200101516040518363ffffffff1660e01b81526004016114b4929190613b03565b602060405180830381865afa1580156114d1573d6000803e3d6000fd5b505050506040513d601f19601f820116820180604052508101906114f59190613677565b611534576040517f08c379a000000000000000000000000000000000000000000000000000000000815260040161152b90613b78565b60405180910390fd5b600073ffffffffffffffffffffffffffffffffffffffff16600c60008981526020019081526020016000206000888481518110611574576115736138c9565b5b602002602001015162ffffff16815260200190815260200160002060009054906101000a900473ffffffffffffffffffffffffffffffffffffffff1673ffffffffffffffffffffffffffffffffffffffff1614611606576040517f08c379a00000000000000000000000000000000000000000000000000000000081526004016115fd90613be4565b60405180910390fd5b6000600860009054906101000a900473ffffffffffffffffffffffffffffffffffffffff1673ffffffffffffffffffffffffffffffffffffffff16638a0e009c8989858151811061165a576116596138c9565b5b60200260200101516040518363ffffffff1660e01b815260040161167f929190613b03565b602060405180830381865afa15801561169c573d6000803e3d6000fd5b505050506040513d601f19601f820116820180604052508101906116c09190613c19565b90506000600860009054906101000a900473ffffffffffffffffffffffffffffffffffffffff1673ffffffffffffffffffffffffffffffffffffffff16631d07cb428a8a8681518110611716576117156138c9565b5b60200260200101516040518363ffffffff1660e01b815260040161173b929190613b03565b602060405180830381865afa158015611758573d6000803e3d6000fd5b505050506040513d601f19601f8201168201806040525081019061177c9190613c5b565b9050808461178a9190613cb7565b9350505080806001019150506113d2565b506117db6040518060400160405280600a81526020017f416d6f756e743a20257300000000000000000000000000000000000000000000815250826124db565b7f66571471af4191cb6e9ab492727231d44a87cafaf5e4e9596b31fa548c9335318160405161180a9190612ff6565b60405180910390a180341015611855576040517f08c379a000000000000000000000000000000000000000000000000000000000815260040161184c90613d37565b60405180910390fd5b60005b8551811015611ba05733600c6000898152602001908152602001600020600088848151811061188a576118896138c9565b5b602002602001015162ffffff16815260200190815260200160002060006101000a81548173ffffffffffffffffffffffffffffffffffffffff021916908373ffffffffffffffffffffffffffffffffffffffff160217905550600d6000888152602001908152602001600020868281518110611909576119086138c9565b5b6020026020010151908060018154018082558091505060019003906000526020600020016000909162ffffff169091909150556007600081548092919061194f90613d57565b919050555061196033600754612577565b6000600860009054906101000a900473ffffffffffffffffffffffffffffffffffffffff1673ffffffffffffffffffffffffffffffffffffffff16638a0e009c898985815181106119b4576119b36138c9565b5b60200260200101516040518363ffffffff1660e01b81526004016119d9929190613b03565b602060405180830381865afa1580156119f6573d6000803e3d6000fd5b505050506040513d601f19601f82011682018060405250810190611a1a9190613c19565b90506000600860009054906101000a900473ffffffffffffffffffffffffffffffffffffffff1673ffffffffffffffffffffffffffffffffffffffff16631d07cb428a8a8681518110611a7057611a6f6138c9565b5b60200260200101516040518363ffffffff1660e01b8152600401611a95929190613b03565b602060405180830381865afa158015611ab2573d6000803e3d6000fd5b505050506040513d601f19601f82011682018060405250810190611ad69190613c5b565b90506000878481518110611aed57611aec6138c9565b5b60200260200101519050600960009054906101000a900473ffffffffffffffffffffffffffffffffffffffff1673ffffffffffffffffffffffffffffffffffffffff16633747ff816007548c338787876040518763ffffffff1660e01b8152600401611b5e96959493929190613d9f565b600060405180830381600087803b158015611b7857600080fd5b505af1158015611b8c573d6000803e3d6000fd5b505050505050508080600101915050611858565b5060006001600a80549050611bb59190613e07565b67ffffffffffffffff811115611bce57611bcd613087565b5b604051908082528060200260200182016040528015611bfc5781602001602082028036833780820191505090505b5090506000600190505b600a80549050811015611cb857600a8181548110611c2757611c266138c9565b5b9060005260206000200160009054906101000a900473ffffffffffffffffffffffffffffffffffffffff1682600183611c609190613e07565b81518110611c7157611c706138c9565b5b602002602001019073ffffffffffffffffffffffffffffffffffffffff16908173ffffffffffffffffffffffffffffffffffffffff16815250508080600101915050611c06565b5080600a9080519060200190611ccf929190612bca565b5050505050505050565b6000600560008473ffffffffffffffffffffffffffffffffffffffff1673ffffffffffffffffffffffffffffffffffffffff16815260200190815260200160002060008373ffffffffffffffffffffffffffffffffffffffff1673ffffffffffffffffffffffffffffffffffffffff16815260200190815260200160002060009054906101000a900460ff16905092915050565b60007f01ffc9a7000000000000000000000000000000000000000000000000000000007bffffffffffffffffffffffffffffffffffffffffffffffffffffffff1916827bffffffffffffffffffffffffffffffffffffffffffffffffffffffff1916149050919050565b600080611de383612595565b9050600073ffffffffffffffffffffffffffffffffffffffff168173ffffffffffffffffffffffffffffffffffffffff1603611e5657826040517f7e273289000000000000000000000000000000000000000000000000000000008152600401611e4d9190612ff6565b60405180910390fd5b80915050919050565b60006004600083815260200190815260200160002060009054906101000a900473ffffffffffffffffffffffffffffffffffffffff169050919050565b600033905090565b611eb183838360016125d2565b505050565b600080611ec284612595565b9050600073ffffffffffffffffffffffffffffffffffffffff168373ffffffffffffffffffffffffffffffffffffffff1614611f0457611f03818486612797565b5b600073ffffffffffffffffffffffffffffffffffffffff168173ffffffffffffffffffffffffffffffffffffffff1614611f9557611f466000856000806125d2565b6001600360008373ffffffffffffffffffffffffffffffffffffffff1673ffffffffffffffffffffffffffffffffffffffff168152602001908152602001600020600082825403925050819055505b600073ffffffffffffffffffffffffffffffffffffffff168573ffffffffffffffffffffffffffffffffffffffff1614612018576001600360008773ffffffffffffffffffffffffffffffffffffffff1673ffffffffffffffffffffffffffffffffffffffff168152602001908152602001600020600082825401925050819055505b846002600086815260200190815260200160002060006101000a81548173ffffffffffffffffffffffffffffffffffffffff021916908373ffffffffffffffffffffffffffffffffffffffff160217905550838573ffffffffffffffffffffffffffffffffffffffff168273ffffffffffffffffffffffffffffffffffffffff167fddf252ad1be2c89b69c2b068fc378daa952ba7f163c4a11628f55a4df523b3ef60405160405180910390a4809150509392505050565b600073ffffffffffffffffffffffffffffffffffffffff168273ffffffffffffffffffffffffffffffffffffffff160361214157816040517f5b08ba180000000000000000000000000000000000000000000000000000000081526004016121389190612e01565b60405180910390fd5b80600560008573ffffffffffffffffffffffffffffffffffffffff1673ffffffffffffffffffffffffffffffffffffffff16815260200190815260200160002060008473ffffffffffffffffffffffffffffffffffffffff1673ffffffffffffffffffffffffffffffffffffffff16815260200190815260200160002060006101000a81548160ff0219169083151502179055508173ffffffffffffffffffffffffffffffffffffffff168373ffffffffffffffffffffffffffffffffffffffff167f17307eab39ab6107e8899845ad3d59bd9653f200f220920489ca2b5937696c31836040516122329190612d2f565b60405180910390a3505050565b60008373ffffffffffffffffffffffffffffffffffffffff163b11156123f0578273ffffffffffffffffffffffffffffffffffffffff1663150b7a02612283611e9c565b8685856040518563ffffffff1660e01b81526004016122a59493929190613e90565b6020604051808303816000875af19250505080156122e157506040513d601f19601f820116820180604052508101906122de9190613ef1565b60015b612365573d8060008114612311576040519150601f19603f3d011682016040523d82523d6000602084013e612316565b606091505b50600081510361235d57836040517f64a0ae920000000000000000000000000000000000000000000000000000000081526004016123549190612e01565b60405180910390fd5b805181602001fd5b63150b7a0260e01b7bffffffffffffffffffffffffffffffffffffffffffffffffffffffff1916817bffffffffffffffffffffffffffffffffffffffffffffffffffffffff1916146123ee57836040517f64a0ae920000000000000000000000000000000000000000000000000000000081526004016123e59190612e01565b60405180910390fd5b505b50505050565b606060405180602001604052806000815250905090565b60606000600161241c8461285b565b01905060008167ffffffffffffffff81111561243b5761243a613087565b5b6040519080825280601f01601f19166020018201604052801561246d5781602001600182028036833780820191505090505b509050600082602001820190505b6001156124d0578080600190039150507f3031323334353637383961626364656600000000000000000000000000000000600a86061a8153600a85816124c4576124c3613f1e565b5b0494506000850361247b575b819350505050919050565b61257382826040516024016124f1929190613f4d565b6040516020818303038152906040527fb60e72cc000000000000000000000000000000000000000000000000000000007bffffffffffffffffffffffffffffffffffffffffffffffffffffffff19166020820180517bffffffffffffffffffffffffffffffffffffffffffffffffffffffff83818316178352505050506129ae565b5050565b6125918282604051806020016040528060008152506129c8565b5050565b60006002600083815260200190815260200160002060009054906101000a900473ffffffffffffffffffffffffffffffffffffffff169050919050565b808061260b5750600073ffffffffffffffffffffffffffffffffffffffff168273ffffffffffffffffffffffffffffffffffffffff1614155b1561273f57600061261b84611dd7565b9050600073ffffffffffffffffffffffffffffffffffffffff168373ffffffffffffffffffffffffffffffffffffffff161415801561268657508273ffffffffffffffffffffffffffffffffffffffff168173ffffffffffffffffffffffffffffffffffffffff1614155b801561269957506126978184611cd9565b155b156126db57826040517fa9fbf51f0000000000000000000000000000000000000000000000000000000081526004016126d29190612e01565b60405180910390fd5b811561273d57838573ffffffffffffffffffffffffffffffffffffffff168273ffffffffffffffffffffffffffffffffffffffff167f8c5be1e5ebec7d5bd14f71427d1e84f3dd0314c0f7b2291e5b200ac8c7c3b92560405160405180910390a45b505b836004600085815260200190815260200160002060006101000a81548173ffffffffffffffffffffffffffffffffffffffff021916908373ffffffffffffffffffffffffffffffffffffffff16021790555050505050565b6127a28383836129e4565b61285657600073ffffffffffffffffffffffffffffffffffffffff168373ffffffffffffffffffffffffffffffffffffffff160361281757806040517f7e27328900000000000000000000000000000000000000000000000000000000815260040161280e9190612ff6565b60405180910390fd5b81816040517f177e802f00000000000000000000000000000000000000000000000000000000815260040161284d929190613f7d565b60405180910390fd5b505050565b600080600090507a184f03e93ff9f4daa797ed6e38ed64bf6a1f01000000000000000083106128b9577a184f03e93ff9f4daa797ed6e38ed64bf6a1f01000000000000000083816128af576128ae613f1e565b5b0492506040810190505b6d04ee2d6d415b85acef810000000083106128f6576d04ee2d6d415b85acef810000000083816128ec576128eb613f1e565b5b0492506020810190505b662386f26fc10000831061292557662386f26fc10000838161291b5761291a613f1e565b5b0492506010810190505b6305f5e100831061294e576305f5e100838161294457612943613f1e565b5b0492506008810190505b612710831061297357612710838161296957612968613f1e565b5b0492506004810190505b60648310612996576064838161298c5761298b613f1e565b5b0492506002810190505b600a83106129a5576001810190505b80915050919050565b6129c5816129bd612aa5612ac6565b63ffffffff16565b50565b6129d28383612ad1565b6129df600084848461223f565b505050565b60008073ffffffffffffffffffffffffffffffffffffffff168373ffffffffffffffffffffffffffffffffffffffff1614158015612a9c57508273ffffffffffffffffffffffffffffffffffffffff168473ffffffffffffffffffffffffffffffffffffffff161480612a5d5750612a5c8484611cd9565b5b80612a9b57508273ffffffffffffffffffffffffffffffffffffffff16612a8383611e5f565b73ffffffffffffffffffffffffffffffffffffffff16145b5b90509392505050565b60006a636f6e736f6c652e6c6f679050600080835160208501845afa505050565b612c54819050919050565b600073ffffffffffffffffffffffffffffffffffffffff168273ffffffffffffffffffffffffffffffffffffffff1603612b435760006040517f64a0ae92000000000000000000000000000000000000000000000000000000008152600401612b3a9190612e01565b60405180910390fd5b6000612b5183836000611eb6565b9050600073ffffffffffffffffffffffffffffffffffffffff168173ffffffffffffffffffffffffffffffffffffffff1614612bc55760006040517f73c6ac6e000000000000000000000000000000000000000000000000000000008152600401612bbc9190612e01565b60405180910390fd5b505050565b828054828255906000526020600020908101928215612c43579160200282015b82811115612c425782518260006101000a81548173ffffffffffffffffffffffffffffffffffffffff021916908373ffffffffffffffffffffffffffffffffffffffff16021790555091602001919060010190612bea565b5b509050612c509190612c5e565b5090565b612c5c613fa6565b565b5b80821115612c77576000816000905550600101612c5f565b5090565b6000604051905090565b600080fd5b600080fd5b60007fffffffff0000000000000000000000000000000000000000000000000000000082169050919050565b612cc481612c8f565b8114612ccf57600080fd5b50565b600081359050612ce181612cbb565b92915050565b600060208284031215612cfd57612cfc612c85565b5b6000612d0b84828501612cd2565b91505092915050565b60008115159050919050565b612d2981612d14565b82525050565b6000602082019050612d446000830184612d20565b92915050565b6000819050919050565b612d5d81612d4a565b8114612d6857600080fd5b50565b600081359050612d7a81612d54565b92915050565b60008060408385031215612d9757612d96612c85565b5b6000612da585828601612d6b565b9250506020612db685828601612d6b565b9150509250929050565b600073ffffffffffffffffffffffffffffffffffffffff82169050919050565b6000612deb82612dc0565b9050919050565b612dfb81612de0565b82525050565b6000602082019050612e166000830184612df2565b92915050565b600081519050919050565b600082825260208201905092915050565b60005b83811015612e56578082015181840152602081019050612e3b565b60008484015250505050565b6000601f19601f8301169050919050565b6000612e7e82612e1c565b612e888185612e27565b9350612e98818560208601612e38565b612ea181612e62565b840191505092915050565b60006020820190508181036000830152612ec68184612e73565b905092915050565b600060208284031215612ee457612ee3612c85565b5b6000612ef284828501612d6b565b91505092915050565b612f0481612de0565b8114612f0f57600080fd5b50565b600081359050612f2181612efb565b92915050565b60008060408385031215612f3e57612f3d612c85565b5b6000612f4c85828601612f12565b9250506020612f5d85828601612d6b565b9150509250929050565b600080600060608486031215612f8057612f7f612c85565b5b6000612f8e86828701612f12565b9350506020612f9f86828701612f12565b9250506040612fb086828701612d6b565b9150509250925092565b600060208284031215612fd057612fcf612c85565b5b6000612fde84828501612f12565b91505092915050565b612ff081612d4a565b82525050565b600060208201905061300b6000830184612fe7565b92915050565b61301a81612d14565b811461302557600080fd5b50565b60008135905061303781613011565b92915050565b6000806040838503121561305457613053612c85565b5b600061306285828601612f12565b925050602061307385828601613028565b9150509250929050565b600080fd5b600080fd5b7f4e487b7100000000000000000000000000000000000000000000000000000000600052604160045260246000fd5b6130bf82612e62565b810181811067ffffffffffffffff821117156130de576130dd613087565b5b80604052505050565b60006130f1612c7b565b90506130fd82826130b6565b919050565b600067ffffffffffffffff82111561311d5761311c613087565b5b61312682612e62565b9050602081019050919050565b82818337600083830152505050565b600061315561315084613102565b6130e7565b90508281526020810184848401111561317157613170613082565b5b61317c848285613133565b509392505050565b600082601f8301126131995761319861307d565b5b81356131a9848260208601613142565b91505092915050565b600080600080608085870312156131cc576131cb612c85565b5b60006131da87828801612f12565b94505060206131eb87828801612f12565b93505060406131fc87828801612d6b565b925050606085013567ffffffffffffffff81111561321d5761321c612c8a565b5b61322987828801613184565b91505092959194509250565b600067ffffffffffffffff8211156132505761324f613087565b5b602082029050602081019050919050565b600080fd5b600062ffffff82169050919050565b61327e81613266565b811461328957600080fd5b50565b60008135905061329b81613275565b92915050565b60006132b46132af84613235565b6130e7565b905080838252602082019050602084028301858111156132d7576132d6613261565b5b835b8181101561330057806132ec888261328c565b8452602084019350506020810190506132d9565b5050509392505050565b600082601f83011261331f5761331e61307d565b5b813561332f8482602086016132a1565b91505092915050565b600067ffffffffffffffff82111561335357613352613087565b5b602082029050602081019050919050565b600067ffffffffffffffff82111561337f5761337e613087565b5b61338882612e62565b9050602081019050919050565b60006133a86133a384613364565b6130e7565b9050828152602081018484840111156133c4576133c3613082565b5b6133cf848285613133565b509392505050565b600082601f8301126133ec576133eb61307d565b5b81356133fc848260208601613395565b91505092915050565b600061341861341384613338565b6130e7565b9050808382526020820190506020840283018581111561343b5761343a613261565b5b835b8181101561348257803567ffffffffffffffff8111156134605761345f61307d565b5b80860161346d89826133d7565b8552602085019450505060208101905061343d565b5050509392505050565b600082601f8301126134a1576134a061307d565b5b81356134b1848260208601613405565b91505092915050565b6000806000606084860312156134d3576134d2612c85565b5b60006134e186828701612d6b565b935050602084013567ffffffffffffffff81111561350257613501612c8a565b5b61350e8682870161330a565b925050604084013567ffffffffffffffff81111561352f5761352e612c8a565b5b61353b8682870161348c565b9150509250925092565b6000806040838503121561355c5761355b612c85565b5b600061356a85828601612f12565b925050602061357b85828601612f12565b9150509250929050565b7f4e487b7100000000000000000000000000000000000000000000000000000000600052602260045260246000fd5b600060028204905060018216806135cc57607f821691505b6020821081036135df576135de613585565b5b50919050565b60006060820190506135fa6000830186612df2565b6136076020830185612fe7565b6136146040830184612df2565b949350505050565b600081905092915050565b50565b600061363760008361361c565b915061364282613627565b600082019050919050565b60006136588261362a565b9150819050919050565b60008151905061367181613011565b92915050565b60006020828403121561368d5761368c612c85565b5b600061369b84828501613662565b91505092915050565b7f496e76616c696420636f6e636572742069640000000000000000000000000000600082015250565b60006136da601283612e27565b91506136e5826136a4565b602082019050919050565b60006020820190508181036000830152613709816136cd565b9050919050565b7f4e487b7100000000000000000000000000000000000000000000000000000000600052602160045260246000fd5b6005811061374c57600080fd5b50565b60008151905061375e8161373f565b92915050565b60006020828403121561377a57613779612c85565b5b60006137888482850161374f565b91505092915050565b7f5072696d617279206d61726b6574706c61636520697320636c6f736564000000600082015250565b60006137c7601d83612e27565b91506137d282613791565b602082019050919050565b600060208201905081810360008301526137f6816137ba565b9050919050565b7f596f752061726520616c726561647920696e2074686520717565756500000000600082015250565b6000613833601c83612e27565b915061383e826137fd565b602082019050919050565b6000602082019050818103600083015261386281613826565b9050919050565b600081905092915050565b600061387f82612e1c565b6138898185613869565b9350613899818560208601612e38565b80840191505092915050565b60006138b18285613874565b91506138bd8284613874565b91508190509392505050565b7f4e487b7100000000000000000000000000000000000000000000000000000000600052603260045260246000fd5b7f4275796572206e6f74206174207468652066726f6e74206f662074686520717560008201527f6575650000000000000000000000000000000000000000000000000000000000602082015250565b6000613954602383612e27565b915061395f826138f8565b604082019050919050565b6000602082019050818103600083015261398381613947565b9050919050565b7f496e76616c696420636f6e636572744964000000000000000000000000000000600082015250565b60006139c0601183612e27565b91506139cb8261398a565b602082019050919050565b600060208201905081810360008301526139ef816139b3565b9050919050565b7f496e76616c696420636f6e636572744964202832290000000000000000000000600082015250565b6000613a2c601583612e27565b9150613a37826139f6565b602082019050919050565b60006020820190508181036000830152613a5b81613a1f565b9050919050565b7f53656174206e756d62657273206d75737420626520677265617465722074686160008201527f6e20300000000000000000000000000000000000000000000000000000000000602082015250565b6000613abe602383612e27565b9150613ac982613a62565b604082019050919050565b60006020820190508181036000830152613aed81613ab1565b9050919050565b613afd81613266565b82525050565b6000604082019050613b186000830185612fe7565b613b256020830184613af4565b9392505050565b7f496e76616c696420736561742049440000000000000000000000000000000000600082015250565b6000613b62600f83612e27565b9150613b6d82613b2c565b602082019050919050565b60006020820190508181036000830152613b9181613b55565b9050919050565b7f536561742069732074616b656e00000000000000000000000000000000000000600082015250565b6000613bce600d83612e27565b9150613bd982613b98565b602082019050919050565b60006020820190508181036000830152613bfd81613bc1565b9050919050565b600081519050613c1381613275565b92915050565b600060208284031215613c2f57613c2e612c85565b5b6000613c3d84828501613c04565b91505092915050565b600081519050613c5581612d54565b92915050565b600060208284031215613c7157613c70612c85565b5b6000613c7f84828501613c46565b91505092915050565b7f4e487b7100000000000000000000000000000000000000000000000000000000600052601160045260246000fd5b6000613cc282612d4a565b9150613ccd83612d4a565b9250828201905080821115613ce557613ce4613c88565b5b92915050565b7f496e73756666696369656e74206574682073656e740000000000000000000000600082015250565b6000613d21601583612e27565b9150613d2c82613ceb565b602082019050919050565b60006020820190508181036000830152613d5081613d14565b9050919050565b6000613d6282612d4a565b91507fffffffffffffffffffffffffffffffffffffffffffffffffffffffffffffffff8203613d9457613d93613c88565b5b600182019050919050565b600060c082019050613db46000830189612fe7565b613dc16020830188612fe7565b613dce6040830187612df2565b613ddb6060830186613af4565b613de86080830185612fe7565b81810360a0830152613dfa8184612e73565b9050979650505050505050565b6000613e1282612d4a565b9150613e1d83612d4a565b9250828203905081811115613e3557613e34613c88565b5b92915050565b600081519050919050565b600082825260208201905092915050565b6000613e6282613e3b565b613e6c8185613e46565b9350613e7c818560208601612e38565b613e8581612e62565b840191505092915050565b6000608082019050613ea56000830187612df2565b613eb26020830186612df2565b613ebf6040830185612fe7565b8181036060830152613ed18184613e57565b905095945050505050565b600081519050613eeb81612cbb565b92915050565b600060208284031215613f0757613f06612c85565b5b6000613f1584828501613edc565b91505092915050565b7f4e487b7100000000000000000000000000000000000000000000000000000000600052601260045260246000fd5b60006040820190508181036000830152613f678185612e73565b9050613f766020830184612fe7565b9392505050565b6000604082019050613f926000830185612df2565b613f9f6020830184612fe7565b9392505050565b7f4e487b7100000000000000000000000000000000000000000000000000000000600052605160045260246000fdfea26469706673582212203642d3524862fa0bbac45e1b4e314644f6f87c32d5da7967869d65cbfa607e0464736f6c63430008180033",
  "linkReferences": {},
  "deployedLinkReferences": {}
}