{
  "_format": "hh-sol-artifact-1",
  "contractName": "SecondaryMarketplace",
  "sourceName": "contracts/SecondaryMarketplace.sol",
  "abi": [
    {
      "inputs": [
        {
          "internalType": "contract Concert",
          "name": "concertContractAddr",
          "type": "address"
        },
        {
          "internalType": "contract Ticket",
          "name": "ticketContractAddr",
          "type": "address"
        },
        {
          "internalType": "contract Marketplace",
          "name": "primaryMarketContractAddr",
          "type": "address"
        }
      ],
      "stateMutability": "nonpayable",
      "type": "constructor"
    },
    {
      "inputs": [
        {
          "internalType": "uint256",
          "name": "ticketId",
          "type": "uint256"
        },
        {
          "internalType": "uint256",
          "name": "concertId",
          "type": "uint256"
        }
      ],
      "name": "buyTicket",
      "outputs": [],
      "stateMutability": "payable",
      "type": "function"
    },
    {
      "inputs": [
        {
          "internalType": "uint256",
          "name": "concertId",
          "type": "uint256"
        }
      ],
      "name": "createSecondaryMarketplace",
      "outputs": [],
      "stateMutability": "nonpayable",
      "type": "function"
    },
    {
      "inputs": [],
      "name": "getAllListedTicketDetailsArray",
      "outputs": [
        {
          "components": [
            {
              "internalType": "uint256",
              "name": "ticketId",
              "type": "uint256"
            },
            {
              "internalType": "uint256",
              "name": "concertId",
              "type": "uint256"
            },
            {
              "internalType": "address",
              "name": "prevTicketOwner",
              "type": "address"
            },
            {
              "internalType": "uint24",
              "name": "category",
              "type": "uint24"
            },
            {
              "internalType": "uint256",
              "name": "cost",
              "type": "uint256"
            },
            {
              "internalType": "string",
              "name": "passportId",
              "type": "string"
            },
            {
              "internalType": "string",
              "name": "concertName",
              "type": "string"
            },
            {
              "internalType": "string",
              "name": "concertLocation",
              "type": "string"
            },
            {
              "internalType": "uint256",
              "name": "concertDate",
              "type": "uint256"
            },
            {
              "internalType": "address",
              "name": "listedBy",
              "type": "address"
            }
          ],
          "internalType": "struct SecondaryMarketplace.SecondaryMarketTicket[]",
          "name": "",
          "type": "tuple[]"
        }
      ],
      "stateMutability": "view",
      "type": "function"
    },
    {
      "inputs": [],
      "name": "getAllListedTickets",
      "outputs": [
        {
          "internalType": "uint256[]",
          "name": "",
          "type": "uint256[]"
        }
      ],
      "stateMutability": "view",
      "type": "function"
    },
    {
      "inputs": [
        {
          "internalType": "uint256",
          "name": "concertId",
          "type": "uint256"
        }
      ],
      "name": "getListedTicketDetailsArrayFromConcertId",
      "outputs": [
        {
          "components": [
            {
              "internalType": "uint256",
              "name": "ticketId",
              "type": "uint256"
            },
            {
              "internalType": "uint256",
              "name": "concertId",
              "type": "uint256"
            },
            {
              "internalType": "address",
              "name": "prevTicketOwner",
              "type": "address"
            },
            {
              "internalType": "uint24",
              "name": "category",
              "type": "uint24"
            },
            {
              "internalType": "uint256",
              "name": "cost",
              "type": "uint256"
            },
            {
              "internalType": "string",
              "name": "passportId",
              "type": "string"
            }
          ],
          "internalType": "struct Ticket.Ticket[]",
          "name": "",
          "type": "tuple[]"
        }
      ],
      "stateMutability": "view",
      "type": "function"
    },
    {
      "inputs": [
        {
          "internalType": "uint256",
          "name": "concertId",
          "type": "uint256"
        }
      ],
      "name": "getListedTicketsFromConcert",
      "outputs": [
        {
          "internalType": "uint256[]",
          "name": "",
          "type": "uint256[]"
        }
      ],
      "stateMutability": "view",
      "type": "function"
    },
    {
      "inputs": [
        {
          "internalType": "uint256",
          "name": "ticketId",
          "type": "uint256"
        },
        {
          "internalType": "string",
          "name": "passportId",
          "type": "string"
        }
      ],
      "name": "listTicket",
      "outputs": [],
      "stateMutability": "nonpayable",
      "type": "function"
    },
    {
      "inputs": [
        {
          "internalType": "uint256",
          "name": "ticketId",
          "type": "uint256"
        },
        {
          "internalType": "string",
          "name": "passportId",
          "type": "string"
        }
      ],
      "name": "unlistTicket",
      "outputs": [],
      "stateMutability": "nonpayable",
      "type": "function"
    }
  ],
  "bytecode": "0x60806040523480156200001157600080fd5b506040516200355e3803806200355e83398181016040528101906200003791906200021d565b81600260006101000a81548173ffffffffffffffffffffffffffffffffffffffff021916908373ffffffffffffffffffffffffffffffffffffffff16021790555082600360006101000a81548173ffffffffffffffffffffffffffffffffffffffff021916908373ffffffffffffffffffffffffffffffffffffffff16021790555080600460006101000a81548173ffffffffffffffffffffffffffffffffffffffff021916908373ffffffffffffffffffffffffffffffffffffffff1602179055506101f46005819055506101f460068190555050505062000279565b600080fd5b600073ffffffffffffffffffffffffffffffffffffffff82169050919050565b600062000147826200011a565b9050919050565b60006200015b826200013a565b9050919050565b6200016d816200014e565b81146200017957600080fd5b50565b6000815190506200018d8162000162565b92915050565b6000620001a0826200013a565b9050919050565b620001b28162000193565b8114620001be57600080fd5b50565b600081519050620001d281620001a7565b92915050565b6000620001e5826200013a565b9050919050565b620001f781620001d8565b81146200020357600080fd5b50565b6000815190506200021781620001ec565b92915050565b60008060006060848603121562000239576200023862000115565b5b600062000249868287016200017c565b93505060206200025c86828701620001c1565b92505060406200026f8682870162000206565b9150509250925092565b6132d580620002896000396000f3fe60806040526004361061007b5760003560e01c8063c1f7f75c1161004e578063c1f7f75c1461012d578063d080b00014610156578063d41dfd5e14610181578063d66e16bd146101aa5761007b565b8063298ec208146100805780632e4e5dd41461009c57806359d033ff146100c5578063b7c15d1614610102575b600080fd5b61009a6004803603810190610095919061203d565b6101e7565b005b3480156100a857600080fd5b506100c360048036038101906100be91906121c3565b610937565b005b3480156100d157600080fd5b506100ec60048036038101906100e7919061221f565b610e67565b6040516100f99190612484565b60405180910390f35b34801561010e57600080fd5b50610117610fd2565b6040516101249190612650565b60405180910390f35b34801561013957600080fd5b50610154600480360381019061014f91906121c3565b61135b565b005b34801561016257600080fd5b5061016b6118c7565b6040516101789190612721565b60405180910390f35b34801561018d57600080fd5b506101a860048036038101906101a3919061221f565b61191f565b005b3480156101b657600080fd5b506101d160048036038101906101cc919061221f565b611cac565b6040516101de9190612721565b60405180910390f35b80600360009054906101000a900473ffffffffffffffffffffffffffffffffffffffff1673ffffffffffffffffffffffffffffffffffffffff166369c1e40b826040518263ffffffff1660e01b81526004016102439190612752565b602060405180830381865afa158015610260573d6000803e3d6000fd5b505050506040513d601f19601f8201168201806040525081019061028491906127a5565b6102c3576040517f08c379a00000000000000000000000000000000000000000000000000000000081526004016102ba9061282f565b60405180910390fd5b600260048111156102d7576102d661284f565b5b600360009054906101000a900473ffffffffffffffffffffffffffffffffffffffff1673ffffffffffffffffffffffffffffffffffffffff1663b7e1eff6836040518263ffffffff1660e01b81526004016103329190612752565b602060405180830381865afa15801561034f573d6000803e3d6000fd5b505050506040513d601f19601f8201168201806040525081019061037391906128a3565b60048111156103855761038461284f565b5b146103c5576040517f08c379a00000000000000000000000000000000000000000000000000000000081526004016103bc9061291c565b60405180910390fd5b600260009054906101000a900473ffffffffffffffffffffffffffffffffffffffff1673ffffffffffffffffffffffffffffffffffffffff1663b8fab085846040518263ffffffff1660e01b81526004016104209190612752565b602060405180830381865afa15801561043d573d6000803e3d6000fd5b505050506040513d601f19601f8201168201806040525081019061046191906127a5565b6104a0576040517f08c379a000000000000000000000000000000000000000000000000000000000815260040161049790612988565b60405180910390fd5b3373ffffffffffffffffffffffffffffffffffffffff16600260009054906101000a900473ffffffffffffffffffffffffffffffffffffffff1673ffffffffffffffffffffffffffffffffffffffff1663c41a360a856040518263ffffffff1660e01b81526004016105129190612752565b602060405180830381865afa15801561052f573d6000803e3d6000fd5b505050506040513d601f19601f8201168201806040525081019061055391906129d4565b73ffffffffffffffffffffffffffffffffffffffff16036105a9576040517f08c379a00000000000000000000000000000000000000000000000000000000081526004016105a090612a73565b60405180910390fd5b6000600260009054906101000a900473ffffffffffffffffffffffffffffffffffffffff1673ffffffffffffffffffffffffffffffffffffffff16630dfb9661856040518263ffffffff1660e01b81526004016106069190612752565b602060405180830381865afa158015610623573d6000803e3d6000fd5b505050506040513d601f19601f820116820180604052508101906106479190612aa8565b9050600554816106579190612b04565b341015610699576040517f08c379a000000000000000000000000000000000000000000000000000000000815260040161069090612b84565b60405180910390fd5b6000600554826106a99190612b04565b346106b49190612ba4565b90503373ffffffffffffffffffffffffffffffffffffffff166108fc829081150290604051600060405180830381858888f193505050501580156106fc573d6000803e3d6000fd5b506000600260009054906101000a900473ffffffffffffffffffffffffffffffffffffffff1673ffffffffffffffffffffffffffffffffffffffff1663c41a360a876040518263ffffffff1660e01b815260040161075a9190612752565b602060405180830381865afa158015610777573d6000803e3d6000fd5b505050506040513d601f19601f8201168201806040525081019061079b91906129d4565b90508073ffffffffffffffffffffffffffffffffffffffff166108fc600654856107c59190612ba4565b9081150290604051600060405180830381858888f193505050501580156107f0573d6000803e3d6000fd5b50600460009054906101000a900473ffffffffffffffffffffffffffffffffffffffff1673ffffffffffffffffffffffffffffffffffffffff166323b872dd8233896040518463ffffffff1660e01b815260040161085093929190612be7565b600060405180830381600087803b15801561086a57600080fd5b505af115801561087e573d6000803e3d6000fd5b50505050600260009054906101000a900473ffffffffffffffffffffffffffffffffffffffff1673ffffffffffffffffffffffffffffffffffffffff16637c47a7c087336040518363ffffffff1660e01b81526004016108df929190612c1e565b600060405180830381600087803b1580156108f957600080fd5b505af115801561090d573d6000803e3d6000fd5b5050505061092f60008087815260200190815260200160002060010187611df4565b505050505050565b600260009054906101000a900473ffffffffffffffffffffffffffffffffffffffff1673ffffffffffffffffffffffffffffffffffffffff1663ea8b108683836040518363ffffffff1660e01b8152600401610994929190612c80565b602060405180830381865afa1580156109b1573d6000803e3d6000fd5b505050506040513d601f19601f820116820180604052508101906109d59190612aa8565b600360009054906101000a900473ffffffffffffffffffffffffffffffffffffffff1673ffffffffffffffffffffffffffffffffffffffff166369c1e40b826040518263ffffffff1660e01b8152600401610a309190612752565b602060405180830381865afa158015610a4d573d6000803e3d6000fd5b505050506040513d601f19601f82011682018060405250810190610a7191906127a5565b610ab0576040517f08c379a0000000000000000000000000000000000000000000000000000000008152600401610aa79061282f565b60405180910390fd5b60026004811115610ac457610ac361284f565b5b600360009054906101000a900473ffffffffffffffffffffffffffffffffffffffff1673ffffffffffffffffffffffffffffffffffffffff1663b7e1eff6836040518263ffffffff1660e01b8152600401610b1f9190612752565b602060405180830381865afa158015610b3c573d6000803e3d6000fd5b505050506040513d601f19601f82011682018060405250810190610b6091906128a3565b6004811115610b7257610b7161284f565b5b14610bb2576040517f08c379a0000000000000000000000000000000000000000000000000000000008152600401610ba99061291c565b60405180910390fd5b600260009054906101000a900473ffffffffffffffffffffffffffffffffffffffff1673ffffffffffffffffffffffffffffffffffffffff1663b8fab085846040518263ffffffff1660e01b8152600401610c0d9190612752565b602060405180830381865afa158015610c2a573d6000803e3d6000fd5b505050506040513d601f19601f82011682018060405250810190610c4e91906127a5565b610c8d576040517f08c379a0000000000000000000000000000000000000000000000000000000008152600401610c8490612988565b60405180910390fd5b3373ffffffffffffffffffffffffffffffffffffffff16600260009054906101000a900473ffffffffffffffffffffffffffffffffffffffff1673ffffffffffffffffffffffffffffffffffffffff1663c41a360a856040518263ffffffff1660e01b8152600401610cff9190612752565b602060405180830381865afa158015610d1c573d6000803e3d6000fd5b505050506040513d601f19601f82011682018060405250810190610d4091906129d4565b73ffffffffffffffffffffffffffffffffffffffff1614610d96576040517f08c379a0000000000000000000000000000000000000000000000000000000008152600401610d8d90612cfc565b60405180910390fd5b6000600260009054906101000a900473ffffffffffffffffffffffffffffffffffffffff1673ffffffffffffffffffffffffffffffffffffffff1663ea8b108685856040518363ffffffff1660e01b8152600401610df5929190612c80565b602060405180830381865afa158015610e12573d6000803e3d6000fd5b505050506040513d601f19601f82011682018060405250810190610e369190612aa8565b9050610e5660008083815260200190815260200160002060010185611df4565b610e61600185611df4565b50505050565b60606000610e7483611cac565b905060008151905060008167ffffffffffffffff811115610e9857610e97612098565b5b604051908082528060200260200182016040528015610ed157816020015b610ebe611eb4565b815260200190600190039081610eb65790505b50905060005b8351811015610fc657600260009054906101000a900473ffffffffffffffffffffffffffffffffffffffff1673ffffffffffffffffffffffffffffffffffffffff16631981e224858381518110610f3157610f30612d1c565b5b60200260200101516040518263ffffffff1660e01b8152600401610f559190612752565b600060405180830381865afa158015610f72573d6000803e3d6000fd5b505050506040513d6000823e3d601f19601f82011682018060405250810190610f9b9190612ead565b828281518110610fae57610fad612d1c565b5b60200260200101819052508080600101915050610ed7565b50809350505050919050565b60606000610fde6118c7565b90506000815167ffffffffffffffff811115610ffd57610ffc612098565b5b60405190808252806020026020018201604052801561103657816020015b611023611f05565b81526020019060019003908161101b5790505b50905060005b8251811015611352576000600260009054906101000a900473ffffffffffffffffffffffffffffffffffffffff1673ffffffffffffffffffffffffffffffffffffffff16631981e22485848151811061109857611097612d1c565b5b60200260200101516040518263ffffffff1660e01b81526004016110bc9190612752565b600060405180830381865afa1580156110d9573d6000803e3d6000fd5b505050506040513d6000823e3d601f19601f820116820180604052508101906111029190612ead565b90506000600360009054906101000a900473ffffffffffffffffffffffffffffffffffffffff1673ffffffffffffffffffffffffffffffffffffffff166309db9ab883602001516040518263ffffffff1660e01b81526004016111659190612752565b600060405180830381865afa158015611182573d6000803e3d6000fd5b505050506040513d6000823e3d601f19601f820116820180604052508101906111ab91906131bb565b905060008260000151905060008360200151905060008460400151905060008560600151905060008660800151905060008760a00151905060008760200151905060008860400151905060008960a0015190506000600260009054906101000a900473ffffffffffffffffffffffffffffffffffffffff1673ffffffffffffffffffffffffffffffffffffffff1663c41a360a8b6040518263ffffffff1660e01b815260040161125b9190612752565b602060405180830381865afa158015611278573d6000803e3d6000fd5b505050506040513d601f19601f8201168201806040525081019061129c91906129d4565b905060006040518061014001604052808c81526020018b81526020018a73ffffffffffffffffffffffffffffffffffffffff1681526020018962ffffff1681526020018881526020018781526020018681526020018581526020018481526020018373ffffffffffffffffffffffffffffffffffffffff168152509050808f8f8151811061132d5761132c612d1c565b5b602002602001018190525050505050505050505050505050808060010191505061103c565b50809250505090565b600260009054906101000a900473ffffffffffffffffffffffffffffffffffffffff1673ffffffffffffffffffffffffffffffffffffffff1663ea8b108683836040518363ffffffff1660e01b81526004016113b8929190612c80565b602060405180830381865afa1580156113d5573d6000803e3d6000fd5b505050506040513d601f19601f820116820180604052508101906113f99190612aa8565b600360009054906101000a900473ffffffffffffffffffffffffffffffffffffffff1673ffffffffffffffffffffffffffffffffffffffff166369c1e40b826040518263ffffffff1660e01b81526004016114549190612752565b602060405180830381865afa158015611471573d6000803e3d6000fd5b505050506040513d601f19601f8201168201806040525081019061149591906127a5565b6114d4576040517f08c379a00000000000000000000000000000000000000000000000000000000081526004016114cb9061282f565b60405180910390fd5b600260048111156114e8576114e761284f565b5b600360009054906101000a900473ffffffffffffffffffffffffffffffffffffffff1673ffffffffffffffffffffffffffffffffffffffff1663b7e1eff6836040518263ffffffff1660e01b81526004016115439190612752565b602060405180830381865afa158015611560573d6000803e3d6000fd5b505050506040513d601f19601f8201168201806040525081019061158491906128a3565b60048111156115965761159561284f565b5b146115d6576040517f08c379a00000000000000000000000000000000000000000000000000000000081526004016115cd9061291c565b60405180910390fd5b600260009054906101000a900473ffffffffffffffffffffffffffffffffffffffff1673ffffffffffffffffffffffffffffffffffffffff1663b8fab085846040518263ffffffff1660e01b81526004016116319190612752565b602060405180830381865afa15801561164e573d6000803e3d6000fd5b505050506040513d601f19601f8201168201806040525081019061167291906127a5565b6116b1576040517f08c379a00000000000000000000000000000000000000000000000000000000081526004016116a890612988565b60405180910390fd5b3373ffffffffffffffffffffffffffffffffffffffff16600260009054906101000a900473ffffffffffffffffffffffffffffffffffffffff1673ffffffffffffffffffffffffffffffffffffffff1663c41a360a856040518263ffffffff1660e01b81526004016117239190612752565b602060405180830381865afa158015611740573d6000803e3d6000fd5b505050506040513d601f19601f8201168201806040525081019061176491906129d4565b73ffffffffffffffffffffffffffffffffffffffff16146117ba576040517f08c379a00000000000000000000000000000000000000000000000000000000081526004016117b190612cfc565b60405180910390fd5b6000600260009054906101000a900473ffffffffffffffffffffffffffffffffffffffff1673ffffffffffffffffffffffffffffffffffffffff1663ea8b108685856040518363ffffffff1660e01b8152600401611819929190612c80565b602060405180830381865afa158015611836573d6000803e3d6000fd5b505050506040513d601f19601f8201168201806040525081019061185a9190612aa8565b9050600080828152602001908152602001600020600101849080600181540180825580915050600190039060005260206000200160009091909190915055600184908060018154018082558091505060019003906000526020600020016000909190919091505550505050565b6060600180548060200260200160405190810160405280929190818152602001828054801561191557602002820191906000526020600020905b815481526020019060010190808311611901575b5050505050905090565b80600360009054906101000a900473ffffffffffffffffffffffffffffffffffffffff1673ffffffffffffffffffffffffffffffffffffffff166369c1e40b826040518263ffffffff1660e01b815260040161197b9190612752565b602060405180830381865afa158015611998573d6000803e3d6000fd5b505050506040513d601f19601f820116820180604052508101906119bc91906127a5565b6119fb576040517f08c379a00000000000000000000000000000000000000000000000000000000081526004016119f29061282f565b60405180910390fd5b60026004811115611a0f57611a0e61284f565b5b600360009054906101000a900473ffffffffffffffffffffffffffffffffffffffff1673ffffffffffffffffffffffffffffffffffffffff1663b7e1eff6836040518263ffffffff1660e01b8152600401611a6a9190612752565b602060405180830381865afa158015611a87573d6000803e3d6000fd5b505050506040513d601f19601f82011682018060405250810190611aab91906128a3565b6004811115611abd57611abc61284f565b5b14611afd576040517f08c379a0000000000000000000000000000000000000000000000000000000008152600401611af49061291c565b60405180910390fd5b600360009054906101000a900473ffffffffffffffffffffffffffffffffffffffff1673ffffffffffffffffffffffffffffffffffffffff1663893d20e86040518163ffffffff1660e01b8152600401602060405180830381865afa158015611b6a573d6000803e3d6000fd5b505050506040513d601f19601f82011682018060405250810190611b8e91906129d4565b73ffffffffffffffffffffffffffffffffffffffff163373ffffffffffffffffffffffffffffffffffffffff1614611bfb576040517f08c379a0000000000000000000000000000000000000000000000000000000008152600401611bf290613250565b60405180910390fd5b6060600060405180604001604052803373ffffffffffffffffffffffffffffffffffffffff1681526020018381525090508060008086815260200190815260200160002060008201518160000160006101000a81548173ffffffffffffffffffffffffffffffffffffffff021916908373ffffffffffffffffffffffffffffffffffffffff1602179055506020820151816001019080519060200190611ca2929190611f89565b5090505050505050565b6060600360009054906101000a900473ffffffffffffffffffffffffffffffffffffffff1673ffffffffffffffffffffffffffffffffffffffff166369c1e40b836040518263ffffffff1660e01b8152600401611d099190612752565b602060405180830381865afa158015611d26573d6000803e3d6000fd5b505050506040513d601f19601f82011682018060405250810190611d4a91906127a5565b611d89576040517f08c379a0000000000000000000000000000000000000000000000000000000008152600401611d809061282f565b60405180910390fd5b600080838152602001908152602001600020600101805480602002602001604051908101604052809291908181526020018280548015611de857602002820191906000526020600020905b815481526020019060010190808311611dd4575b50505050509050919050565b60005b8280549050811015611eaf5781838281548110611e1757611e16612d1c565b5b906000526020600020015403611ea2578260018480549050611e399190612ba4565b81548110611e4a57611e49612d1c565b5b9060005260206000200154838281548110611e6857611e67612d1c565b5b906000526020600020018190555082805480611e8757611e86613270565b5b60019003818190600052602060002001600090559055611eaf565b8080600101915050611df7565b505050565b6040518060c001604052806000815260200160008152602001600073ffffffffffffffffffffffffffffffffffffffff168152602001600062ffffff16815260200160008152602001606081525090565b6040518061014001604052806000815260200160008152602001600073ffffffffffffffffffffffffffffffffffffffff168152602001600062ffffff1681526020016000815260200160608152602001606081526020016060815260200160008152602001600073ffffffffffffffffffffffffffffffffffffffff1681525090565b828054828255906000526020600020908101928215611fc5579160200282015b82811115611fc4578251825591602001919060010190611fa9565b5b509050611fd29190611fd6565b5090565b5b80821115611fef576000816000905550600101611fd7565b5090565b6000604051905090565b600080fd5b600080fd5b6000819050919050565b61201a81612007565b811461202557600080fd5b50565b60008135905061203781612011565b92915050565b6000806040838503121561205457612053611ffd565b5b600061206285828601612028565b925050602061207385828601612028565b9150509250929050565b600080fd5b600080fd5b6000601f19601f8301169050919050565b7f4e487b7100000000000000000000000000000000000000000000000000000000600052604160045260246000fd5b6120d082612087565b810181811067ffffffffffffffff821117156120ef576120ee612098565b5b80604052505050565b6000612102611ff3565b905061210e82826120c7565b919050565b600067ffffffffffffffff82111561212e5761212d612098565b5b61213782612087565b9050602081019050919050565b82818337600083830152505050565b600061216661216184612113565b6120f8565b90508281526020810184848401111561218257612181612082565b5b61218d848285612144565b509392505050565b600082601f8301126121aa576121a961207d565b5b81356121ba848260208601612153565b91505092915050565b600080604083850312156121da576121d9611ffd565b5b60006121e885828601612028565b925050602083013567ffffffffffffffff81111561220957612208612002565b5b61221585828601612195565b9150509250929050565b60006020828403121561223557612234611ffd565b5b600061224384828501612028565b91505092915050565b600081519050919050565b600082825260208201905092915050565b6000819050602082019050919050565b61228181612007565b82525050565b600073ffffffffffffffffffffffffffffffffffffffff82169050919050565b60006122b282612287565b9050919050565b6122c2816122a7565b82525050565b600062ffffff82169050919050565b6122e0816122c8565b82525050565b600081519050919050565b600082825260208201905092915050565b60005b83811015612320578082015181840152602081019050612305565b60008484015250505050565b6000612337826122e6565b61234181856122f1565b9350612351818560208601612302565b61235a81612087565b840191505092915050565b600060c08301600083015161237d6000860182612278565b5060208301516123906020860182612278565b5060408301516123a360408601826122b9565b5060608301516123b660608601826122d7565b5060808301516123c96080860182612278565b5060a083015184820360a08601526123e1828261232c565b9150508091505092915050565b60006123fa8383612365565b905092915050565b6000602082019050919050565b600061241a8261224c565b6124248185612257565b93508360208202850161243685612268565b8060005b85811015612472578484038952815161245385826123ee565b945061245e83612402565b925060208a0199505060018101905061243a565b50829750879550505050505092915050565b6000602082019050818103600083015261249e818461240f565b905092915050565b600081519050919050565b600082825260208201905092915050565b6000819050602082019050919050565b6000610140830160008301516124eb6000860182612278565b5060208301516124fe6020860182612278565b50604083015161251160408601826122b9565b50606083015161252460608601826122d7565b5060808301516125376080860182612278565b5060a083015184820360a086015261254f828261232c565b91505060c083015184820360c0860152612569828261232c565b91505060e083015184820360e0860152612583828261232c565b91505061010083015161259a610100860182612278565b506101208301516125af6101208601826122b9565b508091505092915050565b60006125c683836124d2565b905092915050565b6000602082019050919050565b60006125e6826124a6565b6125f081856124b1565b935083602082028501612602856124c2565b8060005b8581101561263e578484038952815161261f85826125ba565b945061262a836125ce565b925060208a01995050600181019050612606565b50829750879550505050505092915050565b6000602082019050818103600083015261266a81846125db565b905092915050565b600081519050919050565b600082825260208201905092915050565b6000819050602082019050919050565b60006126aa8383612278565b60208301905092915050565b6000602082019050919050565b60006126ce82612672565b6126d8818561267d565b93506126e38361268e565b8060005b838110156127145781516126fb888261269e565b9750612706836126b6565b9250506001810190506126e7565b5085935050505092915050565b6000602082019050818103600083015261273b81846126c3565b905092915050565b61274c81612007565b82525050565b60006020820190506127676000830184612743565b92915050565b60008115159050919050565b6127828161276d565b811461278d57600080fd5b50565b60008151905061279f81612779565b92915050565b6000602082840312156127bb576127ba611ffd565b5b60006127c984828501612790565b91505092915050565b600082825260208201905092915050565b7f436f6e6365727420646f6573206e6f7420657869737400000000000000000000600082015250565b60006128196016836127d2565b9150612824826127e3565b602082019050919050565b600060208201905081810360008301526128488161280c565b9050919050565b7f4e487b7100000000000000000000000000000000000000000000000000000000600052602160045260246000fd5b6005811061288b57600080fd5b50565b60008151905061289d8161287e565b92915050565b6000602082840312156128b9576128b8611ffd565b5b60006128c78482850161288e565b91505092915050565b7f4d61726b6574706c616365206e6f74206f70656e000000000000000000000000600082015250565b60006129066014836127d2565b9150612911826128d0565b602082019050919050565b60006020820190508181036000830152612935816128f9565b9050919050565b7f5469636b657420697320696e76616c6964000000000000000000000000000000600082015250565b60006129726011836127d2565b915061297d8261293c565b602082019050919050565b600060208201905081810360008301526129a181612965565b9050919050565b6129b1816122a7565b81146129bc57600080fd5b50565b6000815190506129ce816129a8565b92915050565b6000602082840312156129ea576129e9611ffd565b5b60006129f8848285016129bf565b91505092915050565b7f4f776e65722063616e6e6f7420627579206f776e206c6973746564207469636b60008201527f6574000000000000000000000000000000000000000000000000000000000000602082015250565b6000612a5d6022836127d2565b9150612a6882612a01565b604082019050919050565b60006020820190508181036000830152612a8c81612a50565b9050919050565b600081519050612aa281612011565b92915050565b600060208284031215612abe57612abd611ffd565b5b6000612acc84828501612a93565b91505092915050565b7f4e487b7100000000000000000000000000000000000000000000000000000000600052601160045260246000fd5b6000612b0f82612007565b9150612b1a83612007565b9250828201905080821115612b3257612b31612ad5565b5b92915050565b7f496e73756666696369656e7420616d6f756e7420746f20627579000000000000600082015250565b6000612b6e601a836127d2565b9150612b7982612b38565b602082019050919050565b60006020820190508181036000830152612b9d81612b61565b9050919050565b6000612baf82612007565b9150612bba83612007565b9250828203905081811115612bd257612bd1612ad5565b5b92915050565b612be1816122a7565b82525050565b6000606082019050612bfc6000830186612bd8565b612c096020830185612bd8565b612c166040830184612743565b949350505050565b6000604082019050612c336000830185612743565b612c406020830184612bd8565b9392505050565b6000612c52826122e6565b612c5c81856127d2565b9350612c6c818560208601612302565b612c7581612087565b840191505092915050565b6000604082019050612c956000830185612743565b8181036020830152612ca78184612c47565b90509392505050565b7f4e6f74206f776e6572206f66207469636b657400000000000000000000000000600082015250565b6000612ce66013836127d2565b9150612cf182612cb0565b602082019050919050565b60006020820190508181036000830152612d1581612cd9565b9050919050565b7f4e487b7100000000000000000000000000000000000000000000000000000000600052603260045260246000fd5b600080fd5b600080fd5b612d5e816122c8565b8114612d6957600080fd5b50565b600081519050612d7b81612d55565b92915050565b6000612d94612d8f84612113565b6120f8565b905082815260208101848484011115612db057612daf612082565b5b612dbb848285612302565b509392505050565b600082601f830112612dd857612dd761207d565b5b8151612de8848260208601612d81565b91505092915050565b600060c08284031215612e0757612e06612d4b565b5b612e1160c06120f8565b90506000612e2184828501612a93565b6000830152506020612e3584828501612a93565b6020830152506040612e49848285016129bf565b6040830152506060612e5d84828501612d6c565b6060830152506080612e7184828501612a93565b60808301525060a082015167ffffffffffffffff811115612e9557612e94612d50565b5b612ea184828501612dc3565b60a08301525092915050565b600060208284031215612ec357612ec2611ffd565b5b600082015167ffffffffffffffff811115612ee157612ee0612002565b5b612eed84828501612df1565b91505092915050565b600067ffffffffffffffff821115612f1157612f10612098565b5b602082029050602081019050919050565b600080fd5b6000612f3a612f3584612ef6565b6120f8565b90508083825260208201905060208402830185811115612f5d57612f5c612f22565b5b835b81811015612f865780612f728882612a93565b845260208401935050602081019050612f5f565b5050509392505050565b600082601f830112612fa557612fa461207d565b5b8151612fb5848260208601612f27565b91505092915050565b600067ffffffffffffffff821115612fd957612fd8612098565b5b602082029050602081019050919050565b6000612ffd612ff884612fbe565b6120f8565b905080838252602082019050602084028301858111156130205761301f612f22565b5b835b8181101561304957806130358882612d6c565b845260208401935050602081019050613022565b5050509392505050565b600082601f8301126130685761306761207d565b5b8151613078848260208601612fea565b91505092915050565b6000610100828403121561309857613097612d4b565b5b6130a36101006120f8565b905060006130b384828501612a93565b600083015250602082015167ffffffffffffffff8111156130d7576130d6612d50565b5b6130e384828501612dc3565b602083015250604082015167ffffffffffffffff81111561310757613106612d50565b5b61311384828501612dc3565b604083015250606082015167ffffffffffffffff81111561313757613136612d50565b5b61314384828501612f90565b606083015250608082015167ffffffffffffffff81111561316757613166612d50565b5b61317384828501613053565b60808301525060a061318784828501612a93565b60a08301525060c061319b84828501612a93565b60c08301525060e06131af8482850161288e565b60e08301525092915050565b6000602082840312156131d1576131d0611ffd565b5b600082015167ffffffffffffffff8111156131ef576131ee612002565b5b6131fb84828501613081565b91505092915050565b7f4e6f74206f776e6572206f6620636f6e6365727420636f6e7472616374000000600082015250565b600061323a601d836127d2565b915061324582613204565b602082019050919050565b600060208201905081810360008301526132698161322d565b9050919050565b7f4e487b7100000000000000000000000000000000000000000000000000000000600052603160045260246000fdfea264697066735822122079eb19376bec0e598cc3249169cd40fc9211f7cf8dc2a62463f4bc61d7a4093164736f6c63430008180033",
  "linkReferences": {},
  "deployedLinkReferences": {}
}