{
  "_format": "hh-sol-artifact-1",
  "contractName": "SecondaryMarketplace",
  "sourceName": "contracts/SecondaryMarketplace.sol",
  "abi": [
    {
      "inputs": [
        {
          "internalType": "contract Concert",
          "name": "concertContractAddr",
          "type": "address"
        },
        {
          "internalType": "contract Ticket",
          "name": "ticketContractAddr",
          "type": "address"
        },
        {
          "internalType": "contract Marketplace",
          "name": "primaryMarketContractAddr",
          "type": "address"
        }
      ],
      "stateMutability": "nonpayable",
      "type": "constructor"
    },
    {
      "inputs": [
        {
          "internalType": "uint256",
          "name": "ticketId",
          "type": "uint256"
        },
        {
          "internalType": "uint256",
          "name": "concertId",
          "type": "uint256"
        }
      ],
      "name": "buyTicket",
      "outputs": [],
      "stateMutability": "payable",
      "type": "function"
    },
    {
      "inputs": [
        {
          "internalType": "uint256",
          "name": "concertId",
          "type": "uint256"
        }
      ],
      "name": "createSecondaryMarketplace",
      "outputs": [],
      "stateMutability": "nonpayable",
      "type": "function"
    },
    {
      "inputs": [
        {
          "internalType": "uint256",
          "name": "concertId",
          "type": "uint256"
        }
      ],
      "name": "getListedTicketsFromConcert",
      "outputs": [
        {
          "internalType": "uint256[]",
          "name": "",
          "type": "uint256[]"
        }
      ],
      "stateMutability": "view",
      "type": "function"
    },
    {
      "inputs": [
        {
          "internalType": "uint256",
          "name": "ticketId",
          "type": "uint256"
        },
        {
          "internalType": "string",
          "name": "passportId",
          "type": "string"
        }
      ],
      "name": "listTicket",
      "outputs": [],
      "stateMutability": "nonpayable",
      "type": "function"
    },
    {
      "inputs": [
        {
          "internalType": "uint256",
          "name": "ticketId",
          "type": "uint256"
        },
        {
          "internalType": "string",
          "name": "passportId",
          "type": "string"
        }
      ],
      "name": "unlistTicket",
      "outputs": [],
      "stateMutability": "nonpayable",
      "type": "function"
    }
  ],
  "bytecode": "0x60806040523480156200001157600080fd5b50604051620025dc380380620025dc83398181016040528101906200003791906200021d565b81600160006101000a81548173ffffffffffffffffffffffffffffffffffffffff021916908373ffffffffffffffffffffffffffffffffffffffff16021790555082600260006101000a81548173ffffffffffffffffffffffffffffffffffffffff021916908373ffffffffffffffffffffffffffffffffffffffff16021790555080600360006101000a81548173ffffffffffffffffffffffffffffffffffffffff021916908373ffffffffffffffffffffffffffffffffffffffff1602179055506101f46004819055506101f460058190555050505062000279565b600080fd5b600073ffffffffffffffffffffffffffffffffffffffff82169050919050565b600062000147826200011a565b9050919050565b60006200015b826200013a565b9050919050565b6200016d816200014e565b81146200017957600080fd5b50565b6000815190506200018d8162000162565b92915050565b6000620001a0826200013a565b9050919050565b620001b28162000193565b8114620001be57600080fd5b50565b600081519050620001d281620001a7565b92915050565b6000620001e5826200013a565b9050919050565b620001f781620001d8565b81146200020357600080fd5b50565b6000815190506200021781620001ec565b92915050565b60008060006060848603121562000239576200023862000115565b5b600062000249868287016200017c565b93505060206200025c86828701620001c1565b92505060406200026f8682870162000206565b9150509250925092565b61235380620002896000396000f3fe60806040526004361061004a5760003560e01c8063298ec2081461004f5780632e4e5dd41461006b578063c1f7f75c14610094578063d41dfd5e146100bd578063d66e16bd146100e6575b600080fd5b61006960048036038101906100649190611924565b610123565b005b34801561007757600080fd5b50610092600480360381019061008d9190611aaa565b610873565b005b3480156100a057600080fd5b506100bb60048036038101906100b69190611aaa565b610d98565b005b3480156100c957600080fd5b506100e460048036038101906100df9190611b06565b6112db565b005b3480156100f257600080fd5b5061010d60048036038101906101089190611b06565b611668565b60405161011a9190611bf1565b60405180910390f35b80600260009054906101000a900473ffffffffffffffffffffffffffffffffffffffff1673ffffffffffffffffffffffffffffffffffffffff166369c1e40b826040518263ffffffff1660e01b815260040161017f9190611c22565b602060405180830381865afa15801561019c573d6000803e3d6000fd5b505050506040513d601f19601f820116820180604052508101906101c09190611c75565b6101ff576040517f08c379a00000000000000000000000000000000000000000000000000000000081526004016101f690611cff565b60405180910390fd5b6002600481111561021357610212611d1f565b5b600260009054906101000a900473ffffffffffffffffffffffffffffffffffffffff1673ffffffffffffffffffffffffffffffffffffffff1663b7e1eff6836040518263ffffffff1660e01b815260040161026e9190611c22565b602060405180830381865afa15801561028b573d6000803e3d6000fd5b505050506040513d601f19601f820116820180604052508101906102af9190611d73565b60048111156102c1576102c0611d1f565b5b14610301576040517f08c379a00000000000000000000000000000000000000000000000000000000081526004016102f890611dec565b60405180910390fd5b600160009054906101000a900473ffffffffffffffffffffffffffffffffffffffff1673ffffffffffffffffffffffffffffffffffffffff1663b8fab085846040518263ffffffff1660e01b815260040161035c9190611c22565b602060405180830381865afa158015610379573d6000803e3d6000fd5b505050506040513d601f19601f8201168201806040525081019061039d9190611c75565b6103dc576040517f08c379a00000000000000000000000000000000000000000000000000000000081526004016103d390611e58565b60405180910390fd5b3373ffffffffffffffffffffffffffffffffffffffff16600160009054906101000a900473ffffffffffffffffffffffffffffffffffffffff1673ffffffffffffffffffffffffffffffffffffffff1663c41a360a856040518263ffffffff1660e01b815260040161044e9190611c22565b602060405180830381865afa15801561046b573d6000803e3d6000fd5b505050506040513d601f19601f8201168201806040525081019061048f9190611ed6565b73ffffffffffffffffffffffffffffffffffffffff16036104e5576040517f08c379a00000000000000000000000000000000000000000000000000000000081526004016104dc90611f75565b60405180910390fd5b6000600160009054906101000a900473ffffffffffffffffffffffffffffffffffffffff1673ffffffffffffffffffffffffffffffffffffffff16630dfb9661856040518263ffffffff1660e01b81526004016105429190611c22565b602060405180830381865afa15801561055f573d6000803e3d6000fd5b505050506040513d601f19601f820116820180604052508101906105839190611faa565b9050600454816105939190612006565b3410156105d5576040517f08c379a00000000000000000000000000000000000000000000000000000000081526004016105cc90612086565b60405180910390fd5b6000600454826105e59190612006565b346105f091906120a6565b90503373ffffffffffffffffffffffffffffffffffffffff166108fc829081150290604051600060405180830381858888f19350505050158015610638573d6000803e3d6000fd5b506000600160009054906101000a900473ffffffffffffffffffffffffffffffffffffffff1673ffffffffffffffffffffffffffffffffffffffff1663c41a360a876040518263ffffffff1660e01b81526004016106969190611c22565b602060405180830381865afa1580156106b3573d6000803e3d6000fd5b505050506040513d601f19601f820116820180604052508101906106d79190611ed6565b90508073ffffffffffffffffffffffffffffffffffffffff166108fc6005548561070191906120a6565b9081150290604051600060405180830381858888f1935050505015801561072c573d6000803e3d6000fd5b50600360009054906101000a900473ffffffffffffffffffffffffffffffffffffffff1673ffffffffffffffffffffffffffffffffffffffff166323b872dd8233896040518463ffffffff1660e01b815260040161078c939291906120e9565b600060405180830381600087803b1580156107a657600080fd5b505af11580156107ba573d6000803e3d6000fd5b50505050600160009054906101000a900473ffffffffffffffffffffffffffffffffffffffff1673ffffffffffffffffffffffffffffffffffffffff16637c47a7c087336040518363ffffffff1660e01b815260040161081b929190612120565b600060405180830381600087803b15801561083557600080fd5b505af1158015610849573d6000803e3d6000fd5b5050505061086b600080878152602001908152602001600020600101876117b0565b505050505050565b600160009054906101000a900473ffffffffffffffffffffffffffffffffffffffff1673ffffffffffffffffffffffffffffffffffffffff1663ea8b108683836040518363ffffffff1660e01b81526004016108d09291906121b7565b602060405180830381865afa1580156108ed573d6000803e3d6000fd5b505050506040513d601f19601f820116820180604052508101906109119190611faa565b600260009054906101000a900473ffffffffffffffffffffffffffffffffffffffff1673ffffffffffffffffffffffffffffffffffffffff166369c1e40b826040518263ffffffff1660e01b815260040161096c9190611c22565b602060405180830381865afa158015610989573d6000803e3d6000fd5b505050506040513d601f19601f820116820180604052508101906109ad9190611c75565b6109ec576040517f08c379a00000000000000000000000000000000000000000000000000000000081526004016109e390611cff565b60405180910390fd5b60026004811115610a00576109ff611d1f565b5b600260009054906101000a900473ffffffffffffffffffffffffffffffffffffffff1673ffffffffffffffffffffffffffffffffffffffff1663b7e1eff6836040518263ffffffff1660e01b8152600401610a5b9190611c22565b602060405180830381865afa158015610a78573d6000803e3d6000fd5b505050506040513d601f19601f82011682018060405250810190610a9c9190611d73565b6004811115610aae57610aad611d1f565b5b14610aee576040517f08c379a0000000000000000000000000000000000000000000000000000000008152600401610ae590611dec565b60405180910390fd5b600160009054906101000a900473ffffffffffffffffffffffffffffffffffffffff1673ffffffffffffffffffffffffffffffffffffffff1663b8fab085846040518263ffffffff1660e01b8152600401610b499190611c22565b602060405180830381865afa158015610b66573d6000803e3d6000fd5b505050506040513d601f19601f82011682018060405250810190610b8a9190611c75565b610bc9576040517f08c379a0000000000000000000000000000000000000000000000000000000008152600401610bc090611e58565b60405180910390fd5b3373ffffffffffffffffffffffffffffffffffffffff16600160009054906101000a900473ffffffffffffffffffffffffffffffffffffffff1673ffffffffffffffffffffffffffffffffffffffff1663c41a360a856040518263ffffffff1660e01b8152600401610c3b9190611c22565b602060405180830381865afa158015610c58573d6000803e3d6000fd5b505050506040513d601f19601f82011682018060405250810190610c7c9190611ed6565b73ffffffffffffffffffffffffffffffffffffffff1614610cd2576040517f08c379a0000000000000000000000000000000000000000000000000000000008152600401610cc990612233565b60405180910390fd5b6000600160009054906101000a900473ffffffffffffffffffffffffffffffffffffffff1673ffffffffffffffffffffffffffffffffffffffff1663ea8b108685856040518363ffffffff1660e01b8152600401610d319291906121b7565b602060405180830381865afa158015610d4e573d6000803e3d6000fd5b505050506040513d601f19601f82011682018060405250810190610d729190611faa565b9050610d92600080838152602001908152602001600020600101856117b0565b50505050565b600160009054906101000a900473ffffffffffffffffffffffffffffffffffffffff1673ffffffffffffffffffffffffffffffffffffffff1663ea8b108683836040518363ffffffff1660e01b8152600401610df59291906121b7565b602060405180830381865afa158015610e12573d6000803e3d6000fd5b505050506040513d601f19601f82011682018060405250810190610e369190611faa565b600260009054906101000a900473ffffffffffffffffffffffffffffffffffffffff1673ffffffffffffffffffffffffffffffffffffffff166369c1e40b826040518263ffffffff1660e01b8152600401610e919190611c22565b602060405180830381865afa158015610eae573d6000803e3d6000fd5b505050506040513d601f19601f82011682018060405250810190610ed29190611c75565b610f11576040517f08c379a0000000000000000000000000000000000000000000000000000000008152600401610f0890611cff565b60405180910390fd5b60026004811115610f2557610f24611d1f565b5b600260009054906101000a900473ffffffffffffffffffffffffffffffffffffffff1673ffffffffffffffffffffffffffffffffffffffff1663b7e1eff6836040518263ffffffff1660e01b8152600401610f809190611c22565b602060405180830381865afa158015610f9d573d6000803e3d6000fd5b505050506040513d601f19601f82011682018060405250810190610fc19190611d73565b6004811115610fd357610fd2611d1f565b5b14611013576040517f08c379a000000000000000000000000000000000000000000000000000000000815260040161100a90611dec565b60405180910390fd5b600160009054906101000a900473ffffffffffffffffffffffffffffffffffffffff1673ffffffffffffffffffffffffffffffffffffffff1663b8fab085846040518263ffffffff1660e01b815260040161106e9190611c22565b602060405180830381865afa15801561108b573d6000803e3d6000fd5b505050506040513d601f19601f820116820180604052508101906110af9190611c75565b6110ee576040517f08c379a00000000000000000000000000000000000000000000000000000000081526004016110e590611e58565b60405180910390fd5b3373ffffffffffffffffffffffffffffffffffffffff16600160009054906101000a900473ffffffffffffffffffffffffffffffffffffffff1673ffffffffffffffffffffffffffffffffffffffff1663c41a360a856040518263ffffffff1660e01b81526004016111609190611c22565b602060405180830381865afa15801561117d573d6000803e3d6000fd5b505050506040513d601f19601f820116820180604052508101906111a19190611ed6565b73ffffffffffffffffffffffffffffffffffffffff16146111f7576040517f08c379a00000000000000000000000000000000000000000000000000000000081526004016111ee90612233565b60405180910390fd5b6000600160009054906101000a900473ffffffffffffffffffffffffffffffffffffffff1673ffffffffffffffffffffffffffffffffffffffff1663ea8b108685856040518363ffffffff1660e01b81526004016112569291906121b7565b602060405180830381865afa158015611273573d6000803e3d6000fd5b505050506040513d601f19601f820116820180604052508101906112979190611faa565b905060008082815260200190815260200160002060010184908060018154018082558091505060019003906000526020600020016000909190919091505550505050565b80600260009054906101000a900473ffffffffffffffffffffffffffffffffffffffff1673ffffffffffffffffffffffffffffffffffffffff166369c1e40b826040518263ffffffff1660e01b81526004016113379190611c22565b602060405180830381865afa158015611354573d6000803e3d6000fd5b505050506040513d601f19601f820116820180604052508101906113789190611c75565b6113b7576040517f08c379a00000000000000000000000000000000000000000000000000000000081526004016113ae90611cff565b60405180910390fd5b600260048111156113cb576113ca611d1f565b5b600260009054906101000a900473ffffffffffffffffffffffffffffffffffffffff1673ffffffffffffffffffffffffffffffffffffffff1663b7e1eff6836040518263ffffffff1660e01b81526004016114269190611c22565b602060405180830381865afa158015611443573d6000803e3d6000fd5b505050506040513d601f19601f820116820180604052508101906114679190611d73565b600481111561147957611478611d1f565b5b146114b9576040517f08c379a00000000000000000000000000000000000000000000000000000000081526004016114b090611dec565b60405180910390fd5b600260009054906101000a900473ffffffffffffffffffffffffffffffffffffffff1673ffffffffffffffffffffffffffffffffffffffff1663893d20e86040518163ffffffff1660e01b8152600401602060405180830381865afa158015611526573d6000803e3d6000fd5b505050506040513d601f19601f8201168201806040525081019061154a9190611ed6565b73ffffffffffffffffffffffffffffffffffffffff163373ffffffffffffffffffffffffffffffffffffffff16146115b7576040517f08c379a00000000000000000000000000000000000000000000000000000000081526004016115ae9061229f565b60405180910390fd5b6060600060405180604001604052803373ffffffffffffffffffffffffffffffffffffffff1681526020018381525090508060008086815260200190815260200160002060008201518160000160006101000a81548173ffffffffffffffffffffffffffffffffffffffff021916908373ffffffffffffffffffffffffffffffffffffffff160217905550602082015181600101908051906020019061165e929190611870565b5090505050505050565b6060600260009054906101000a900473ffffffffffffffffffffffffffffffffffffffff1673ffffffffffffffffffffffffffffffffffffffff166369c1e40b836040518263ffffffff1660e01b81526004016116c59190611c22565b602060405180830381865afa1580156116e2573d6000803e3d6000fd5b505050506040513d601f19601f820116820180604052508101906117069190611c75565b611745576040517f08c379a000000000000000000000000000000000000000000000000000000000815260040161173c90611cff565b60405180910390fd5b6000808381526020019081526020016000206001018054806020026020016040519081016040528092919081815260200182805480156117a457602002820191906000526020600020905b815481526020019060010190808311611790575b50505050509050919050565b60005b828054905081101561186b57818382815481106117d3576117d26122bf565b5b90600052602060002001540361185e5782600184805490506117f591906120a6565b81548110611806576118056122bf565b5b9060005260206000200154838281548110611824576118236122bf565b5b906000526020600020018190555082805480611843576118426122ee565b5b6001900381819060005260206000200160009055905561186b565b80806001019150506117b3565b505050565b8280548282559060005260206000209081019282156118ac579160200282015b828111156118ab578251825591602001919060010190611890565b5b5090506118b991906118bd565b5090565b5b808211156118d65760008160009055506001016118be565b5090565b6000604051905090565b600080fd5b600080fd5b6000819050919050565b611901816118ee565b811461190c57600080fd5b50565b60008135905061191e816118f8565b92915050565b6000806040838503121561193b5761193a6118e4565b5b60006119498582860161190f565b925050602061195a8582860161190f565b9150509250929050565b600080fd5b600080fd5b6000601f19601f8301169050919050565b7f4e487b7100000000000000000000000000000000000000000000000000000000600052604160045260246000fd5b6119b78261196e565b810181811067ffffffffffffffff821117156119d6576119d561197f565b5b80604052505050565b60006119e96118da565b90506119f582826119ae565b919050565b600067ffffffffffffffff821115611a1557611a1461197f565b5b611a1e8261196e565b9050602081019050919050565b82818337600083830152505050565b6000611a4d611a48846119fa565b6119df565b905082815260208101848484011115611a6957611a68611969565b5b611a74848285611a2b565b509392505050565b600082601f830112611a9157611a90611964565b5b8135611aa1848260208601611a3a565b91505092915050565b60008060408385031215611ac157611ac06118e4565b5b6000611acf8582860161190f565b925050602083013567ffffffffffffffff811115611af057611aef6118e9565b5b611afc85828601611a7c565b9150509250929050565b600060208284031215611b1c57611b1b6118e4565b5b6000611b2a8482850161190f565b91505092915050565b600081519050919050565b600082825260208201905092915050565b6000819050602082019050919050565b611b68816118ee565b82525050565b6000611b7a8383611b5f565b60208301905092915050565b6000602082019050919050565b6000611b9e82611b33565b611ba88185611b3e565b9350611bb383611b4f565b8060005b83811015611be4578151611bcb8882611b6e565b9750611bd683611b86565b925050600181019050611bb7565b5085935050505092915050565b60006020820190508181036000830152611c0b8184611b93565b905092915050565b611c1c816118ee565b82525050565b6000602082019050611c376000830184611c13565b92915050565b60008115159050919050565b611c5281611c3d565b8114611c5d57600080fd5b50565b600081519050611c6f81611c49565b92915050565b600060208284031215611c8b57611c8a6118e4565b5b6000611c9984828501611c60565b91505092915050565b600082825260208201905092915050565b7f436f6e6365727420646f6573206e6f7420657869737400000000000000000000600082015250565b6000611ce9601683611ca2565b9150611cf482611cb3565b602082019050919050565b60006020820190508181036000830152611d1881611cdc565b9050919050565b7f4e487b7100000000000000000000000000000000000000000000000000000000600052602160045260246000fd5b60058110611d5b57600080fd5b50565b600081519050611d6d81611d4e565b92915050565b600060208284031215611d8957611d886118e4565b5b6000611d9784828501611d5e565b91505092915050565b7f4d61726b6574706c616365206e6f74206f70656e000000000000000000000000600082015250565b6000611dd6601483611ca2565b9150611de182611da0565b602082019050919050565b60006020820190508181036000830152611e0581611dc9565b9050919050565b7f5469636b657420697320696e76616c6964000000000000000000000000000000600082015250565b6000611e42601183611ca2565b9150611e4d82611e0c565b602082019050919050565b60006020820190508181036000830152611e7181611e35565b9050919050565b600073ffffffffffffffffffffffffffffffffffffffff82169050919050565b6000611ea382611e78565b9050919050565b611eb381611e98565b8114611ebe57600080fd5b50565b600081519050611ed081611eaa565b92915050565b600060208284031215611eec57611eeb6118e4565b5b6000611efa84828501611ec1565b91505092915050565b7f4f776e65722063616e6e6f7420627579206f776e206c6973746564207469636b60008201527f6574000000000000000000000000000000000000000000000000000000000000602082015250565b6000611f5f602283611ca2565b9150611f6a82611f03565b604082019050919050565b60006020820190508181036000830152611f8e81611f52565b9050919050565b600081519050611fa4816118f8565b92915050565b600060208284031215611fc057611fbf6118e4565b5b6000611fce84828501611f95565b91505092915050565b7f4e487b7100000000000000000000000000000000000000000000000000000000600052601160045260246000fd5b6000612011826118ee565b915061201c836118ee565b925082820190508082111561203457612033611fd7565b5b92915050565b7f496e73756666696369656e7420616d6f756e7420746f20627579000000000000600082015250565b6000612070601a83611ca2565b915061207b8261203a565b602082019050919050565b6000602082019050818103600083015261209f81612063565b9050919050565b60006120b1826118ee565b91506120bc836118ee565b92508282039050818111156120d4576120d3611fd7565b5b92915050565b6120e381611e98565b82525050565b60006060820190506120fe60008301866120da565b61210b60208301856120da565b6121186040830184611c13565b949350505050565b60006040820190506121356000830185611c13565b61214260208301846120da565b9392505050565b600081519050919050565b60005b83811015612172578082015181840152602081019050612157565b60008484015250505050565b600061218982612149565b6121938185611ca2565b93506121a3818560208601612154565b6121ac8161196e565b840191505092915050565b60006040820190506121cc6000830185611c13565b81810360208301526121de818461217e565b90509392505050565b7f4e6f74206f776e6572206f66207469636b657400000000000000000000000000600082015250565b600061221d601383611ca2565b9150612228826121e7565b602082019050919050565b6000602082019050818103600083015261224c81612210565b9050919050565b7f4e6f74206f776e6572206f6620636f6e6365727420636f6e7472616374000000600082015250565b6000612289601d83611ca2565b915061229482612253565b602082019050919050565b600060208201905081810360008301526122b88161227c565b9050919050565b7f4e487b7100000000000000000000000000000000000000000000000000000000600052603260045260246000fd5b7f4e487b7100000000000000000000000000000000000000000000000000000000600052603160045260246000fdfea264697066735822122005c520d2376f5f591a75c45be548f97a98657b4c7d9037df0918b38f0bdadd4d64736f6c63430008180033",
  "linkReferences": {},
  "deployedLinkReferences": {}
}