{
  "_format": "hh-sol-artifact-1",
  "contractName": "Ticket",
  "sourceName": "contracts/Ticket.sol",
  "abi": [
    {
      "inputs": [
        {
          "internalType": "address",
          "name": "_concertAddress",
          "type": "address"
        }
      ],
      "stateMutability": "nonpayable",
      "type": "constructor"
    },
    {
      "anonymous": false,
      "inputs": [
        {
          "indexed": true,
          "internalType": "uint256",
          "name": "ticketId",
          "type": "uint256"
        },
        {
          "indexed": true,
          "internalType": "uint256",
          "name": "concertId",
          "type": "uint256"
        },
        {
          "indexed": false,
          "internalType": "address",
          "name": "owner",
          "type": "address"
        },
        {
          "indexed": false,
          "internalType": "uint24",
          "name": "category",
          "type": "uint24"
        },
        {
          "indexed": false,
          "internalType": "uint256",
          "name": "cost",
          "type": "uint256"
        },
        {
          "indexed": false,
          "internalType": "string",
          "name": "passportId",
          "type": "string"
        }
      ],
      "name": "TicketCreated",
      "type": "event"
    },
    {
      "anonymous": false,
      "inputs": [
        {
          "indexed": true,
          "internalType": "uint256",
          "name": "ticketId",
          "type": "uint256"
        },
        {
          "indexed": true,
          "internalType": "address",
          "name": "oldOwner",
          "type": "address"
        },
        {
          "indexed": true,
          "internalType": "address",
          "name": "newOwner",
          "type": "address"
        },
        {
          "indexed": false,
          "internalType": "uint256",
          "name": "concertId",
          "type": "uint256"
        },
        {
          "indexed": false,
          "internalType": "uint256",
          "name": "timestamp",
          "type": "uint256"
        }
      ],
      "name": "TicketOwnerUpdated",
      "type": "event"
    },
    {
      "inputs": [
        {
          "internalType": "uint256",
          "name": "ticketId",
          "type": "uint256"
        },
        {
          "internalType": "uint256",
          "name": "concertId",
          "type": "uint256"
        },
        {
          "internalType": "address",
          "name": "buyer",
          "type": "address"
        },
        {
          "internalType": "uint24",
          "name": "category",
          "type": "uint24"
        },
        {
          "internalType": "uint256",
          "name": "cost",
          "type": "uint256"
        },
        {
          "internalType": "string",
          "name": "passportId",
          "type": "string"
        }
      ],
      "name": "createTicket",
      "outputs": [],
      "stateMutability": "nonpayable",
      "type": "function"
    },
    {
      "inputs": [
        {
          "internalType": "uint256",
          "name": "ticketId",
          "type": "uint256"
        },
        {
          "internalType": "string",
          "name": "passportId",
          "type": "string"
        }
      ],
      "name": "getConcertIdFromTicketId",
      "outputs": [
        {
          "internalType": "uint256",
          "name": "",
          "type": "uint256"
        }
      ],
      "stateMutability": "view",
      "type": "function"
    },
    {
      "inputs": [
        {
          "internalType": "uint256",
          "name": "ticketId",
          "type": "uint256"
        }
      ],
      "name": "getOwner",
      "outputs": [
        {
          "internalType": "address",
          "name": "",
          "type": "address"
        }
      ],
      "stateMutability": "view",
      "type": "function"
    },
    {
      "inputs": [
        {
          "internalType": "uint256",
          "name": "ticketId",
          "type": "uint256"
        },
        {
          "internalType": "string",
          "name": "passportId",
          "type": "string"
        }
      ],
      "name": "getPreviousTicketOwner",
      "outputs": [
        {
          "internalType": "address",
          "name": "",
          "type": "address"
        }
      ],
      "stateMutability": "view",
      "type": "function"
    },
    {
      "inputs": [
        {
          "internalType": "uint256",
          "name": "ticketId",
          "type": "uint256"
        }
      ],
      "name": "getTicketCost",
      "outputs": [
        {
          "internalType": "uint256",
          "name": "",
          "type": "uint256"
        }
      ],
      "stateMutability": "view",
      "type": "function"
    },
    {
      "inputs": [
        {
          "internalType": "uint256",
          "name": "ticketId",
          "type": "uint256"
        }
      ],
      "name": "getTicketOwner",
      "outputs": [
        {
          "internalType": "address",
          "name": "",
          "type": "address"
        }
      ],
      "stateMutability": "view",
      "type": "function"
    },
    {
      "inputs": [
        {
          "internalType": "uint256",
          "name": "ticketId",
          "type": "uint256"
        }
      ],
      "name": "isValidTicket",
      "outputs": [
        {
          "internalType": "bool",
          "name": "",
          "type": "bool"
        }
      ],
      "stateMutability": "view",
      "type": "function"
    },
    {
      "inputs": [
        {
          "internalType": "uint256",
          "name": "",
          "type": "uint256"
        }
      ],
      "name": "ticketOwners",
      "outputs": [
        {
          "internalType": "address",
          "name": "",
          "type": "address"
        }
      ],
      "stateMutability": "view",
      "type": "function"
    },
    {
      "inputs": [
        {
          "internalType": "uint256",
          "name": "",
          "type": "uint256"
        }
      ],
      "name": "tickets",
      "outputs": [
        {
          "internalType": "uint256",
          "name": "ticketId",
          "type": "uint256"
        },
        {
          "internalType": "uint256",
          "name": "concertId",
          "type": "uint256"
        },
        {
          "internalType": "address",
          "name": "prevTicketOwner",
          "type": "address"
        },
        {
          "internalType": "uint24",
          "name": "category",
          "type": "uint24"
        },
        {
          "internalType": "uint256",
          "name": "cost",
          "type": "uint256"
        },
        {
          "internalType": "string",
          "name": "passportId",
          "type": "string"
        }
      ],
      "stateMutability": "view",
      "type": "function"
    },
    {
      "inputs": [
        {
          "internalType": "uint256",
          "name": "ticketId",
          "type": "uint256"
        },
        {
          "internalType": "address",
          "name": "newOwner",
          "type": "address"
        }
      ],
      "name": "updateTicketOwner",
      "outputs": [],
      "stateMutability": "nonpayable",
      "type": "function"
    },
    {
      "inputs": [
        {
          "internalType": "uint256",
          "name": "ticketId",
          "type": "uint256"
        },
        {
          "internalType": "string",
          "name": "passportId",
          "type": "string"
        }
      ],
      "name": "validateTicket",
      "outputs": [
        {
          "internalType": "bool",
          "name": "",
          "type": "bool"
        }
      ],
      "stateMutability": "view",
      "type": "function"
    }
  ],
  "bytecode": "0x60806040523480156200001157600080fd5b50604051620019de380380620019de8339818101604052810190620000379190620000e8565b806000806101000a81548173ffffffffffffffffffffffffffffffffffffffff021916908373ffffffffffffffffffffffffffffffffffffffff160217905550506200011a565b600080fd5b600073ffffffffffffffffffffffffffffffffffffffff82169050919050565b6000620000b08262000083565b9050919050565b620000c281620000a3565b8114620000ce57600080fd5b50565b600081519050620000e281620000b7565b92915050565b6000602082840312156200010157620001006200007e565b5b60006200011184828501620000d1565b91505092915050565b6118b4806200012a6000396000f3fe608060405234801561001057600080fd5b50600436106100a95760003560e01c8063ad09340911610071578063ad0934091461017b578063b8fab085146101ab578063c222f83f146101db578063c41a360a1461020b578063ea8b10861461023b578063eb2dbcf61461026b576100a9565b80630dfb9661146100ae5780633747ff81146100de57806350b44712146100fa5780637c47a7c01461012f578063939af72c1461014b575b600080fd5b6100c860048036038101906100c39190610c8c565b61029b565b6040516100d59190610cc8565b60405180910390f35b6100f860048036038101906100f39190610ec2565b610303565b005b610114600480360381019061010f9190610c8c565b610574565b60405161012696959493929190611008565b60405180910390f35b61014960048036038101906101449190611070565b610667565b005b610165600480360381019061016091906110b0565b61094e565b604051610172919061110c565b60405180910390f35b61019560048036038101906101909190610c8c565b6109d8565b6040516101a2919061110c565b60405180910390f35b6101c560048036038101906101c09190610c8c565b610a15565b6040516101d29190611142565b60405180910390f35b6101f560048036038101906101f091906110b0565b610a81565b6040516102029190611142565b60405180910390f35b61022560048036038101906102209190610c8c565b610b10565b604051610232919061110c565b60405180910390f35b610255600480360381019061025091906110b0565b610ba5565b6040516102629190610cc8565b60405180910390f35b61028560048036038101906102809190610c8c565b610c0f565b604051610292919061110c565b60405180910390f35b60006102a682610a15565b6102e5576040517f08c379a00000000000000000000000000000000000000000000000000000000081526004016102dc906111a9565b60405180910390fd5b60016000838152602001908152602001600020600301549050919050565b60008054906101000a900473ffffffffffffffffffffffffffffffffffffffff1673ffffffffffffffffffffffffffffffffffffffff166369c1e40b866040518263ffffffff1660e01b815260040161035c9190610cc8565b602060405180830381865afa158015610379573d6000803e3d6000fd5b505050506040513d601f19601f8201168201806040525081019061039d91906111f5565b6103dc576040517f08c379a00000000000000000000000000000000000000000000000000000000081526004016103d39061126e565b60405180910390fd5b6040518060c00160405280878152602001868152602001600073ffffffffffffffffffffffffffffffffffffffff1681526020018462ffffff1681526020018381526020018281525060016000888152602001908152602001600020600082015181600001556020820151816001015560408201518160020160006101000a81548173ffffffffffffffffffffffffffffffffffffffff021916908373ffffffffffffffffffffffffffffffffffffffff16021790555060608201518160020160146101000a81548162ffffff021916908362ffffff1602179055506080820151816003015560a08201518160040190816104d7919061149a565b50905050836002600088815260200190815260200160002060006101000a81548173ffffffffffffffffffffffffffffffffffffffff021916908373ffffffffffffffffffffffffffffffffffffffff16021790555084867fc7a63a1c6bba9e1eb600cc2ea3f465b2e1fbd9e32a15fd74e19349b895f41a5686868686604051610564949392919061156c565b60405180910390a3505050505050565b60016020528060005260406000206000915090508060000154908060010154908060020160009054906101000a900473ffffffffffffffffffffffffffffffffffffffff16908060020160149054906101000a900462ffffff16908060030154908060040180546105e4906112bd565b80601f0160208091040260200160405190810160405280929190818152602001828054610610906112bd565b801561065d5780601f106106325761010080835404028352916020019161065d565b820191906000526020600020905b81548152906001019060200180831161064057829003601f168201915b5050505050905086565b816002600082815260200190815260200160002060009054906101000a900473ffffffffffffffffffffffffffffffffffffffff1673ffffffffffffffffffffffffffffffffffffffff163373ffffffffffffffffffffffffffffffffffffffff1614610709576040517f08c379a000000000000000000000000000000000000000000000000000000000815260040161070090611604565b60405180910390fd5b6000600160008581526020019081526020016000206000015403610762576040517f08c379a000000000000000000000000000000000000000000000000000000000815260040161075990611670565b60405180910390fd5b60006002600085815260200190815260200160002060009054906101000a900473ffffffffffffffffffffffffffffffffffffffff169050600073ffffffffffffffffffffffffffffffffffffffff168173ffffffffffffffffffffffffffffffffffffffff1603610809576040517f08c379a0000000000000000000000000000000000000000000000000000000008152600401610800906116dc565b60405180910390fd5b600073ffffffffffffffffffffffffffffffffffffffff168373ffffffffffffffffffffffffffffffffffffffff1603610878576040517f08c379a000000000000000000000000000000000000000000000000000000000815260040161086f90611748565b60405180910390fd5b826002600086815260200190815260200160002060006101000a81548173ffffffffffffffffffffffffffffffffffffffff021916908373ffffffffffffffffffffffffffffffffffffffff1602179055508273ffffffffffffffffffffffffffffffffffffffff168173ffffffffffffffffffffffffffffffffffffffff16857f47f55b6484413c5e610fefdc92ea3ae86d1162692c4fcb1a16158d305f48b4cb600160008981526020019081526020016000206001015442604051610940929190611768565b60405180910390a450505050565b600061095a8383610a81565b610999576040517f08c379a0000000000000000000000000000000000000000000000000000000008152600401610990906111a9565b60405180910390fd5b6001600084815260200190815260200160002060020160009054906101000a900473ffffffffffffffffffffffffffffffffffffffff16905092915050565b60006002600083815260200190815260200160002060009054906101000a900473ffffffffffffffffffffffffffffffffffffffff169050919050565b60008073ffffffffffffffffffffffffffffffffffffffff166002600084815260200190815260200160002060009054906101000a900473ffffffffffffffffffffffffffffffffffffffff1673ffffffffffffffffffffffffffffffffffffffff1614159050919050565b6000826001600085815260200190815260200160002060000154148015610b08575081604051602001610ab491906117cd565b6040516020818303038152906040528051906020012060016000858152602001908152602001600020600401604051602001610af09190611867565b60405160208183030381529060405280519060200120145b905092915050565b600080600160008481526020019081526020016000206000015403610b6a576040517f08c379a0000000000000000000000000000000000000000000000000000000008152600401610b6190611670565b60405180910390fd5b6002600083815260200190815260200160002060009054906101000a900473ffffffffffffffffffffffffffffffffffffffff169050919050565b6000610bb18383610a81565b610bf0576040517f08c379a0000000000000000000000000000000000000000000000000000000008152600401610be7906111a9565b60405180910390fd5b6001600084815260200190815260200160002060010154905092915050565b60026020528060005260406000206000915054906101000a900473ffffffffffffffffffffffffffffffffffffffff1681565b6000604051905090565b600080fd5b600080fd5b6000819050919050565b610c6981610c56565b8114610c7457600080fd5b50565b600081359050610c8681610c60565b92915050565b600060208284031215610ca257610ca1610c4c565b5b6000610cb084828501610c77565b91505092915050565b610cc281610c56565b82525050565b6000602082019050610cdd6000830184610cb9565b92915050565b600073ffffffffffffffffffffffffffffffffffffffff82169050919050565b6000610d0e82610ce3565b9050919050565b610d1e81610d03565b8114610d2957600080fd5b50565b600081359050610d3b81610d15565b92915050565b600062ffffff82169050919050565b610d5981610d41565b8114610d6457600080fd5b50565b600081359050610d7681610d50565b92915050565b600080fd5b600080fd5b6000601f19601f8301169050919050565b7f4e487b7100000000000000000000000000000000000000000000000000000000600052604160045260246000fd5b610dcf82610d86565b810181811067ffffffffffffffff82111715610dee57610ded610d97565b5b80604052505050565b6000610e01610c42565b9050610e0d8282610dc6565b919050565b600067ffffffffffffffff821115610e2d57610e2c610d97565b5b610e3682610d86565b9050602081019050919050565b82818337600083830152505050565b6000610e65610e6084610e12565b610df7565b905082815260208101848484011115610e8157610e80610d81565b5b610e8c848285610e43565b509392505050565b600082601f830112610ea957610ea8610d7c565b5b8135610eb9848260208601610e52565b91505092915050565b60008060008060008060c08789031215610edf57610ede610c4c565b5b6000610eed89828a01610c77565b9650506020610efe89828a01610c77565b9550506040610f0f89828a01610d2c565b9450506060610f2089828a01610d67565b9350506080610f3189828a01610c77565b92505060a087013567ffffffffffffffff811115610f5257610f51610c51565b5b610f5e89828a01610e94565b9150509295509295509295565b610f7481610d03565b82525050565b610f8381610d41565b82525050565b600081519050919050565b600082825260208201905092915050565b60005b83811015610fc3578082015181840152602081019050610fa8565b60008484015250505050565b6000610fda82610f89565b610fe48185610f94565b9350610ff4818560208601610fa5565b610ffd81610d86565b840191505092915050565b600060c08201905061101d6000830189610cb9565b61102a6020830188610cb9565b6110376040830187610f6b565b6110446060830186610f7a565b6110516080830185610cb9565b81810360a08301526110638184610fcf565b9050979650505050505050565b6000806040838503121561108757611086610c4c565b5b600061109585828601610c77565b92505060206110a685828601610d2c565b9150509250929050565b600080604083850312156110c7576110c6610c4c565b5b60006110d585828601610c77565b925050602083013567ffffffffffffffff8111156110f6576110f5610c51565b5b61110285828601610e94565b9150509250929050565b60006020820190506111216000830184610f6b565b92915050565b60008115159050919050565b61113c81611127565b82525050565b60006020820190506111576000830184611133565b92915050565b7f5469636b657420697320696e76616c6964000000000000000000000000000000600082015250565b6000611193601183610f94565b915061119e8261115d565b602082019050919050565b600060208201905081810360008301526111c281611186565b9050919050565b6111d281611127565b81146111dd57600080fd5b50565b6000815190506111ef816111c9565b92915050565b60006020828403121561120b5761120a610c4c565b5b6000611219848285016111e0565b91505092915050565b7f436f6e6365727420697320696e76616c69640000000000000000000000000000600082015250565b6000611258601283610f94565b915061126382611222565b602082019050919050565b600060208201905081810360008301526112878161124b565b9050919050565b7f4e487b7100000000000000000000000000000000000000000000000000000000600052602260045260246000fd5b600060028204905060018216806112d557607f821691505b6020821081036112e8576112e761128e565b5b50919050565b60008190508160005260206000209050919050565b60006020601f8301049050919050565b600082821b905092915050565b6000600883026113507fffffffffffffffffffffffffffffffffffffffffffffffffffffffffffffffff82611313565b61135a8683611313565b95508019841693508086168417925050509392505050565b6000819050919050565b600061139761139261138d84610c56565b611372565b610c56565b9050919050565b6000819050919050565b6113b18361137c565b6113c56113bd8261139e565b848454611320565b825550505050565b600090565b6113da6113cd565b6113e58184846113a8565b505050565b5b81811015611409576113fe6000826113d2565b6001810190506113eb565b5050565b601f82111561144e5761141f816112ee565b61142884611303565b81016020851015611437578190505b61144b61144385611303565b8301826113ea565b50505b505050565b600082821c905092915050565b600061147160001984600802611453565b1980831691505092915050565b600061148a8383611460565b9150826002028217905092915050565b6114a382610f89565b67ffffffffffffffff8111156114bc576114bb610d97565b5b6114c682546112bd565b6114d182828561140d565b600060209050601f83116001811461150457600084156114f2578287015190505b6114fc858261147e565b865550611564565b601f198416611512866112ee565b60005b8281101561153a57848901518255600182019150602085019450602081019050611515565b868310156115575784890151611553601f891682611460565b8355505b6001600288020188555050505b505050505050565b60006080820190506115816000830187610f6b565b61158e6020830186610f7a565b61159b6040830185610cb9565b81810360608301526115ad8184610fcf565b905095945050505050565b7f43616c6c6572206973206e6f7420746865207469636b6574206f776e65720000600082015250565b60006115ee601e83610f94565b91506115f9826115b8565b602082019050919050565b6000602082019050818103600083015261161d816115e1565b9050919050565b7f5469636b657420646f6573206e6f742065786973740000000000000000000000600082015250565b600061165a601583610f94565b915061166582611624565b602082019050919050565b600060208201905081810360008301526116898161164d565b9050919050565b7f496e76616c69642070726576696f7573206f776e657200000000000000000000600082015250565b60006116c6601683610f94565b91506116d182611690565b602082019050919050565b600060208201905081810360008301526116f5816116b9565b9050919050565b7f496e76616c6964206e6577206f776e6572000000000000000000000000000000600082015250565b6000611732601183610f94565b915061173d826116fc565b602082019050919050565b6000602082019050818103600083015261176181611725565b9050919050565b600060408201905061177d6000830185610cb9565b61178a6020830184610cb9565b9392505050565b600081905092915050565b60006117a782610f89565b6117b18185611791565b93506117c1818560208601610fa5565b80840191505092915050565b60006117d9828461179c565b915081905092915050565b600081546117f1816112bd565b6117fb8186611791565b94506001821660008114611816576001811461182b5761185e565b60ff198316865281151582028601935061185e565b611834856112ee565b60005b8381101561185657815481890152600182019150602081019050611837565b838801955050505b50505092915050565b600061187382846117e4565b91508190509291505056fea264697066735822122055d3d2d0abea65d9e0ffb4c871080b25dfb423722c1b3b40734bbd39526d7d0664736f6c63430008180033",
  "linkReferences": {},
  "deployedLinkReferences": {}
}