{
  "_format": "hh-sol-artifact-1",
  "contractName": "Ticket",
  "sourceName": "contracts/Ticket.sol",
  "abi": [
    {
      "inputs": [
        {
          "internalType": "address",
          "name": "_concertAddress",
          "type": "address"
        }
      ],
      "stateMutability": "nonpayable",
      "type": "constructor"
    },
    {
      "anonymous": false,
      "inputs": [
        {
          "indexed": true,
          "internalType": "uint256",
          "name": "ticketId",
          "type": "uint256"
        },
        {
          "indexed": true,
          "internalType": "uint256",
          "name": "concertId",
          "type": "uint256"
        },
        {
          "indexed": false,
          "internalType": "address",
          "name": "owner",
          "type": "address"
        },
        {
          "indexed": false,
          "internalType": "uint24",
          "name": "category",
          "type": "uint24"
        },
        {
          "indexed": false,
          "internalType": "uint256",
          "name": "cost",
          "type": "uint256"
        },
        {
          "indexed": false,
          "internalType": "string",
          "name": "passportId",
          "type": "string"
        }
      ],
      "name": "TicketCreated",
      "type": "event"
    },
    {
      "anonymous": false,
      "inputs": [
        {
          "indexed": true,
          "internalType": "uint256",
          "name": "ticketId",
          "type": "uint256"
        },
        {
          "indexed": true,
          "internalType": "address",
          "name": "oldOwner",
          "type": "address"
        },
        {
          "indexed": true,
          "internalType": "address",
          "name": "newOwner",
          "type": "address"
        },
        {
          "indexed": false,
          "internalType": "uint256",
          "name": "concertId",
          "type": "uint256"
        },
        {
          "indexed": false,
          "internalType": "uint256",
          "name": "timestamp",
          "type": "uint256"
        }
      ],
      "name": "TicketOwnerUpdated",
      "type": "event"
    },
    {
      "inputs": [
        {
          "internalType": "uint256",
          "name": "ticketId",
          "type": "uint256"
        },
        {
          "internalType": "uint256",
          "name": "concertId",
          "type": "uint256"
        },
        {
          "internalType": "address",
          "name": "buyer",
          "type": "address"
        },
        {
          "internalType": "uint24",
          "name": "category",
          "type": "uint24"
        },
        {
          "internalType": "uint256",
          "name": "cost",
          "type": "uint256"
        },
        {
          "internalType": "string",
          "name": "passportId",
          "type": "string"
        }
      ],
      "name": "createTicket",
      "outputs": [],
      "stateMutability": "nonpayable",
      "type": "function"
    },
    {
      "inputs": [
        {
          "internalType": "uint256",
          "name": "ticketId",
          "type": "uint256"
        },
        {
          "internalType": "string",
          "name": "passportId",
          "type": "string"
        }
      ],
      "name": "getConcertIdFromTicketId",
      "outputs": [
        {
          "internalType": "uint256",
          "name": "",
          "type": "uint256"
        }
      ],
      "stateMutability": "view",
      "type": "function"
    },
    {
      "inputs": [
        {
          "internalType": "uint256",
          "name": "ticketId",
          "type": "uint256"
        }
      ],
      "name": "getOwner",
      "outputs": [
        {
          "internalType": "address",
          "name": "",
          "type": "address"
        }
      ],
      "stateMutability": "view",
      "type": "function"
    },
    {
      "inputs": [
        {
          "internalType": "uint256",
          "name": "ticketId",
          "type": "uint256"
        },
        {
          "internalType": "string",
          "name": "passportId",
          "type": "string"
        }
      ],
      "name": "getPreviousTicketOwner",
      "outputs": [
        {
          "internalType": "address",
          "name": "",
          "type": "address"
        }
      ],
      "stateMutability": "view",
      "type": "function"
    },
    {
      "inputs": [
        {
          "internalType": "uint256",
          "name": "ticketId",
          "type": "uint256"
        }
      ],
      "name": "getTicketCost",
      "outputs": [
        {
          "internalType": "uint256",
          "name": "",
          "type": "uint256"
        }
      ],
      "stateMutability": "view",
      "type": "function"
    },
    {
      "inputs": [
        {
          "internalType": "uint256",
          "name": "ticketId",
          "type": "uint256"
        }
      ],
      "name": "getTicketDetailsFromTicketId",
      "outputs": [
        {
          "components": [
            {
              "internalType": "uint256",
              "name": "ticketId",
              "type": "uint256"
            },
            {
              "internalType": "uint256",
              "name": "concertId",
              "type": "uint256"
            },
            {
              "internalType": "address",
              "name": "prevTicketOwner",
              "type": "address"
            },
            {
              "internalType": "uint24",
              "name": "category",
              "type": "uint24"
            },
            {
              "internalType": "uint256",
              "name": "cost",
              "type": "uint256"
            },
            {
              "internalType": "string",
              "name": "passportId",
              "type": "string"
            }
          ],
          "internalType": "struct Ticket.Ticket",
          "name": "",
          "type": "tuple"
        }
      ],
      "stateMutability": "view",
      "type": "function"
    },
    {
      "inputs": [
        {
          "internalType": "uint256",
          "name": "ticketId",
          "type": "uint256"
        }
      ],
      "name": "getTicketOwner",
      "outputs": [
        {
          "internalType": "address",
          "name": "",
          "type": "address"
        }
      ],
      "stateMutability": "view",
      "type": "function"
    },
    {
      "inputs": [
        {
          "internalType": "uint256",
          "name": "ticketId",
          "type": "uint256"
        }
      ],
      "name": "isValidTicket",
      "outputs": [
        {
          "internalType": "bool",
          "name": "",
          "type": "bool"
        }
      ],
      "stateMutability": "view",
      "type": "function"
    },
    {
      "inputs": [
        {
          "internalType": "uint256",
          "name": "",
          "type": "uint256"
        }
      ],
      "name": "ticketOwners",
      "outputs": [
        {
          "internalType": "address",
          "name": "",
          "type": "address"
        }
      ],
      "stateMutability": "view",
      "type": "function"
    },
    {
      "inputs": [
        {
          "internalType": "uint256",
          "name": "",
          "type": "uint256"
        }
      ],
      "name": "tickets",
      "outputs": [
        {
          "internalType": "uint256",
          "name": "ticketId",
          "type": "uint256"
        },
        {
          "internalType": "uint256",
          "name": "concertId",
          "type": "uint256"
        },
        {
          "internalType": "address",
          "name": "prevTicketOwner",
          "type": "address"
        },
        {
          "internalType": "uint24",
          "name": "category",
          "type": "uint24"
        },
        {
          "internalType": "uint256",
          "name": "cost",
          "type": "uint256"
        },
        {
          "internalType": "string",
          "name": "passportId",
          "type": "string"
        }
      ],
      "stateMutability": "view",
      "type": "function"
    },
    {
      "inputs": [
        {
          "internalType": "uint256",
          "name": "ticketId",
          "type": "uint256"
        },
        {
          "internalType": "address",
          "name": "newOwner",
          "type": "address"
        }
      ],
      "name": "updateTicketOwner",
      "outputs": [],
      "stateMutability": "nonpayable",
      "type": "function"
    },
    {
      "inputs": [
        {
          "internalType": "uint256",
          "name": "ticketId",
          "type": "uint256"
        },
        {
          "internalType": "string",
          "name": "passportId",
          "type": "string"
        }
      ],
      "name": "validateTicket",
      "outputs": [
        {
          "internalType": "bool",
          "name": "",
          "type": "bool"
        }
      ],
      "stateMutability": "view",
      "type": "function"
    }
  ],
  "bytecode": "0x60806040523480156200001157600080fd5b5060405162001ce238038062001ce28339818101604052810190620000379190620000e8565b806000806101000a81548173ffffffffffffffffffffffffffffffffffffffff021916908373ffffffffffffffffffffffffffffffffffffffff160217905550506200011a565b600080fd5b600073ffffffffffffffffffffffffffffffffffffffff82169050919050565b6000620000b08262000083565b9050919050565b620000c281620000a3565b8114620000ce57600080fd5b50565b600081519050620000e281620000b7565b92915050565b6000602082840312156200010157620001006200007e565b5b60006200011184828501620000d1565b91505092915050565b611bb8806200012a6000396000f3fe608060405234801561001057600080fd5b50600436106100b45760003560e01c8063ad09340911610071578063ad093409146101b6578063b8fab085146101e6578063c222f83f14610216578063c41a360a14610246578063ea8b108614610276578063eb2dbcf6146102a6576100b4565b80630dfb9661146100b95780631981e224146100e95780633747ff811461011957806350b44712146101355780637c47a7c01461016a578063939af72c14610186575b600080fd5b6100d360048036038101906100ce9190610e6e565b6102d6565b6040516100e09190610eaa565b60405180910390f35b61010360048036038101906100fe9190610e6e565b61033e565b604051610110919061104c565b60405180910390f35b610133600480360381019061012e91906111fb565b610494565b005b61014f600480360381019061014a9190610e6e565b610705565b6040516101619695949392919061130c565b60405180910390f35b610184600480360381019061017f9190611374565b6107f8565b005b6101a0600480360381019061019b91906113b4565b610adf565b6040516101ad9190611410565b60405180910390f35b6101d060048036038101906101cb9190610e6e565b610b69565b6040516101dd9190611410565b60405180910390f35b61020060048036038101906101fb9190610e6e565b610ba6565b60405161020d9190611446565b60405180910390f35b610230600480360381019061022b91906113b4565b610c12565b60405161023d9190611446565b60405180910390f35b610260600480360381019061025b9190610e6e565b610ca1565b60405161026d9190611410565b60405180910390f35b610290600480360381019061028b91906113b4565b610d36565b60405161029d9190610eaa565b60405180910390f35b6102c060048036038101906102bb9190610e6e565b610da0565b6040516102cd9190611410565b60405180910390f35b60006102e182610ba6565b610320576040517f08c379a0000000000000000000000000000000000000000000000000000000008152600401610317906114ad565b60405180910390fd5b60016000838152602001908152602001600020600301549050919050565b610346610dd3565b600160008381526020019081526020016000206040518060c001604052908160008201548152602001600182015481526020016002820160009054906101000a900473ffffffffffffffffffffffffffffffffffffffff1673ffffffffffffffffffffffffffffffffffffffff1673ffffffffffffffffffffffffffffffffffffffff1681526020016002820160149054906101000a900462ffffff1662ffffff1662ffffff1681526020016003820154815260200160048201805461040b906114fc565b80601f0160208091040260200160405190810160405280929190818152602001828054610437906114fc565b80156104845780601f1061045957610100808354040283529160200191610484565b820191906000526020600020905b81548152906001019060200180831161046757829003601f168201915b5050505050815250509050919050565b60008054906101000a900473ffffffffffffffffffffffffffffffffffffffff1673ffffffffffffffffffffffffffffffffffffffff166369c1e40b866040518263ffffffff1660e01b81526004016104ed9190610eaa565b602060405180830381865afa15801561050a573d6000803e3d6000fd5b505050506040513d601f19601f8201168201806040525081019061052e9190611559565b61056d576040517f08c379a0000000000000000000000000000000000000000000000000000000008152600401610564906115d2565b60405180910390fd5b6040518060c00160405280878152602001868152602001600073ffffffffffffffffffffffffffffffffffffffff1681526020018462ffffff1681526020018381526020018281525060016000888152602001908152602001600020600082015181600001556020820151816001015560408201518160020160006101000a81548173ffffffffffffffffffffffffffffffffffffffff021916908373ffffffffffffffffffffffffffffffffffffffff16021790555060608201518160020160146101000a81548162ffffff021916908362ffffff1602179055506080820151816003015560a0820151816004019081610668919061179e565b50905050836002600088815260200190815260200160002060006101000a81548173ffffffffffffffffffffffffffffffffffffffff021916908373ffffffffffffffffffffffffffffffffffffffff16021790555084867fc7a63a1c6bba9e1eb600cc2ea3f465b2e1fbd9e32a15fd74e19349b895f41a56868686866040516106f59493929190611870565b60405180910390a3505050505050565b60016020528060005260406000206000915090508060000154908060010154908060020160009054906101000a900473ffffffffffffffffffffffffffffffffffffffff16908060020160149054906101000a900462ffffff1690806003015490806004018054610775906114fc565b80601f01602080910402602001604051908101604052809291908181526020018280546107a1906114fc565b80156107ee5780601f106107c3576101008083540402835291602001916107ee565b820191906000526020600020905b8154815290600101906020018083116107d157829003601f168201915b5050505050905086565b816002600082815260200190815260200160002060009054906101000a900473ffffffffffffffffffffffffffffffffffffffff1673ffffffffffffffffffffffffffffffffffffffff163373ffffffffffffffffffffffffffffffffffffffff161461089a576040517f08c379a000000000000000000000000000000000000000000000000000000000815260040161089190611908565b60405180910390fd5b60006001600085815260200190815260200160002060000154036108f3576040517f08c379a00000000000000000000000000000000000000000000000000000000081526004016108ea90611974565b60405180910390fd5b60006002600085815260200190815260200160002060009054906101000a900473ffffffffffffffffffffffffffffffffffffffff169050600073ffffffffffffffffffffffffffffffffffffffff168173ffffffffffffffffffffffffffffffffffffffff160361099a576040517f08c379a0000000000000000000000000000000000000000000000000000000008152600401610991906119e0565b60405180910390fd5b600073ffffffffffffffffffffffffffffffffffffffff168373ffffffffffffffffffffffffffffffffffffffff1603610a09576040517f08c379a0000000000000000000000000000000000000000000000000000000008152600401610a0090611a4c565b60405180910390fd5b826002600086815260200190815260200160002060006101000a81548173ffffffffffffffffffffffffffffffffffffffff021916908373ffffffffffffffffffffffffffffffffffffffff1602179055508273ffffffffffffffffffffffffffffffffffffffff168173ffffffffffffffffffffffffffffffffffffffff16857f47f55b6484413c5e610fefdc92ea3ae86d1162692c4fcb1a16158d305f48b4cb600160008981526020019081526020016000206001015442604051610ad1929190611a6c565b60405180910390a450505050565b6000610aeb8383610c12565b610b2a576040517f08c379a0000000000000000000000000000000000000000000000000000000008152600401610b21906114ad565b60405180910390fd5b6001600084815260200190815260200160002060020160009054906101000a900473ffffffffffffffffffffffffffffffffffffffff16905092915050565b60006002600083815260200190815260200160002060009054906101000a900473ffffffffffffffffffffffffffffffffffffffff169050919050565b60008073ffffffffffffffffffffffffffffffffffffffff166002600084815260200190815260200160002060009054906101000a900473ffffffffffffffffffffffffffffffffffffffff1673ffffffffffffffffffffffffffffffffffffffff1614159050919050565b6000826001600085815260200190815260200160002060000154148015610c99575081604051602001610c459190611ad1565b6040516020818303038152906040528051906020012060016000858152602001908152602001600020600401604051602001610c819190611b6b565b60405160208183030381529060405280519060200120145b905092915050565b600080600160008481526020019081526020016000206000015403610cfb576040517f08c379a0000000000000000000000000000000000000000000000000000000008152600401610cf290611974565b60405180910390fd5b6002600083815260200190815260200160002060009054906101000a900473ffffffffffffffffffffffffffffffffffffffff169050919050565b6000610d428383610c12565b610d81576040517f08c379a0000000000000000000000000000000000000000000000000000000008152600401610d78906114ad565b60405180910390fd5b6001600084815260200190815260200160002060010154905092915050565b60026020528060005260406000206000915054906101000a900473ffffffffffffffffffffffffffffffffffffffff1681565b6040518060c001604052806000815260200160008152602001600073ffffffffffffffffffffffffffffffffffffffff168152602001600062ffffff16815260200160008152602001606081525090565b6000604051905090565b600080fd5b600080fd5b6000819050919050565b610e4b81610e38565b8114610e5657600080fd5b50565b600081359050610e6881610e42565b92915050565b600060208284031215610e8457610e83610e2e565b5b6000610e9284828501610e59565b91505092915050565b610ea481610e38565b82525050565b6000602082019050610ebf6000830184610e9b565b92915050565b610ece81610e38565b82525050565b600073ffffffffffffffffffffffffffffffffffffffff82169050919050565b6000610eff82610ed4565b9050919050565b610f0f81610ef4565b82525050565b600062ffffff82169050919050565b610f2d81610f15565b82525050565b600081519050919050565b600082825260208201905092915050565b60005b83811015610f6d578082015181840152602081019050610f52565b60008484015250505050565b6000601f19601f8301169050919050565b6000610f9582610f33565b610f9f8185610f3e565b9350610faf818560208601610f4f565b610fb881610f79565b840191505092915050565b600060c083016000830151610fdb6000860182610ec5565b506020830151610fee6020860182610ec5565b5060408301516110016040860182610f06565b5060608301516110146060860182610f24565b5060808301516110276080860182610ec5565b5060a083015184820360a086015261103f8282610f8a565b9150508091505092915050565b600060208201905081810360008301526110668184610fc3565b905092915050565b61107781610ef4565b811461108257600080fd5b50565b6000813590506110948161106e565b92915050565b6110a381610f15565b81146110ae57600080fd5b50565b6000813590506110c08161109a565b92915050565b600080fd5b600080fd5b7f4e487b7100000000000000000000000000000000000000000000000000000000600052604160045260246000fd5b61110882610f79565b810181811067ffffffffffffffff82111715611127576111266110d0565b5b80604052505050565b600061113a610e24565b905061114682826110ff565b919050565b600067ffffffffffffffff821115611166576111656110d0565b5b61116f82610f79565b9050602081019050919050565b82818337600083830152505050565b600061119e6111998461114b565b611130565b9050828152602081018484840111156111ba576111b96110cb565b5b6111c584828561117c565b509392505050565b600082601f8301126111e2576111e16110c6565b5b81356111f284826020860161118b565b91505092915050565b60008060008060008060c0878903121561121857611217610e2e565b5b600061122689828a01610e59565b965050602061123789828a01610e59565b955050604061124889828a01611085565b945050606061125989828a016110b1565b935050608061126a89828a01610e59565b92505060a087013567ffffffffffffffff81111561128b5761128a610e33565b5b61129789828a016111cd565b9150509295509295509295565b6112ad81610ef4565b82525050565b6112bc81610f15565b82525050565b600082825260208201905092915050565b60006112de82610f33565b6112e881856112c2565b93506112f8818560208601610f4f565b61130181610f79565b840191505092915050565b600060c0820190506113216000830189610e9b565b61132e6020830188610e9b565b61133b60408301876112a4565b61134860608301866112b3565b6113556080830185610e9b565b81810360a083015261136781846112d3565b9050979650505050505050565b6000806040838503121561138b5761138a610e2e565b5b600061139985828601610e59565b92505060206113aa85828601611085565b9150509250929050565b600080604083850312156113cb576113ca610e2e565b5b60006113d985828601610e59565b925050602083013567ffffffffffffffff8111156113fa576113f9610e33565b5b611406858286016111cd565b9150509250929050565b600060208201905061142560008301846112a4565b92915050565b60008115159050919050565b6114408161142b565b82525050565b600060208201905061145b6000830184611437565b92915050565b7f5469636b657420697320696e76616c6964000000000000000000000000000000600082015250565b60006114976011836112c2565b91506114a282611461565b602082019050919050565b600060208201905081810360008301526114c68161148a565b9050919050565b7f4e487b7100000000000000000000000000000000000000000000000000000000600052602260045260246000fd5b6000600282049050600182168061151457607f821691505b602082108103611527576115266114cd565b5b50919050565b6115368161142b565b811461154157600080fd5b50565b6000815190506115538161152d565b92915050565b60006020828403121561156f5761156e610e2e565b5b600061157d84828501611544565b91505092915050565b7f436f6e6365727420697320696e76616c69640000000000000000000000000000600082015250565b60006115bc6012836112c2565b91506115c782611586565b602082019050919050565b600060208201905081810360008301526115eb816115af565b9050919050565b60008190508160005260206000209050919050565b60006020601f8301049050919050565b600082821b905092915050565b6000600883026116547fffffffffffffffffffffffffffffffffffffffffffffffffffffffffffffffff82611617565b61165e8683611617565b95508019841693508086168417925050509392505050565b6000819050919050565b600061169b61169661169184610e38565b611676565b610e38565b9050919050565b6000819050919050565b6116b583611680565b6116c96116c1826116a2565b848454611624565b825550505050565b600090565b6116de6116d1565b6116e98184846116ac565b505050565b5b8181101561170d576117026000826116d6565b6001810190506116ef565b5050565b601f82111561175257611723816115f2565b61172c84611607565b8101602085101561173b578190505b61174f61174785611607565b8301826116ee565b50505b505050565b600082821c905092915050565b600061177560001984600802611757565b1980831691505092915050565b600061178e8383611764565b9150826002028217905092915050565b6117a782610f33565b67ffffffffffffffff8111156117c0576117bf6110d0565b5b6117ca82546114fc565b6117d5828285611711565b600060209050601f83116001811461180857600084156117f6578287015190505b6118008582611782565b865550611868565b601f198416611816866115f2565b60005b8281101561183e57848901518255600182019150602085019450602081019050611819565b8683101561185b5784890151611857601f891682611764565b8355505b6001600288020188555050505b505050505050565b600060808201905061188560008301876112a4565b61189260208301866112b3565b61189f6040830185610e9b565b81810360608301526118b181846112d3565b905095945050505050565b7f43616c6c6572206973206e6f7420746865207469636b6574206f776e65720000600082015250565b60006118f2601e836112c2565b91506118fd826118bc565b602082019050919050565b60006020820190508181036000830152611921816118e5565b9050919050565b7f5469636b657420646f6573206e6f742065786973740000000000000000000000600082015250565b600061195e6015836112c2565b915061196982611928565b602082019050919050565b6000602082019050818103600083015261198d81611951565b9050919050565b7f496e76616c69642070726576696f7573206f776e657200000000000000000000600082015250565b60006119ca6016836112c2565b91506119d582611994565b602082019050919050565b600060208201905081810360008301526119f9816119bd565b9050919050565b7f496e76616c6964206e6577206f776e6572000000000000000000000000000000600082015250565b6000611a366011836112c2565b9150611a4182611a00565b602082019050919050565b60006020820190508181036000830152611a6581611a29565b9050919050565b6000604082019050611a816000830185610e9b565b611a8e6020830184610e9b565b9392505050565b600081905092915050565b6000611aab82610f33565b611ab58185611a95565b9350611ac5818560208601610f4f565b80840191505092915050565b6000611add8284611aa0565b915081905092915050565b60008154611af5816114fc565b611aff8186611a95565b94506001821660008114611b1a5760018114611b2f57611b62565b60ff1983168652811515820286019350611b62565b611b38856115f2565b60005b83811015611b5a57815481890152600182019150602081019050611b3b565b838801955050505b50505092915050565b6000611b778284611ae8565b91508190509291505056fea2646970667358221220a693dd7141b9b1fb86e32178b44d81a6e684ce8dc40ae78e5112a00a567b5bb564736f6c63430008180033",
  "linkReferences": {},
  "deployedLinkReferences": {}
}