{
  "_format": "hh-sol-artifact-1",
  "contractName": "Ticket",
  "sourceName": "contracts/Ticket.sol",
  "abi": [
    {
      "inputs": [
        {
          "internalType": "address",
          "name": "_concertAddress",
          "type": "address"
        }
      ],
      "stateMutability": "nonpayable",
      "type": "constructor"
    },
    {
      "anonymous": false,
      "inputs": [
        {
          "indexed": true,
          "internalType": "uint256",
          "name": "ticketId",
          "type": "uint256"
        },
        {
          "indexed": true,
          "internalType": "uint256",
          "name": "concertId",
          "type": "uint256"
        },
        {
          "indexed": false,
          "internalType": "address",
          "name": "owner",
          "type": "address"
        },
        {
          "indexed": false,
          "internalType": "uint24",
          "name": "category",
          "type": "uint24"
        },
        {
          "indexed": false,
          "internalType": "uint256",
          "name": "cost",
          "type": "uint256"
        },
        {
          "indexed": false,
          "internalType": "string",
          "name": "passportId",
          "type": "string"
        }
      ],
      "name": "TicketCreated",
      "type": "event"
    },
    {
      "inputs": [
        {
          "internalType": "uint256",
          "name": "ticketId",
          "type": "uint256"
        },
        {
          "internalType": "uint256",
          "name": "concertId",
          "type": "uint256"
        },
        {
          "internalType": "address",
          "name": "buyer",
          "type": "address"
        },
        {
          "internalType": "uint24",
          "name": "category",
          "type": "uint24"
        },
        {
          "internalType": "uint256",
          "name": "cost",
          "type": "uint256"
        },
        {
          "internalType": "string",
          "name": "passportId",
          "type": "string"
        }
      ],
      "name": "createTicket",
      "outputs": [],
      "stateMutability": "nonpayable",
      "type": "function"
    },
    {
      "inputs": [
        {
          "internalType": "uint256",
          "name": "ticketId",
          "type": "uint256"
        },
        {
          "internalType": "string",
          "name": "passportId",
          "type": "string"
        }
      ],
      "name": "getConcertIdFromTicketId",
      "outputs": [
        {
          "internalType": "uint256",
          "name": "",
          "type": "uint256"
        }
      ],
      "stateMutability": "view",
      "type": "function"
    },
    {
      "inputs": [
        {
          "internalType": "uint256",
          "name": "ticketId",
          "type": "uint256"
        }
      ],
      "name": "getOwner",
      "outputs": [
        {
          "internalType": "address",
          "name": "",
          "type": "address"
        }
      ],
      "stateMutability": "view",
      "type": "function"
    },
    {
      "inputs": [
        {
          "internalType": "uint256",
          "name": "ticketId",
          "type": "uint256"
        },
        {
          "internalType": "string",
          "name": "passportId",
          "type": "string"
        }
      ],
      "name": "getPreviousTicketOwner",
      "outputs": [
        {
          "internalType": "address",
          "name": "",
          "type": "address"
        }
      ],
      "stateMutability": "view",
      "type": "function"
    },
    {
      "inputs": [
        {
          "internalType": "uint256",
          "name": "ticketId",
          "type": "uint256"
        }
      ],
      "name": "getTicketCost",
      "outputs": [
        {
          "internalType": "uint256",
          "name": "",
          "type": "uint256"
        }
      ],
      "stateMutability": "view",
      "type": "function"
    },
    {
      "inputs": [
        {
          "internalType": "uint256",
          "name": "ticketId",
          "type": "uint256"
        }
      ],
      "name": "getTicketOwner",
      "outputs": [
        {
          "internalType": "address",
          "name": "",
          "type": "address"
        }
      ],
      "stateMutability": "view",
      "type": "function"
    },
    {
      "inputs": [
        {
          "internalType": "uint256",
          "name": "ticketId",
          "type": "uint256"
        }
      ],
      "name": "isValidTicket",
      "outputs": [
        {
          "internalType": "bool",
          "name": "",
          "type": "bool"
        }
      ],
      "stateMutability": "view",
      "type": "function"
    },
    {
      "inputs": [
        {
          "internalType": "uint256",
          "name": "",
          "type": "uint256"
        }
      ],
      "name": "ticketOwners",
      "outputs": [
        {
          "internalType": "address",
          "name": "",
          "type": "address"
        }
      ],
      "stateMutability": "view",
      "type": "function"
    },
    {
      "inputs": [
        {
          "internalType": "uint256",
          "name": "",
          "type": "uint256"
        }
      ],
      "name": "tickets",
      "outputs": [
        {
          "internalType": "uint256",
          "name": "ticketId",
          "type": "uint256"
        },
        {
          "internalType": "uint256",
          "name": "concertId",
          "type": "uint256"
        },
        {
          "internalType": "address",
          "name": "prevTicketOwner",
          "type": "address"
        },
        {
          "internalType": "uint24",
          "name": "category",
          "type": "uint24"
        },
        {
          "internalType": "uint256",
          "name": "cost",
          "type": "uint256"
        },
        {
          "internalType": "string",
          "name": "passportId",
          "type": "string"
        }
      ],
      "stateMutability": "view",
      "type": "function"
    },
    {
      "inputs": [
        {
          "internalType": "uint256",
          "name": "ticketId",
          "type": "uint256"
        },
        {
          "internalType": "address",
          "name": "newOwner",
          "type": "address"
        }
      ],
      "name": "updateTicketOwner",
      "outputs": [],
      "stateMutability": "nonpayable",
      "type": "function"
    },
    {
      "inputs": [
        {
          "internalType": "uint256",
          "name": "ticketId",
          "type": "uint256"
        },
        {
          "internalType": "string",
          "name": "passportId",
          "type": "string"
        }
      ],
      "name": "validateTicket",
      "outputs": [
        {
          "internalType": "bool",
          "name": "",
          "type": "bool"
        }
      ],
      "stateMutability": "view",
      "type": "function"
    }
  ],
  "bytecode": "0x60806040523480156200001157600080fd5b50604051620015e0380380620015e08339818101604052810190620000379190620000e8565b806000806101000a81548173ffffffffffffffffffffffffffffffffffffffff021916908373ffffffffffffffffffffffffffffffffffffffff160217905550506200011a565b600080fd5b600073ffffffffffffffffffffffffffffffffffffffff82169050919050565b6000620000b08262000083565b9050919050565b620000c281620000a3565b8114620000ce57600080fd5b50565b600081519050620000e281620000b7565b92915050565b6000602082840312156200010157620001006200007e565b5b60006200011184828501620000d1565b91505092915050565b6114b6806200012a6000396000f3fe608060405234801561001057600080fd5b50600436106100a95760003560e01c8063ad09340911610071578063ad0934091461017b578063b8fab085146101ab578063c222f83f146101db578063c41a360a1461020b578063ea8b10861461023b578063eb2dbcf61461026b576100a9565b80630dfb9661146100ae5780633747ff81146100de57806350b44712146100fa5780637c47a7c01461012f578063939af72c1461014b575b600080fd5b6100c860048036038101906100c391906109fb565b61029b565b6040516100d59190610a37565b60405180910390f35b6100f860048036038101906100f39190610c31565b610303565b005b610114600480360381019061010f91906109fb565b610574565b60405161012696959493929190610d77565b60405180910390f35b61014960048036038101906101449190610ddf565b610667565b005b61016560048036038101906101609190610e1f565b6106bd565b6040516101729190610e7b565b60405180910390f35b610195600480360381019061019091906109fb565b610747565b6040516101a29190610e7b565b60405180910390f35b6101c560048036038101906101c091906109fb565b610784565b6040516101d29190610eb1565b60405180910390f35b6101f560048036038101906101f09190610e1f565b6107f0565b6040516102029190610eb1565b60405180910390f35b610225600480360381019061022091906109fb565b61087f565b6040516102329190610e7b565b60405180910390f35b61025560048036038101906102509190610e1f565b610914565b6040516102629190610a37565b60405180910390f35b610285600480360381019061028091906109fb565b61097e565b6040516102929190610e7b565b60405180910390f35b60006102a682610784565b6102e5576040517f08c379a00000000000000000000000000000000000000000000000000000000081526004016102dc90610f18565b60405180910390fd5b60016000838152602001908152602001600020600301549050919050565b60008054906101000a900473ffffffffffffffffffffffffffffffffffffffff1673ffffffffffffffffffffffffffffffffffffffff166369c1e40b866040518263ffffffff1660e01b815260040161035c9190610a37565b602060405180830381865afa158015610379573d6000803e3d6000fd5b505050506040513d601f19601f8201168201806040525081019061039d9190610f64565b6103dc576040517f08c379a00000000000000000000000000000000000000000000000000000000081526004016103d390610fdd565b60405180910390fd5b6040518060c00160405280878152602001868152602001600073ffffffffffffffffffffffffffffffffffffffff1681526020018462ffffff1681526020018381526020018281525060016000888152602001908152602001600020600082015181600001556020820151816001015560408201518160020160006101000a81548173ffffffffffffffffffffffffffffffffffffffff021916908373ffffffffffffffffffffffffffffffffffffffff16021790555060608201518160020160146101000a81548162ffffff021916908362ffffff1602179055506080820151816003015560a08201518160040190816104d79190611209565b50905050836002600088815260200190815260200160002060006101000a81548173ffffffffffffffffffffffffffffffffffffffff021916908373ffffffffffffffffffffffffffffffffffffffff16021790555084867fc7a63a1c6bba9e1eb600cc2ea3f465b2e1fbd9e32a15fd74e19349b895f41a568686868660405161056494939291906112db565b60405180910390a3505050505050565b60016020528060005260406000206000915090508060000154908060010154908060020160009054906101000a900473ffffffffffffffffffffffffffffffffffffffff16908060020160149054906101000a900462ffffff16908060030154908060040180546105e49061102c565b80601f01602080910402602001604051908101604052809291908181526020018280546106109061102c565b801561065d5780601f106106325761010080835404028352916020019161065d565b820191906000526020600020905b81548152906001019060200180831161064057829003601f168201915b5050505050905086565b806002600084815260200190815260200160002060006101000a81548173ffffffffffffffffffffffffffffffffffffffff021916908373ffffffffffffffffffffffffffffffffffffffff1602179055505050565b60006106c983836107f0565b610708576040517f08c379a00000000000000000000000000000000000000000000000000000000081526004016106ff90610f18565b60405180910390fd5b6001600084815260200190815260200160002060020160009054906101000a900473ffffffffffffffffffffffffffffffffffffffff16905092915050565b60006002600083815260200190815260200160002060009054906101000a900473ffffffffffffffffffffffffffffffffffffffff169050919050565b60008073ffffffffffffffffffffffffffffffffffffffff166002600084815260200190815260200160002060009054906101000a900473ffffffffffffffffffffffffffffffffffffffff1673ffffffffffffffffffffffffffffffffffffffff1614159050919050565b60008260016000858152602001908152602001600020600001541480156108775750816040516020016108239190611363565b604051602081830303815290604052805190602001206001600085815260200190815260200160002060040160405160200161085f91906113fd565b60405160208183030381529060405280519060200120145b905092915050565b6000806001600084815260200190815260200160002060000154036108d9576040517f08c379a00000000000000000000000000000000000000000000000000000000081526004016108d090611460565b60405180910390fd5b6002600083815260200190815260200160002060009054906101000a900473ffffffffffffffffffffffffffffffffffffffff169050919050565b600061092083836107f0565b61095f576040517f08c379a000000000000000000000000000000000000000000000000000000000815260040161095690610f18565b60405180910390fd5b6001600084815260200190815260200160002060010154905092915050565b60026020528060005260406000206000915054906101000a900473ffffffffffffffffffffffffffffffffffffffff1681565b6000604051905090565b600080fd5b600080fd5b6000819050919050565b6109d8816109c5565b81146109e357600080fd5b50565b6000813590506109f5816109cf565b92915050565b600060208284031215610a1157610a106109bb565b5b6000610a1f848285016109e6565b91505092915050565b610a31816109c5565b82525050565b6000602082019050610a4c6000830184610a28565b92915050565b600073ffffffffffffffffffffffffffffffffffffffff82169050919050565b6000610a7d82610a52565b9050919050565b610a8d81610a72565b8114610a9857600080fd5b50565b600081359050610aaa81610a84565b92915050565b600062ffffff82169050919050565b610ac881610ab0565b8114610ad357600080fd5b50565b600081359050610ae581610abf565b92915050565b600080fd5b600080fd5b6000601f19601f8301169050919050565b7f4e487b7100000000000000000000000000000000000000000000000000000000600052604160045260246000fd5b610b3e82610af5565b810181811067ffffffffffffffff82111715610b5d57610b5c610b06565b5b80604052505050565b6000610b706109b1565b9050610b7c8282610b35565b919050565b600067ffffffffffffffff821115610b9c57610b9b610b06565b5b610ba582610af5565b9050602081019050919050565b82818337600083830152505050565b6000610bd4610bcf84610b81565b610b66565b905082815260208101848484011115610bf057610bef610af0565b5b610bfb848285610bb2565b509392505050565b600082601f830112610c1857610c17610aeb565b5b8135610c28848260208601610bc1565b91505092915050565b60008060008060008060c08789031215610c4e57610c4d6109bb565b5b6000610c5c89828a016109e6565b9650506020610c6d89828a016109e6565b9550506040610c7e89828a01610a9b565b9450506060610c8f89828a01610ad6565b9350506080610ca089828a016109e6565b92505060a087013567ffffffffffffffff811115610cc157610cc06109c0565b5b610ccd89828a01610c03565b9150509295509295509295565b610ce381610a72565b82525050565b610cf281610ab0565b82525050565b600081519050919050565b600082825260208201905092915050565b60005b83811015610d32578082015181840152602081019050610d17565b60008484015250505050565b6000610d4982610cf8565b610d538185610d03565b9350610d63818560208601610d14565b610d6c81610af5565b840191505092915050565b600060c082019050610d8c6000830189610a28565b610d996020830188610a28565b610da66040830187610cda565b610db36060830186610ce9565b610dc06080830185610a28565b81810360a0830152610dd28184610d3e565b9050979650505050505050565b60008060408385031215610df657610df56109bb565b5b6000610e04858286016109e6565b9250506020610e1585828601610a9b565b9150509250929050565b60008060408385031215610e3657610e356109bb565b5b6000610e44858286016109e6565b925050602083013567ffffffffffffffff811115610e6557610e646109c0565b5b610e7185828601610c03565b9150509250929050565b6000602082019050610e906000830184610cda565b92915050565b60008115159050919050565b610eab81610e96565b82525050565b6000602082019050610ec66000830184610ea2565b92915050565b7f5469636b657420697320696e76616c6964000000000000000000000000000000600082015250565b6000610f02601183610d03565b9150610f0d82610ecc565b602082019050919050565b60006020820190508181036000830152610f3181610ef5565b9050919050565b610f4181610e96565b8114610f4c57600080fd5b50565b600081519050610f5e81610f38565b92915050565b600060208284031215610f7a57610f796109bb565b5b6000610f8884828501610f4f565b91505092915050565b7f436f6e6365727420697320696e76616c69640000000000000000000000000000600082015250565b6000610fc7601283610d03565b9150610fd282610f91565b602082019050919050565b60006020820190508181036000830152610ff681610fba565b9050919050565b7f4e487b7100000000000000000000000000000000000000000000000000000000600052602260045260246000fd5b6000600282049050600182168061104457607f821691505b60208210810361105757611056610ffd565b5b50919050565b60008190508160005260206000209050919050565b60006020601f8301049050919050565b600082821b905092915050565b6000600883026110bf7fffffffffffffffffffffffffffffffffffffffffffffffffffffffffffffffff82611082565b6110c98683611082565b95508019841693508086168417925050509392505050565b6000819050919050565b60006111066111016110fc846109c5565b6110e1565b6109c5565b9050919050565b6000819050919050565b611120836110eb565b61113461112c8261110d565b84845461108f565b825550505050565b600090565b61114961113c565b611154818484611117565b505050565b5b818110156111785761116d600082611141565b60018101905061115a565b5050565b601f8211156111bd5761118e8161105d565b61119784611072565b810160208510156111a6578190505b6111ba6111b285611072565b830182611159565b50505b505050565b600082821c905092915050565b60006111e0600019846008026111c2565b1980831691505092915050565b60006111f983836111cf565b9150826002028217905092915050565b61121282610cf8565b67ffffffffffffffff81111561122b5761122a610b06565b5b611235825461102c565b61124082828561117c565b600060209050601f8311600181146112735760008415611261578287015190505b61126b85826111ed565b8655506112d3565b601f1984166112818661105d565b60005b828110156112a957848901518255600182019150602085019450602081019050611284565b868310156112c657848901516112c2601f8916826111cf565b8355505b6001600288020188555050505b505050505050565b60006080820190506112f06000830187610cda565b6112fd6020830186610ce9565b61130a6040830185610a28565b818103606083015261131c8184610d3e565b905095945050505050565b600081905092915050565b600061133d82610cf8565b6113478185611327565b9350611357818560208601610d14565b80840191505092915050565b600061136f8284611332565b915081905092915050565b600081546113878161102c565b6113918186611327565b945060018216600081146113ac57600181146113c1576113f4565b60ff19831686528115158202860193506113f4565b6113ca8561105d565b60005b838110156113ec578154818901526001820191506020810190506113cd565b838801955050505b50505092915050565b6000611409828461137a565b915081905092915050565b7f5469636b657420646f6573206e6f742065786973740000000000000000000000600082015250565b600061144a601583610d03565b915061145582611414565b602082019050919050565b600060208201905081810360008301526114798161143d565b905091905056fea2646970667358221220b8e9623fb54f002884b2bb5f9f8170febb073f67cbc9e9927c3704a720d0c35f64736f6c63430008180033",
  "linkReferences": {},
  "deployedLinkReferences": {}
}